:020000040800F2
:1000000000000220794200089D410008AB41000831
:10001000B1410008B7410008BD41000800000000E0
:10002000000000000000000000000000C3410008C4
:10003000D141000800000000DF410008ED41000848
:10004000C9420008C9420008C9420008C942000864
:10005000C9420008C9420008C9420008C942000854
:10006000C9420008C9420008C9420008C942000844
:10007000C9420008C9420008C9420008C942000834
:10008000C9420008C9420008C9420008C942000824
:10009000C9420008C9420008C9420008C942000814
:1000A000C9420008C9420008C9420008C942000804
:1000B000C9420008C9420008C9420008C9420008F4
:1000C000C9420008C9420008C9420008C9420008E4
:1000D000C9420008C9420008C9420008C9420008D4
:1000E000C9420008F9410008C9420008C942000895
:1000F000C9420008C9420008C9420008C9420008B4
:10010000C9420008C9420008C9420008C9420008A3
:10011000C9420008C9420008C9420008C942000893
:10012000C9420008C9420008C9420008C942000883
:10013000C94200080000000000000000C942000899
:10014000C9420008C9420008C9420008C942000863
:10015000C9420008C9420008C9420008C942000853
:10016000C9420008C9420008C9420008C942000843
:10017000C9420008C9420008C94200080000000046
:1001800000000000C942000800000000000000005C
:10019000C94200080000000000000000C942000839
:1001A000000000000000000000000000C94200083C
:1001B000C9420008C9420008C9420008C9420008F3
:0401C000C942000828
:1001C40010B5054C237833B9044B13B10448AFF38D
:1001D40000800123237010BD0C00002000000000EB
:1001E4002443000808B5034B1BB103490348AFF38C
:1001F400008008BD00000000100000202443000817
:1002040053B94AB9002908BF00281CBF4FF0FF3179
:100214004FF0FF3000F07AB9ADF1080C6DE904CE6F
:1002240000F006F8DDF804E0DDE9022304B07047CD
:100234002DE9F0478C460D460446089E002B51D10B
:100244008A4217466DD9B2FA82FEBEF1000F0BD076
:10025400CEF1200C01FA0EF520FA0CFC02FA0EF78E
:100264004CEA050C00FA0EF44FEA174A250CBCFBC5
:10027400FAF81FFA87F90AFB18CC45EA0C4508FB83
:1002840009F3AB420AD9ED1908F1FF3280F023815A
:10029400AB4240F22081A8F102083D44ED1AA4B219
:1002A400B5FBFAF00AFB105544EA054400FB09F9D2
:1002B400A14509D9E41900F1FF3380F00A81A14571
:1002C40040F2078102383C44A4EB090440EA0840A8
:1002D4000021002E61D024FA0EF4002334607360F0
:1002E400BDE8F0878B4207D9002E54D0002186E860
:1002F40021000846BDE8F087B3FA83F1002940F0F5
:100304008E80AB4202D3824200F2FA80841A65EBFB
:1003140003050120AC46002E3FD086E81010BDE84E
:10032400F08712B90127B7FBF2F7B7FA87FEBEF1DF
:10033400000F34D1EB1B3A0C1FFA87FC0121B3FBED
:10034400F2F8250C02FB183345EA03450CFB08F3CD
:10035400AB4207D9ED1908F1FF3002D2AB4200F2EB
:10036400D1808046ED1AA3B2B5FBF2F002FB105522
:1003740043EA05440CFB00FCA44507D9E41900F149
:10038400FF3302D2A44500F2B8801846A4EB0C0453
:1003940040EA08409DE731463046BDE8F087CEF19B
:1003A400200405FA0EF307FA0EF720FA04F83A0CC3
:1003B40025FA04F448EA0308B4FBF2F14FEA1845BD
:1003C40002FB11441FFA87FC45EA044501FB0CF3C8
:1003D400AB4200FA0EF409D9ED1901F1FF3080F0B7
:1003E4008A80AB4240F2878002393D44EB1A1FFAFF
:1003F40088F5B3FBF2F002FB103345EA034500FB3A
:100404000CF3AB4207D9ED1900F1FF386FD2AB42C0
:100414006DD902383D44EB1A40EA01418FE7C1F13E
:10042400200722FA07F88B4005FA01F448EA03038F
:1004340020FA07FE4FEA134CFD404EEA040EB5FBCA
:10044400FCF94FEA1E440CFB19551FFA83F844EAE1
:10045400054509FB08F4AC4202FA01F200FA01FA7C
:1004640008D9ED1809F1FF3043D2AC4241D9A9F1C2
:1004740002091D442D1B1FFA8EFEB5FBFCF00CFB7C
:1004840010554EEA054400FB08F8A04507D9E418C6
:1004940000F1FF3529D2A04527D902381C4440EA8F
:1004A4000940A4EB0804A0FB02894C45C6464D460E
:1004B40015D312D056B1BAEB0E0364EB050404FA5B
:1004C40007F7CB401F43CC40376074600021BDE880
:1004D400F0871846F8E69046E0E6C245EAD2B8EB63
:1004E400020E69EB03050138E4E72846D7E74046E6
:1004F40091E78146BEE7014678E702383C4445E788
:10050400084608E7A8F102083D442BE7704700BFFE
:1005140080B500AF0E4A0E4B1B6843F400731360A2
:100524000B4A0B4B1B6843F480631360084A084B67
:100534001B6843F480731360032000F047F9002024
:1005440000F008F803F044FC0023184680BD00BF07
:10055400003C024080B582B000AF7860124B1A684C
:10056400124B1B7819464FF47A73B3FBF1F3B2FBC9
:10057400F3F3184600F05FF90346002B01D0012382
:100584000EE07B680F2B0AD8002279684FF0FF3009
:1005940000F027F9064A7B681360002300E001237A
:1005A40018460837BD4680BD08000020040000201E
:1005B4000000002080B400AF064B1B781A46064B9F
:1005C4001B681344044A136000BFBD465DF8047BF6
:1005D400704700BF040000202800002080B400AF52
:1005E400034B1B681846BD465DF8047B704700BF8B
:1005F4002800002080B584B000AF7860FFF7EEFFDC
:10060400B8607B68FB60FB68B3F1FF3F05D0094B22
:100614001B781A46FB681344FB6000BFFFF7DEFF3C
:100624000246BB68D21AFB689A42F7D300BF103760
:10063400BD4680BD0400002080B485B000AF786062
:100644007B6803F00703FB600C4BDB68BB60BA6894
:100654004FF6FF031340BB60FB681A02BB681343E9
:1006640043F0BF6343F40033BB60044ABB68D36008
:1006740000BF1437BD465DF8047B704700ED00E011
:1006840080B400AF044BDB681B0A03F00703184671
:10069400BD465DF8047B704700ED00E080B483B094
:1006A40000AF0346FB71094997F907305B09FA79F2
:1006B40002F01F02012000FA02F241F8232000BFD9
:1006C4000C37BD465DF8047B704700BF00E100E0D5
:1006D40080B483B000AF03463960FB7197F90730EB
:1006E400002B0BDA0D49FB7903F00F03043B3A6846
:1006F400D2B21201D2B20B441A7609E0084997F932
:1007040007303A68D2B21201D2B20B4483F8002304
:1007140000BF0C37BD465DF8047B704700ED00E078
:1007240000E100E080B489B000AFF860B9607A609D
:10073400FB6803F00703FB61FB69C3F10703042BA8
:1007440028BF0423BB61FB690433062B02D9FB6970
:10075400033B00E000237B610122BB6902FA03F33F
:100764005A1EBB681A407B699A4001217B6901FAD1
:1007740003F3591E7B680B40134318462437BD46C8
:100784005DF8047B7047000080B582B000AF7860EC
:100794007B68013BB3F1807F01D301230FE00A4A58
:1007A4007B68013B53600F214FF0FF30FFF790FF50
:1007B400054B00229A60044B07221A600023184656
:1007C4000837BD4680BD00BF10E000E080B582B0B0
:1007D40000AF78607868FFF72FFF00BF0837BD4689
:1007E40080BD80B586B000AF0346B9607A60FB7304
:1007F40000237B61FFF744FF78617A68B968786900
:10080400FFF790FF024697F90F3011461846FFF79D
:100814005FFF00BF1837BD4680BD80B582B000AF12
:100824000346FB7197F907301846FFF737FF00BFFF
:100834000837BD4680BD80B582B000AF7860786867
:10084400FFF7A2FF034618460837BD4680BD0000E7
:1008540080B489B000AF7860396000237B610023E5
:100864003B610023BB610023FB6165E10122FB695D
:1008740002FA03F37B613B681A687B6913403B61AE
:100884003A697B699A4240F054813B685B68022B69
:1008940003D03B685B68122B23D1FB69DA087B68C1
:1008A400083253F82230BB61FB6903F007039B0055
:1008B4000F2202FA03F3DB43BA691340BB613B68BE
:1008C4001A69FB6903F007039B0002FA03F3BA6990
:1008D4001343BB61FB69DA087B680832B96943F8E2
:1008E40022107B681B68BB61FB695B00032202FA70
:1008F40003F3DB43BA691340BB613B685B6803F0F5
:100904000302FB695B0002FA03F3BA691343BB6198
:100914007B68BA691A603B685B68012B0BD03B6843
:100924005B68022B07D03B685B68112B03D03B68E4
:100934005B68122B30D17B689B68BB61FB695B00F1
:10094400032202FA03F3DB43BA691340BB613B6839
:10095400DA68FB695B0002FA03F3BA691343BB610B
:100964007B68BA699A607B685B68BB610122FB693A
:1009740002FA03F3DB43BA691340BB613B685B686B
:100984001B0903F00102FB6902FA03F3BA6913437A
:10099400BB617B68BA695A607B68DB68BB61FB69D1
:1009A4005B00032202FA03F3DB43BA691340BB6121
:1009B4003B689A68FB695B0002FA03F3BA69134364
:1009C400BB617B68BA69DA603B685B6803F080539B
:1009D400002B00F0AE800023FB605C4A5B4B5B6C39
:1009E40043F480435364594B5B6C03F48043FB60D2
:1009F400FB68574AFB699B08023352F82330BB61FA
:100A0400FB6903F003039B000F2202FA03F3DB43A9
:100A1400BA691340BB617B684E4A934225D07B6818
:100A24004D4A93421FD07B684C4A934219D07B684D
:100A34004B4A934213D07B684A4A93420DD07B6859
:100A4400494A934207D07B68484A934201D106231E
:100A54000CE007230AE0052308E0042306E003234F
:100A640004E0022302E0012300E00023FA6902F01B
:100A7400030292009340BA691343BB613449FB6992
:100A84009B080233BA6941F82320394B1B68BB61C8
:100A94003B69DB43BA691340BB613B685B6803F4A1
:100AA4008033002B03D0BA693B691343BB61304ADE
:100AB400BB6913602E4B5B68BB613B69DB43BA695E
:100AC4001340BB613B685B6803F40033002B03D025
:100AD400BA693B691343BB61254ABB695360244B24
:100AE4009B68BB613B69DB43BA691340BB613B68EC
:100AF4005B6803F48013002B03D0BA693B6913438A
:100B0400BB611B4ABB699360194BDB68BB613B69E2
:100B1400DB43BA691340BB613B685B6803F40013B1
:100B2400002B03D0BA693B691343BB61104ABB690C
:100B3400D360FB690133FB61FB690F2B7FF696AE33
:100B440000BF2437BD465DF8047B7047003802407F
:100B54000038014000000240000402400008024046
:100B6400000C024000100240001402400018024031
:100B7400003C014080B483B000AF78600B467B80BA
:100B840013467B707B78002B03D07A887B689A614C
:100B940003E07B881A047B689A6100BF0C37BD466A
:100BA4005DF8047B7047000080B584B000AF7860C6
:100BB4000023FB600023BB607B68002B01D1012371
:100BC400C8E07B6893F83D30DBB2002B06D17B682C
:100BD400002283F83C20786803F022F97B68242201
:100BE40083F83D207B681B687A681268126822F0DB
:100BF40001021A6000F0A6F9B860BB68574AA2FB6C
:100C040003239B0CFB607B681B68FA685A607B6853
:100C14001A687B685B6852498B4202D8FB680133CF
:100C240009E0FB684FF4967101FB03F34D49A1FB06
:100C340003139B09013313627B6819687B685B6843
:100C4400474A934212D87B685B685B00BA68B2FB80
:100C5400F3F3C3F30B03032B06D97B685B685B00D8
:100C6400BA68B2FBF3F345E0042343E07B689B6876
:100C7400002B0FD17B685A6813465B001344BA6893
:100C8400B2FBF3F3C3F30B03002B0CBF01230023CC
:100C9400DBB210E07B685A6813469B0013449A0049
:100CA4001344BA68B2FBF3F3C3F30B03002B0CBF7A
:100CB40001230023DBB2002B01D001231AE07B685F
:100CC4009B68002B0AD17B685A6813465B00134467
:100CD400BA68B2FBF3F343F400430BE07B685A6851
:100CE40013469B0013449A001344BA68B2FBF3F30F
:100CF40043F44043CB617B681B687A68D1697A68A6
:100D0400126A0A431A607B681B687A6811697A68F8
:100D1400D2680A439A607B681B687A6851697A686A
:100D240092690A43DA607B681B687A681268126801
:100D340042F001021A607B6800221A647B68202258
:100D440083F83D207B6800221A637B68002283F8C5
:100D54003E20002318461037BD4680BD83DE1B436A
:100D6400A0860100D34D621080B584B000AF7860D6
:100D740039607B68002B01D10123CAE0674B1B68F3
:100D840003F00F023B689A420CD2644B3A68D2B229
:100D94001A70624B1B6803F00F023B689A4201D041
:100DA4000123B6E07B681B6803F00203002B20D00C
:100DB4007B681B6803F00403002B05D0584A584B8A
:100DC4009B6843F4E05393607B681B6803F008035B
:100DD400002B05D0524A524B9B6843F46043936006
:100DE4004F494F4B9B6823F0F0027B689B68134389
:100DF4008B607B681B6803F00103002B44D07B6885
:100E04005B68012B07D1464B1B6803F40033002BAE
:100E140019D101237DE07B685B68022B03D07B68DA
:100E24005B68032B07D13E4B1B6803F00073002B58
:100E340009D101236DE03A4B1B6803F00203002B38
:100E440001D1012365E03649354B9B6823F0030249
:100E54007B685B6813438B60FFF7C0FBF8600AE0B4
:100E6400FFF7BCFB0246FB68D31A41F28832934277
:100E740001D903234DE02A4B9B6803F00C027B68E5
:100E84005B689B009A42EBD1244B1B6803F00F0272
:100E94003B689A420CD9214B3A68D2B21A701F4B64
:100EA4001B6803F00F023B689A4201D0012330E033
:100EB4007B681B6803F00403002B08D01849184B07
:100EC4009B6823F4E0527B68DB6813438B607B6888
:100ED4001B6803F00803002B09D01149104B9B68D1
:100EE40023F460427B681B69DB0013438B6000F0D2
:100EF4007BFB01460A4B9B681B0903F00F03094A5D
:100F0400D35C21FA03F3084A13600020FFF722FBA5
:100F1400002318461037BD4680BD00BF003C024088
:100F2400003802403C4300080800002080B400AFB1
:100F3400034B1B681846BD465DF8047B704700BF31
:100F44000800002080B500AFFFF7F0FF0146054B15
:100F54009B689B0A03F00703034AD35C21FA03F35B
:100F6400184680BD003802404C43000880B500AFED
:100F7400FFF7DCFF0146054B9B685B0B03F007039F
:100F8400034AD35C21FA03F3184680BD00380240BB
:100F94004C43000880B58CB000AF786000237B62BE
:100FA40000233B620023FB610023BB6100237B61C0
:100FB40000233B610023FB600023FB620023BB6230
:100FC4007B681B6803F00103002B10D06F496F4B43
:100FD400D3F88C3023F0C0627B689B6B1343C1F859
:100FE4008C307B689B6B002B01D10123FB627B68F7
:100FF4001B6803F00203002B10D06449634BD3F841
:101004008C3023F0C0527B68DB6B1343C1F88C3007
:101014007B68DB6B002B01D10123FB627B681B68BF
:1010240003F00403002B17D05849584BD3F88C30E5
:1010340023F440127B681B6B1343C1F88C307B682C
:101044001B6BB3F5801F01D10123FB627B681B6B13
:10105400002B01D10123BB627B681B6803F00803EA
:10106400002B17D04949494BD3F88C3023F4400264
:101074007B685B6B1343C1F88C307B685B6BB3F5A7
:10108400800F01D10123FB627B685B6B002B01D1D4
:101094000123BB627B681B6803F02003002B00F074
:1010A4008A800023BB60394A384B1B6C43F0805361
:1010B4001364364B1B6C03F08053BB60BB68344A2B
:1010C400334B1B6843F480731360FFF787FA78622D
:1010D40008E0FFF783FA02467B6AD31A022B01D990
:1010E400032378E22A4B1B6803F48073002BF0D0AF
:1010F400264B1B6F03F440733B623B6A002B2FD0DB
:101104007B681B6C03F440723B6A9A4228D01F4BE5
:101114001B6F23F440733B621E4B01221A601D4B6C
:1011240000221A60194A3B6A1367184B1B6F03F0BD
:101134000103002B14D0FFF751FA78620AE0FFF79D
:101144004DFA02467B6AD31A41F28832934201D99E
:10115400032340E20D4B1B6F03F00203002BEED080
:101164007B681B6C03F44073B3F5407F14D10749CB
:10117400064B9B6823F4F8127B681B6C23F07043C6
:1011840023F4407313438B600CE000BF003802402B
:1011940000700040400E47424A4A4A4B9B6823F481
:1011A400F81393604749474B1A6F7B681B6CC3F372
:1011B4000B0313430B677B681B6803F01003002BBE
:1011C40004D0414A7B6893F8583013607B681B68ED
:1011D40003F08003002B0AD03A493A4BD3F89430F9
:1011E40023F440027B68DB6C1343C1F894307B68C2
:1011F4001B6803F04003002B0AD03249314BD3F86B
:10120400943023F080627B689B6C1343C1F8943064
:101214007B681B6803F48073002B11D02949294B88
:10122400D3F8943023F000627B685B6D1343C1F8FC
:1012340094307B685B6DB3F1006F01D10123BB6215
:101244007B681B6803F40073002B0AD01D491D4BF7
:10125400D3F8943023F080527B685B6C1343C1F85D
:1012640094307B681B6803F48063002B11D015490C
:10127400144BD3F8943023F000527B681B6D134356
:10128400C1F894307B681B6DB3F1005F01D1012379
:10129400FB62FB6A012B05D07B681B68B3F5006F0A
:1012A40040F0FF80094B00221A60FFF797F978623B
:1012B4000EE0FFF793F902467B6AD31A022B07D993
:1012C400032388E100380240E011474268004742A6
:1012D4007E4B1B6803F00063002BEAD17B681B681C
:1012E40003F00103002B03D07B689B6B002B09D018
:1012F4007B681B6803F00203002B28D07B68DB6B40
:10130400002B24D1714BD3F884301B0C03F003035E
:1013140001335B00FB616D4BD3F884301B0E03F08B
:101324000F03BB6169497B685A687B689B689B01B2
:101334001A43FB695B08013B1B041A43BB691B0688
:101344001A437B685B691B071343C1F884307B68CD
:101354001B6803F00403002B04D07B681B6BB3F5FC
:10136400801F0AD07B681B6803F00803002B35D06C
:101374007B685B6BB3F5800F30D1544BD3F884306A
:101384001B0C03F0030301335B00FB614F4BD3F8E9
:1013940084301B0F03F007037B614C497B685A6858
:1013A4007B689B689B011A43FB695B08013B1B0438
:1013B4001A437B681B691B061A437B691B0713438B
:1013C400C1F884304149414BD3F88C3023F01F02DB
:1013D4007B689B6A013B1343C1F88C307B681B68B4
:1013E40003F48063002B29D07B681B6DB3F1005F8D
:1013F40024D1364BD3F884301B0C03F003030133A0
:101404005B00BB61314BD3F884301B0F03F007033F
:101414007B612E497B685A687B689B689B011A43F1
:101424007B68DB685B08013B1B041A43BB691B0632
:101434001A437B691B071343C1F884307B681B681C
:1014440003F40063002B16D020497B685A687B683C
:101454009B689B011A437B68DB685B08013B1B04A8
:101464001A437B681B691B061A437B685B691B076D
:101474001343C1F88430164B01221A60FFF7AEF80B
:10148400786208E0FFF7AAF802467B6AD31A022BB7
:1014940001D903239FE00D4B1B6803F00063002B6D
:1014A400F0D0BB6A012B40F095800A4B00221A60F1
:1014B400FFF794F878620FE0FFF790F802467B6A32
:1014C400D31A022B08D9032385E000BF0038024059
:1014D4006800474270004742414B1B6803F00053C9
:1014E400B3F1005FE8D07B681B6803F00403002BB2
:1014F40003D07B681B6B002B09D07B681B6803F04F
:101504000803002B2BD07B685B6B002B27D1344B5B
:10151400D3F888301B0C03F0030301335B003B61F9
:101524002F497B689A697B68DB699B011A433B6995
:101534005B08013B1B041A437B685B6A1B0613436D
:10154400C1F888302649264BD3F88C3023F4F8525E
:101554007B68DB6A013B1B021343C1F88C307B6858
:101564001B6803F48073002B1DD07B685B6DB3F1A3
:10157400006F18D11A4BD3F888301B0E03F00F03F9
:10158400FB6017497B689A697B68DB699B011A4396
:101594007B681B6A5B08013B1B041A43FB681B0640
:1015A4001343C1F888300F4B01221A60FFF716F875
:1015B400786208E0FFF712F802467B6AD31A022B1E
:1015C40001D9032307E0064B1B6803F00053B3F172
:1015D400005FEFD1002318463037BD4680BD00BF01
:1015E40000380240700047422DE9F04FA1B000AF2F
:1015F40000237B670023FB6700233B670023FB6614
:101604000023BB67A04B9B6803F00C030C2B00F278
:10161400938101A252F823F0511600083D190008E5
:101624003D1900083D190008571600083D19000827
:101634003D1900083D1900085D1600083D19000811
:101644003D1900083D190008D91700088F4BBB67E6
:1016540075E18F4BBB6772E18B4B5B6803F03F0313
:101664007B67894B5B6803F48003002B56D0864B61
:101674005B689B094FF0000440F2FF114FF0000239
:1016840001EA030102EA04020B461446600178668B
:10169400786E40EAD36078665B013B66D7E918341C
:1016A4005B1A64EB0204A001F865F86D40EA9360EC
:1016B400F8659801B865D7E91656ED1A66EB040685
:1016C4003346DB007B657B6D284643EA50737B65BC
:1016D4002B46DB003B65D7E914341D4626466B18C0
:1016E40046EB0204184621460B465B02FB64FB6C86
:1016F400024643EAD253FB6403465B02BB64D7E968
:101704001234184621467B6F4FF000041A462346D4
:10171400FEF776FD03460C46FB674DE05A4B5B68CB
:101724009B094FF0000440F2FF114FF0000201EA60
:10173400030102EA04020B46144660017864786CE3
:1017440040EAD36078645B013B64D7E910345B1AE8
:1017540064EB02044FEA841B4BEA936B4FEA831A4F
:10176400BAEB030A6BEB040B4FEACB03FB63FB6B93
:1017740043EA5A73FB634FEACA03BB63D7E90EAB70
:101784001AEB010A4BEB020B4FEA8B237B637B6B57
:1017940043EA9A537B634FEA8A233B63D7E90CAB52
:1017A400504659467B6F4FF000041A462346FEF715
:1017B40027FD03460C46FB67334B5B681B0C03F0A9
:1017C400030301335B003B67FA6F3B6FB2FBF3F338
:1017D400BB67B4E02C4B5B6803F03F037B672A4B89
:1017E4005B6803F48003002B54D0274B5B689B0990
:1017F4004FF0000440F2FF114FF0000201EA030130
:1018040002EA04020B4614466001F862F86A40EAF0
:10181400D360F8625B01BB62D7E90A345B1A64EBFC
:1018240002044FEA841949EA93694FEA8318B8EB32
:10183400030869EB04094FEAC9037B627B6A43EA44
:1018440058737B624FEAC8033B62D7E9088918EBF7
:10185400010849EB02094FEA4923FB61FB6943EAAA
:10186400D853FB614FEA4823BB61D7E90689404658
:1018740049467B6F4FF000041A462346FEF7C0FC2E
:1018840003460C46FB674BE0003802400024F4009A
:1018940000127A002D4B5B689B094FF0000440F264
:1018A400FF114FF0000201EA030102EA04020B46B1
:1018B400144660017861786940EAD36078615B011D
:1018C4003B61D7E904345B1A64EB0204A60146EADF
:1018D40093669D01ED1A66EB0406F300FB60FB685A
:1018E40043EA5573FB60EB00BB60D7E902566D1801
:1018F40046EB0206B3027B607B6843EA95537B6048
:10190400AB023B6097E86000284631467B6F4FF09E
:1019140000041A462346FEF773FC03460C46FB6795
:101924000A4B5B681B0F03F00703FB66FA6FFB6E41
:10193400B2FBF3F3BB6702E0054BBB6700BFBB6FB1
:1019440018468437BD46BDE8F08F00BF003802401A
:101954000024F40080B586B000AF786000233B61BA
:101964007B681B6803F00103002B00F08380954B18
:101974009B6803F00C03042B19D0924B9B6803F073
:101984000C03082B06D18F4B5B6803F48003B3F57B
:10199400800F0CD08B4B9B6803F00C030C2B12D1E3
:1019A400884B5B6803F48003B3F5800F0BD1854B40
:1019B4001B6803F40033002B5BD07B685B68002B4F
:1019C40057D1012316E27B685B68B3F5803F06D1EB
:1019D4007C4A7C4B1B6843F4803313601DE07B68B6
:1019E4005B68B3F5A02F0CD1764A764B1B6843F4A1
:1019F40080231360734A734B1B6843F48033136072
:101A04000BE0704A6F4B1B6823F4803313606D4AFC
:101A14006C4B1B6823F4802313607B685B68002B8A
:101A240013D0FEF7DBFD386108E0FEF7D7FD024670
:101A34003B69D31A642B01D90323DBE1614B1B6897
:101A440003F40033002BF0D014E0FEF7C7FD386137
:101A540008E0FEF7C3FD02463B69D31A642B01D9A3
:101A64000323C7E1574B1B6803F40033002BF0D169
:101A740000E000BF7B681B6803F00203002B6FD0FB
:101A8400504B9B6803F00C03002B17D04D4B9B6805
:101A940003F00C03082B05D14A4B5B6803F4800365
:101AA400002B0BD0474B9B6803F00C030C2B1CD171
:101AB400444B5B6803F48003002B16D1414B1B6835
:101AC40003F00203002B05D07B68DB68012B01D0F7
:101AD40001238FE13B493B4B1B6823F0F8027B68F1
:101AE4001B69DB0013430B603AE07B68DB68002B67
:101AF40020D0354B01221A60FEF770FD386108E0F2
:101B0400FEF76CFD02463B69D31A022B01D903236D
:101B140070E12C4B1B6803F00203002BF0D0294921
:101B2400284B1B6823F0F8027B681B69DB00134316
:101B34000B6015E0244B00221A60FEF74FFD38615C
:101B440008E0FEF74BFD02463B69D31A022B01D98C
:101B540003234FE11B4B1B6803F00203002BF0D15E
:101B64007B681B6803F00803002B37D07B685B6934
:101B7400002B16D0154B01221A60FEF72FFD386199
:101B840008E0FEF72BFD02463B69D31A022B01D96C
:101B940003232FE10B4B5B6F03F00203002BF0D008
:101BA4001CE00A4B00221A60FEF718FD38610FE0B2
:101BB400FEF714FD02463B69D31A022B08D903230E
:101BC40018E100BF0038024000004742800E47423F
:101BD4008A4B5B6F03F00203002BE9D17B681B681F
:101BE40003F00403002B00F097800023FB75834B64
:101BF4001B6C03F08053002B0FD10023FB607F4A42
:101C04007E4B1B6C43F0805313647C4B1B6C03F0C2
:101C14008053FB60FB680123FB75794B1B6803F45D
:101C24008073002B18D1764A754B1B6843F480737C
:101C34001360FEF7D3FC386108E0FEF7CFFC0246E0
:101C44003B69D31A022B01D90323D3E06C4B1B68E5
:101C540003F48073002BF0D07B689B68012B06D1C2
:101C6400664A664B1B6F43F0010313671CE07B68F5
:101C74009B68052B0CD1614A604B1B6F43F0040336
:101C840013675E4A5D4B1B6F43F0010313670BE060
:101C94005A4A5A4B1B6F23F001031367574A574B99
:101CA4001B6F23F0040313677B689B68002B15D01C
:101CB400FEF794FC38610AE0FEF790FC02463B69AB
:101CC400D31A41F28832934201D9032392E04B4B59
:101CD4001B6F03F00203002BEED014E0FEF77EFC32
:101CE40038610AE0FEF77AFC02463B69D31A41F2F6
:101CF4008832934201D903237CE0404B1B6F03F0ED
:101D04000203002BEED1FB7D012B05D13B4A3B4B5B
:101D14001B6C23F0805313647B689B69002B68D091
:101D2400364B9B6803F00C03082B60D07B689B69DF
:101D3400022B45D1334B00221A60FEF74FFC386169
:101D440008E0FEF74BFC02463B69D31A022B01D98B
:101D540003234FE0294B1B6803F00073002BF0D1E1
:101D640026497B68DA697B681B6A1A437B685B6A6D
:101D74009B011A437B689B6A5B08013B1B041A4363
:101D84007B68DB6A1B061A437B681B6B1B071343C8
:101D94004B601C4B01221A60FEF720FC386108E0FE
:101DA400FEF71CFC02463B69D31A022B01D903231C
:101DB40020E0124B1B6803F00073002BF0D018E0F6
:101DC400104B00221A60FEF709FC386108E0FEF7A8
:101DD40005FC02463B69D31A022B01D9032309E00F
:101DE400064B1B6803F00073002BF0D101E00123C4
:101DF40000E0002318461837BD4680BD0038024075
:101E0400007000406000474280B582B000AF786047
:101E14007B68002B01D1012383E07B685B7FDBB20D
:101E2400002B05D17B6800221A77786802F040F80D
:101E34007B6802225A777B681B68CA225A627B68D5
:101E44001B6853225A62786800F054FC0346002B46
:101E540008D07B681B68FF225A627B6804225A7789
:101E640001235EE07B681A687B681B689B6823F427
:101E7400E00323F0400393607B681B687A68126870
:101E840091687A6850687A68126910437A6852696E
:101E940002430A439A607B681B687A68D2681A61B5
:101EA4007B681B687A68126811697A689268120400
:101EB4000A431A617B681B687A681268D26822F048
:101EC4008002DA607B681B689B6803F02003002BA8
:101ED4000ED1786800F0E6FB0346002B08D07B683F
:101EE4001B68FF225A627B6804225A77012318E098
:101EF4007B681B687A681268126C22F480221A6468
:101F04007B681B687A681268116C7A6892690A4364
:101F14001A647B681B68FF225A627B6801225A7725
:101F2400002318460837BD4680BD90B587B000AF82
:101F3400F860B9607A6000237B61FB681B7F012B2A
:101F440001D10223B2E0FB6801221A77FB68022266
:101F54005A777B68002B26D1FB681B689B6803F0CB
:101F64004003002B02D1BB680022DA70BB681B78E7
:101F7400184600F0EBFB03461C04BB685B7818466C
:101F840000F0E4FB03461B021C43BB689B78184625
:101F940000F0DCFB034644EA0302BB68DB781B0465
:101FA40013437B6120E0FB681B689B6803F04003DC
:101FB400002B07D0BB681B78184600F0E5FB0346EE
:101FC4007B6102E0BB680022DA70BB681B781A04EC
:101FD400BB685B781B021343BA6892781A43BB68E8
:101FE400DB781B0413437B61FB681B68CA225A62BB
:101FF400FB681B6853225A62F86800F07BFB0346B7
:10200400002B0BD0FB681B68FF225A62FB6804227A
:102014005A77FB6800221A77012347E0FB681A68A5
:102024007B6903F07F3323F0FE431360FB681B6876
:10203400FA681268926822F480229A60FB681B682E
:10204400FA6812689168BA68D068BA68126902437B
:102054000A439A60FB681B68FA681268D26822F027
:102064008002DA60FB681B689B6803F02003002B86
:1020740011D1F86800F016FB0346002B0BD0FB6867
:102084001B68FF225A62FB6804225A77FB6800220D
:102094001A7701230AE0FB681B68FF225A62FB6877
:1020A40001225A77FB6800221A77002318461C374E
:1020B400BD4690BD80B586B000AFF860B9607A6067
:1020C40000237B61FB681B689A6ABB685A60FB68E3
:1020D4001B681B69C3F30E02BB689A60FB681B682C
:1020E4001B6803F07F3323F0FE437B617B691B0C89
:1020F400DBB203F03F03DAB2BB681A707B691B0AD8
:10210400DBB203F07F03DAB2BB685A707B69DBB2DF
:1021140003F07F03DAB2BB689A707B691B0CDBB2F5
:1021240003F04003DAB2BB68DA707B68002B1AD183
:10213400BB681B78184600F027FB03461A46BB68A9
:102144001A70BB685B78184600F01EFB03461A46FB
:10215400BB685A70BB689B78184600F015FB0346B1
:102164001A46BB689A70002318461837BD4680BDCE
:1021740090B587B000AFF860B9607A6000237B61E6
:10218400FB681B7F012B01D1022394E0FB68012231
:102194001A77FB6802225A777B68002B0ED1BB6842
:1021A4005B7803F01003002B08D0BB685B7823F046
:1021B4001003DBB20A33DAB2BB685A707B68002BB7
:1021C4001CD1BB68DB78184600F0C0FA03461C0437
:1021D400BB685B78184600F0B9FA03461B021C433F
:1021E400BB689B78184600F0B1FA034644EA030240
:1021F400BB681B785B0313437B610EE0BB68DB7831
:102204001A04BB685B781B021343BA6892781A43BA
:10221400BB681B785B0313437B61FB681B68CA22A2
:102224005A62FB681B6853225A62F86800F062FA2B
:102234000346002B0BD0FB681B68FF225A62FB6825
:1022440004225A77FB6800221A77012333E0FB68E3
:102254001A687B6923F07F4323F0C0035360FB6853
:102264001B68FA681268D26822F08002DA60FB68A0
:102274001B689B6803F02003002B11D1F86800F061
:1022840011FA0346002B0BD0FB681B68FF225A622D
:10229400FB6804225A77FB6800221A7701230AE0BC
:1022A400FB681B68FF225A62FB6801225A77FB68AD
:1022B40000221A77002318461C37BD4690BD80B50E
:1022C40086B000AFF860B9607A6000237B61FB6878
:1022D4001B685B6823F07F4323F0C0037B617B6949
:1022E4001B0CDAB2BB68DA707B691B0ADBB203F041
:1022F4001F03DAB2BB685A707B69DBB203F03F0399
:10230400DAB2BB689A707B695B0BDBB203F007033C
:10231400DAB2BB681A707B68002B1AD1BB68DB7811
:10232400184600F031FA03461A46BB68DA70BB68F7
:102334005B78184600F028FA03461A46BB685A70C0
:10234400BB689B78184600F01FFA03461A46BB6820
:102354009A70002318461837BD4680BD90B589B0E1
:1023640000AFF860B9607A600023FB610023BB61B1
:10237400A14B1B68A14AA2FB0323DB0A4FF47A7228
:1023840002FB03F37B61FB681B7F012B01D102235A
:102394002EE1FB6801221A77FB6802225A777B68D8
:1023A400002B37D1FB681B689B6803F04003002BAC
:1023B40002D1BB680022DA70BB681B78184600F0B3
:1023C400C5F903461C04BB685B78184600F0BEF9E7
:1023D40003461B021C43BB689B78184600F0B6F901
:1023E400034644EA0302BB68DB781B0442EA0304A5
:1023F400BB6893F82030184600F0A8F903461B0682
:1024040044EA0302BB68DB691A43BB685B69134394
:10241400FB6140E0FB681B689B6803F04003002BF2
:1024240007D0BB681B78184600F0AEF90346FB6181
:1024340002E0BB680022DA70BB68DB69002B08D1BC
:10244400BB6893F82030184600F09EF90346FB6100
:1024540007E0BB6893F82030184600F095F903466E
:10246400FB61BB681B781A04BB685B781B021343CF
:10247400BA6892781A43BB68DB781B041A43BB68BA
:1024840093F820301B061A43BB68DB691A43BB6808
:102494005B691343FB61BB685A68BB689B69134360
:1024A400BB61FB681B68CA225A62FB681B68532223
:1024B4005A62BB685B6AB3F5807F41D1FB681B68D5
:1024C400FA681268926822F480729A60FB681B684A
:1024D400FA681268D268D2B262F4C072DA607B69B8
:1024E4005A1E7A61002B0BD1FB681B68FF225A62CB
:1024F400FB6803225A77FB6800221A77032377E0EC
:10250400FB681B68DB6803F00103002BE7D0FB6862
:102514001B68FA69DA61FB681B68BA695A64FB686C
:102524001B68FA681268926842F480729A60FB68C9
:102534001B68FA681268926842F480529A6040E01C
:10254400FB681B68FA681268926822F400729A6049
:10255400FB681B68FA681268D268D2B262F420720F
:10256400DA607B695A1E7A61002B0BD1FB681B6809
:10257400FF225A62FB6803225A77FB6800221A770B
:10258400032335E0FB681B68DB6803F00203002BC0
:10259400E7D0FB681B68FA691A62FB681B68BA69B2
:1025A4009A64FB681B68FA681268926842F40072C5
:1025B4009A60FB681B68FA681268926842F40052D9
:1025C4009A600F4A0E4B1B6843F4003313600C4AA5
:1025D4000B4B9B6843F400339360FB681B68FF223A
:1025E4005A62FB6801225A77FB6800221A7700239B
:1025F40018462437BD4690BD08000020D34D621014
:10260400003C014080B582B000AF78607B681B68F5
:10261400DB6803F48073002B12D07B681B689B6813
:1026240003F48053002B0BD0786800F031F87B68FA
:102634001B687A681268D268D2B262F4C072DA6037
:102644007B681B68DB6803F40073002B12D07B6883
:102654001B689B6803F40053002B0BD0786800F0D0
:10266400B1F87B681B687A681268D268D2B262F4E7
:102674002072DA60054B4FF400325A617B68012204
:102684005A7700BF0837BD4680BD00BF003C0140FB
:1026940080B483B000AF786000BF0C37BD465DF8EE
:1026A400047B704780B584B000AF78600023FB6082
:1026B4007B681B687A681268D26822F0A002DA602C
:1026C400FDF78CFFF86009E0FDF788FF0246FB6820
:1026D400D31AB3F57A7F01D9032307E07B681B681B
:1026E400DB6803F02003002BEED0002318461037DC
:1026F400BD4680BD80B584B000AF78600023FB6028
:102704007B681B68DB6803F04003002B19D17B68EE
:102714001B684FF0FF32DA60FDF760FFF86009E0F4
:10272400FDF75CFF0246FB68D31AB3F57A7F01D943
:10273400032307E07B681B68DB6803F04003002B7E
:10274400EED0002318461037BD4680BD80B485B056
:1027540000AF0346FB710023FB6005E0FB68013317
:10276400FB60FB790A3BFB71FB79092BF6D8FB680C
:10277400DBB21B01DAB2FB791343DBB21846143720
:10278400BD465DF8047B704780B485B000AF034656
:10279400FB710023FB60FB791B09DBB21A4613466D
:1027A4009B0013445B00FB60FB7903F00F03DAB278
:1027B400FB68DBB21344DBB218461437BD465DF840
:1027C400047B704780B483B000AF786000BF0C37DF
:1027D400BD465DF8047B704780B582B000AF786079
:1027E4007B68002B01D101231DE07B6893F839300D
:1027F400DBB2002B06D17B68002283F8382078688E
:1028040001F072FB7B68022283F839207B681A6826
:102814007B6804331946104600F004F97B680122F2
:1028240083F83920002318460837BD4680BD0000D0
:1028340080B582B000AF786039607B681B68012284
:102844003968184600F010FA7B681B68104A9342F6
:1028540004D07B681B680F4A934201D1012300E036
:102864000023002B07D07B681B687A681268526CBF
:1028740042F400425A647B681B687A6812681268E2
:1028840042F001021A60002318460837BD4680BD95
:10289400000001400004014080B584B000AFF8603E
:1028A400B9607A60FB6893F83830012B01D10223B8
:1028B400B4E0FB68012283F83820FB68022283F825
:1028C40039207B680C2B00F29F8001A252F823F080
:1028D400092900080D2A00080D2A00080D2A0008FD
:1028E400492900080D2A00080D2A00080D2A0008AD
:1028F4008B2900080D2A00080D2A00080D2A00085B
:10290400CB290008FB681B68B968184600F0D0F9A9
:10291400FB681B68FA681268926942F008029A61BF
:10292400FB681B68FA681268926922F004029A61D3
:10293400FB681B68FA6812689169BA6812690A43ED
:102944009A6162E0FB681B68B968184600F014F9E4
:10295400FB681B68FA681268926942F400629A6123
:10296400FB681B68FA681268926922F480629A61B3
:10297400FB681B68FA6812689169BA6812691202E6
:102984000A439A6141E0FB681B68B968184600F085
:1029940003FAFB681B68FA681268D26942F00802FD
:1029A400DA61FB681B68FA681268D26922F00402D3
:1029B400DA61FB681B68FA681268D169BA6812693F
:1029C4000A43DA6121E0FB681B68B968184600F025
:1029D4005BFAFB681B68FA681268D26942F4006209
:1029E400DA61FB681B68FA681268D26922F48062B3
:1029F400DA61FB681B68FA681268D169BA681269FF
:102A040012020A43DA6100E000BFFB68012283F886
:102A14003920FB68002283F8382000231846103739
:102A2400BD4680BD80B485B000AF786039600023B6
:102A3400FB607B681B68FB607B68444A934213D04D
:102A44007B68B3F1804F0FD07B68414A93420BD02F
:102A54007B68404A934207D07B683F4A934203D045
:102A64007B683E4A934201D1012300E00023002BFE
:102A740008D0FB6823F07003FB603B685B68FA686E
:102A84001343FB607B68314A93422BD07B68B3F1DC
:102A9400804F27D07B682E4A934223D07B682D4AEF
:102AA40093421FD07B682C4A93421BD07B682B4AED
:102AB400934217D07B682A4A934213D07B68294AF1
:102AC40093420FD07B68284A93420BD07B68274AF5
:102AD400934207D07B68264A934203D07B68254AF9
:102AE400934201D1012300E00023002B08D0FB68AE
:102AF40023F44073FB603B68DB68FA681343FB60B4
:102B04007B68FA681A603B689A687B68DA623B689B
:102B14001A687B689A627B680C4A934203D07B688C
:102B24000E4A934201D1012300E00023002B03D07D
:102B34003B681A697B681A637B6801225A6100BF8B
:102B44001437BD465DF8047B704700BF00000140A8
:102B54000004004000080040000C00400004014054
:102B6400004001400044014000480140001800407A
:102B7400001C00400020004080B487B000AF7860A3
:102B840039600023FB6000237B6100233B617B6889
:102B94001B6A23F010027B681A627B681B6A7B61E4
:102BA4007B685B683B617B689B69FB60FB6823F423
:102BB400E043FB60FB6823F44073FB603B681B68E5
:102BC4001B02FA681343FB607B6923F020037B61DB
:102BD4003B689B681B017A6913437B617B68204ACD
:102BE400934203D07B681F4A934201D1012300E042
:102BF4000023002B21D07B6923F080037B613B6899
:102C0400DB681B017A6913437B617B6923F0400312
:102C14007B613B6923F480633B613B6923F400637C
:102C24003B613B685B699B003A6913433B613B68CA
:102C34009B699B003A6913433B617B683A695A601C
:102C44007B68FA689A613B685A687B689A637B6818
:102C54007A691A6200BF1C37BD465DF8047B704771
:102C6400000001400004014080B487B000AFF86068
:102C7400B9607A6000237B610122BB6802FA03F326
:102C84007B61FB681A6A7B69DB431A40FB681A6242
:102C9400FB681A6A7968BB6801FA03F31A43FB6894
:102CA4001A6200BF1C37BD465DF8047B7047000004
:102CB40080B487B000AF786039600023FB600023E4
:102CC4007B6100233B617B681B6A23F001027B6804
:102CD4001A627B681B6A7B617B685B683B617B680B
:102CE4009B69FB60FB6823F07003FB60FB6823F0C7
:102CF4000303FB603B681B68FA681343FB607B6952
:102D040023F002037B613B689B687A6913437B6110
:102D14007B681F4A934203D07B681E4A934201D1C9
:102D2400012300E00023002B1ED07B6923F008035D
:102D34007B613B68DB687A6913437B617B6923F0C1
:102D440004037B613B6923F480733B613B6923F497
:102D540000733B613B685B693A6913433B613B68C1
:102D64009B693A6913433B617B683A695A607B68A3
:102D7400FA689A613B685A687B685A637B687A6927
:102D84001A6200BF1C37BD465DF8047B704700BF64
:102D9400000001400004014080B487B000AF7860B7
:102DA40039600023FB6000237B6100233B617B6867
:102DB4001B6A23F480727B681A627B681B6A7B61DE
:102DC4007B685B683B617B68DB69FB60FB6823F0C5
:102DD4007003FB60FB6823F00303FB603B681B6824
:102DE400FA681343FB607B6923F400737B613B68DF
:102DF4009B681B027A6913437B617B68204A934278
:102E040003D07B681F4A934201D1012300E00023D1
:102E1400002B21D07B6923F400637B613B68DB6872
:102E24001B027A6913437B617B6923F480637B61B2
:102E34003B6923F480533B613B6923F400533B61BA
:102E44003B685B691B013A6913433B613B689B69BF
:102E54001B013A6913433B617B683A695A607B689A
:102E6400FA68DA613B685A687B68DA637B687A6976
:102E74001A6200BF1C37BD465DF8047B704700BF73
:102E8400000001400004014080B487B000AF7860C6
:102E9400396000233B610023FB6000237B617B6876
:102EA4001B6A23F480527B681A627B681B6AFB608E
:102EB4007B685B687B617B68DB693B613B6923F40E
:102EC400E0433B613B6923F440733B613B681B680F
:102ED4001B023A6913433B61FB6823F40053FB6014
:102EE4003B689B681B03FA681343FB607B68144AC6
:102EF400934203D07B68134A934201D1012300E03B
:102F04000023002B09D07B6923F480437B613B6859
:102F14005B699B017A6913437B617B687A695A60B8
:102F24007B683A69DA613B685A687B681A647B6833
:102F3400FA681A6200BF1C37BD465DF8047B70470F
:102F4400000001400004014080B483B000AF786009
:102F540039607B6893F83830012B01D1022332E0C9
:102F64007B68012283F838207B68022283F83920A9
:102F74007B681B687A681268526822F070025A6093
:102F84007B681B687A68126851683A6812680A4359
:102F94005A607B681B687A681268926822F0800223
:102FA4009A607B681B687A68126891683A6852680C
:102FB4000A439A607B68012283F839207B680022E7
:102FC40083F83820002318460C37BD465DF8047B8F
:102FD400704780B485B000AF786039600023FB602F
:102FE4007B6893F83830012B01D1022344E07B68DD
:102FF400012283F83820FB6823F0FF023B68DB687A
:103004001343FB60FB6823F440723B689B681343E3
:10301400FB60FB6823F480623B685B681343FB60DE
:10302400FB6823F400623B681B681343FB60FB6886
:1030340023F480523B681B691343FB60FB6823F451
:1030440000523B685B691343FB60FB6823F48042D6
:103054003B689B691343FB60FB6823F400423B68B5
:103064009B691343FB607B681B68FA685A647B683E
:10307400002283F83820002318461437BD465DF833
:10308400047B704780B582B000AF78607B68002B0A
:1030940001D101233FE07B6893F83930DBB2002B88
:1030A40006D17B68002283F83820786801F02CF878
:1030B4007B68242283F839207B681B687A6812684D
:1030C400D26822F40052DA60786800F029F87B684C
:1030D4001B687A681268126922F490421A617B684C
:1030E4001B687A681268526922F02A025A617B6866
:1030F4001B687A681268D26842F40052DA607B680E
:103104000022DA637B68202283F839207B6820223E
:1031140083F83A20002318460837BD4680BD0000D6
:10312400F0B585B000AF78600023FB607B681B6856
:103134001B69FB60FB6823F44053FB607B68DB681E
:10314400FA681343FB607B681B68FA681A617B6842
:103154001B68DB68FB60FB6823F4164323F00C0355
:10316400FB607B689A687B681B691A437B685B69B0
:103174001A437B68DB691343FA681343FB607B687B
:103184001B68FA68DA607B681B685B69FB60FB6834
:1031940023F44073FB607B689B69FA681343FB600C
:1031A4007B681B68FA685A617B68DB69B3F5004F7A
:1031B40040F0E4807B681B68AB4A934204D07B6890
:1031C4001B68AA4A93426CD17B681C68FDF7CEFE4B
:1031D400024613469B0013449A001A447B685B68BA
:1031E4005B00B2FBF3F3A24AA2FB03235B091D01BC
:1031F400FDF7BCFE024613469B0013449A001A4492
:103204007B685B685B00B2FBF3F6FDF7AFFE02463A
:1032140013469B0013449A001A447B685B685B0066
:10322400B2FBF3F3924AA2FB03235B09642202FB81
:1032340003F3F31ADB0032338D4AA2FB03235B0949
:103244005B0003F4F8731D44FDF790FE0246134639
:103254009B0013449A001A447B685B685B00B2FBD2
:10326400F3F6FDF783FE024613469B0013449A00CF
:103274001A447B685B685B00B2FBF3F37C4AA2FBF5
:1032840003235B09642202FB03F3F31ADB003233EA
:10329400774AA2FB03235B0903F007032B44A360D3
:1032A40054E17B681C68FDF74DFE024613469B0003
:1032B40013449A001A447B685B685B00B2FBF3F327
:1032C4006B4AA2FB03235B091D01FDF73BFE02468B
:1032D40013469B0013449A001A447B685B685B00A6
:1032E400B2FBF3F6FDF72EFE024613469B00134491
:1032F4009A001A447B685B685B00B2FBF3F35C4A98
:10330400A2FB03235B09642202FB03F3F31ADB0031
:103314003233574AA2FB03235B095B0003F4F873BF
:103324001D44FDF70FFE024613469B0013449A000A
:103334001A447B685B685B00B2FBF3F6FDF702FEA0
:10334400024613469B0013449A001A447B685B6848
:103354005B00B2FBF3F3464AA2FB03235B0964223E
:1033640002FB03F3F31ADB003233414AA2FB0323CB
:103374005B0903F007032B44A360E7E07B681B6849
:10338400394A934204D07B681B68384A934271D10E
:103394007B681C68FDF7EAFD024613469B00134454
:1033A4009A001A447B685B689B00B2FBF3F3304AD3
:1033B400A2FB03235B091D01FDF7D8FD024613465A
:1033C4009B0013449A001A447B685B689B00B2FB21
:1033D400F3F6FDF7CBFD024613469B0013449A0017
:1033E4001A447B685B689B00B2FBF3F3204AA2FBA0
:1033F40003235B09642202FB03F3F31A1B01323338
:103404001B4AA2FB03235B0903F0F0031D44FDF7F1
:10341400ADFD024613469B0013449A001A447B6890
:103424005B689B00B2FBF3F6FDF7A0FD0246134672
:103434009B0013449A001A447B685B689B00B2FBB0
:10344400F3F30B4AA2FB03235B09642202FB03F39D
:10345400F31A1B013233064AA2FB03235B0903F070
:103464000F032B44A36071E00010014000140140DD
:103474001F85EB517B681C68FDF764FD024613460B
:103484009B0013449A001A447B685B689B00B2FB60
:10349400F3F3304AA2FB03235B091D01FDF752FD40
:1034A400024613469B0013449A001A447B685B68E7
:1034B4009B00B2FBF3F6FDF745FD024613469B0065
:1034C40013449A001A447B685B689B00B2FBF3F3D5
:1034D400204AA2FB03235B09642202FB03F3F31AD1
:1034E4001B0132331B4AA2FB03235B0903F0F003E5
:1034F4001D44FDF727FD024613469B0013449A0022
:103504001A447B685B689B00B2FBF3F6FDF71AFD77
:10351400024613469B0013449A001A447B685B6876
:103524009B00B2FBF3F30B4AA2FB03235B09642267
:1035340002FB03F3F31A1B013233064AA2FB0323F3
:103544005B0903F00F032B44A360FFE700BF1437AC
:10355400BD46F0BD1F85EB5180B500AFFCF7D8FF29
:1035640000F07AF800F08CFB00F060FB00F004F946
:10357400002000F073FA002000F012FA002000F09E
:10358400CBFA00F0B9F900F025F9012220212448F2
:10359400FDF7F0FA234B0C221A70224B3B225A708F
:1035A400204B2D229A7000221E491F48FEF7BDFCB5
:1035B4001E4B06229A701D4B12225A701B4B04227A
:1035C4001A701A4B1222DA70002218491648FEF7B4
:1035D400CFFD002213491448FEF76CFD0022134965
:1035E4001148FEF76CFE00220021192000F020F89B
:1035F4004FF47A70FCF7FEFF002200214B2000F00C
:1036040017F84FF47A70FCF7F5FF002200216420CC
:1036140000F00EF84FF47A70FCF7ECFFE3E700BF1C
:1036240000000240F8000020740100207001002016
:1036340080B584B000AFF860B9607A60F86800F0D3
:103644000DFAB86800F0ACF9786800F065FA00BFCC
:103654001037BD4680BD000080B5ACB000AF07F1A7
:103664007C0334220021184600F052FE07F168035F
:1036740000221A605A609A60DA601A6107F10C033A
:103684005C220021184600F043FE0023BB60384A48
:10369400374B1B6C43F080531364354B1B6C03F0A6
:1036A4008053BB60BB6800237B60324A314B1B688C
:1036B40023F4404343F4804313602E4B1B6803F40C
:1036C40040437B607B680623FB670123C7F8843093
:1036D4000123C7F888301023C7F88C300223C7F8B9
:1036E40094300023C7F898301023C7F89C304FF467
:1036F400A873C7F8A0300423C7F8A4300223C7F87E
:10370400A8300223C7F8AC3007F17C031846FEF753
:1037140021F90346002B01D000F052FB0F23BB66B6
:103724000223FB6600233B674FF480537B6700232F
:10373400BB6707F1680302211846FDF715FB034632
:10374400002B01D000F03CFB2023FB604FF480737E
:10375400FB6407F10C031846FDF71CFC0346002B21
:1037640001D000F02DFB00BFB037BD4680BD00BFC7
:10377400003802400070004080B500AF124B134A7D
:103784001A60114B124A5A600F4B00229A600E4B7A
:103794000022DA600C4B4FF480421A610A4B00227B
:1037A4005A61094B00229A61074B0022DA61064BE9
:1037B40000221A620448FDF7F7F90346002B01D0F2
:1037C40000F0FEFA00BF80BDA400002000540040B9
:1037D400A086010080B592B000AF07F150037B6072
:1037E40007F1340300221A605A609A60DA601A61A1
:1037F40000233B6307F1080328220021184600F048
:1038040087FD3B4B3B4A1A60394B00225A60384BC8
:103814007F229A60364BFF22DA60354B00221A6110
:10382400334B00225A61324B00229A613048FEF732
:10383400EBFA0346002B01D000F0C2FA002387F80C
:103844003430002387F83530002387F836300023DE
:103854003B6400237B6407F13403012219462448A6
:10386400FEF763FB0346002B01D000F0A9FA012305
:1038740087F83030012387F83130012387F832305C
:10388400182387F8333007F130030122194618480A
:10389400FEF76EFC0346002B01D000F091FA0023E2
:1038A4003B7200237B720023BB720023FB60002366
:1038B4007B610023BB610023FB6100233B62002387
:1038C4007B62012387F828304FF48073FB6207F191
:1038D4000803012219460648FEF740FD0346002B63
:1038E40001D000F06DFA00BF4837BD4680BD00BF6F
:1038F400740100200028004080B58AB000AF07F1B1
:10390400200300221A605A603B1D00221A605A608C
:103914009A60DA601A615A619A61204B4FF08042D2
:103924001A601E4B00225A601C4B00229A601B4BEB
:103934000022DA60194B00221A611848FEF74CFF86
:103944000346002B01D000F03BFA00233B62002326
:103954007B6207F1200319461048FFF7F5FA034686
:10396400002B01D000F02CFA60237B600023BB60A5
:103974000023FB6000237B613B1D08221946074896
:10398400FEF78AFF0346002B01D000F019FA034822
:1039940000F00CFB00BF2837BD4680BD9401002019
:1039A40080B58CB000AF786007F1280300221A605C
:1039B4005A6007F10C0300221A605A609A60DA60B8
:1039C4001A615A619A61234B234A1A60214B4FF4BE
:1039D40052725A601F4B00229A601E4B6422DA60B6
:1039E4001C4B00221A611B48FEF7F6FE0346002B0F
:1039F40001D000F0E5F90023BB620023FB6207F16C
:103A0400280319461348FFF79FFA0346002B01D0F9
:103A140000F0D6F96023FB607B683B6100237B6187
:103A24000023FB6107F10C03042219460948FEF741
:103A340033FF0346002B01D000F0C2F904210548EE
:103A4400FEF7F6FE034800F0B1FA00BF3037BD467A
:103A540080BD00BF340100200004004080B58CB05C
:103A640000AF786007F1280300221A605A6007F15A
:103A74000C0300221A605A609A60DA601A615A6173
:103A84009A61234B234A1A60214B4FF452725A60B5
:103A94001F4B00229A601E4B6422DA601C4B0022EA
:103AA4001A611B48FEF798FE0346002B01D000F074
:103AB40087F90023BB620023FB6207F12803194640
:103AC4001348FFF741FA0346002B01D000F078F9C0
:103AD4006023FB607B683B6100237B610023FB6107
:103AE40007F10C03002219460948FEF7D5FE0346E8
:103AF400002B01D000F064F900210548FEF798FE80
:103B0400034800F053FA00BF3037BD4680BD00BF04
:103B1400680000200008004080B592B000AF7860D3
:103B240007F1400300221A605A6007F124030022BF
:103B34001A605A609A60DA601A615A619A6107F1F0
:103B4400080300221A605A609A60DA601A615A61A6
:103B54009A61344B344A1A60324B4FF452725A60B1
:103B6400304B00229A602F4B6422DA602D4B0022E6
:103B74001A612C4B00225A612A48FEF72DFE034697
:103B8400002B01D000F01CF900233B6400237B646C
:103B940007F1400319462348FFF7D6F90346002BE3
:103BA40001D000F00DF960237B627B68BB620023C7
:103BB400FB6200233B6300237B630023BB6300237E
:103BC400FB6307F12403042219461648FEF764FE3A
:103BD4000346002B01D000F0F3F80023BB60002360
:103BE400FB6000233B6100237B610023BB614FF436
:103BF4000053FB6100233B6207F10803194609489F
:103C0400FFF7E7F90346002B01D000F0D9F80421AF
:103C14000448FEF70DFE034800F0C8F900BF48371A
:103C2400BD4680BD2C0000200004014080B500AFDB
:103C3400114B124A1A60104B4FF4E1325A600E4B8A
:103C440000229A600C4B0022DA600B4B00221A61AE
:103C5400094B0C225A61084B00229A61064B002240
:103C6400DA610548FFF70EFA0346002B01D000F095
:103C7400A7F800BF80BD00BFD00100200044004071
:103C840080B58AB000AF07F1140300221A605A60AD
:103C94009A60DA601A6100233B61434A424B1B6B12
:103CA40043F004031363404B1B6B03F004033B61B9
:103CB4003B690023FB603C4A3B4B1B6B43F0800396
:103CC4001363394B1B6B03F08003FB60FB68002319
:103CD400BB60354A344B1B6B43F001031363324B17
:103CE4001B6B03F00103BB60BB6800237B602E4A9F
:103CF4002D4B1B6B43F0020313632B4B1B6B03F025
:103D040002037B607B68002260212848FCF732FFB5
:103D1400002220212648FCF72DFF4FF400537B613D
:103D2400244BBB610023FB6107F1140319462248AD
:103D3400FCF78EFD02237B61204BBB610023FB61FA
:103D440007F1140319461C48FCF782FD60237B61CC
:103D54000123BB610023FB6100233B6207F11403D1
:103D640019461248FCF774FD4FF440737B61134B02
:103D7400BB610023FB6107F1140319460B48FCF7F0
:103D840067FD20237B610123BB610023FB610023CA
:103D94003B6207F1140319460548FCF759FD00BFBF
:103DA4002837BD4680BD00BF0038024000000240F5
:103DB400000402400000211000080240000011101D
:103DC40080B400AF00BFBD465DF8047B70470000BF
:103DD40080B582B000AF00237B60104A0F4B5B6C50
:103DE40043F4804353640D4B5B6C03F480437B606A
:103DF4007B6800233B60094A084B1B6C43F08053EB
:103E04001364064B1B6C03F080533B603B68072034
:103E1400FCF7DCFC00BF0837BD4680BD003802401B
:103E240080B58AB000AF786007F1140300221A60ED
:103E34005A609A60DA601A617B681B68194A934277
:103E44002CD100233B61184A174B1B6B43F0020330
:103E54001363154B1B6B03F002033B613B694FF487
:103E640040737B611223BB610123FB6103233B622B
:103E740004237B6207F1140319460C48FCF7E8FCA1
:103E84000023FB60084A084B1B6C43F400131364C3
:103E9400054B1B6C03F40013FB60FB6800BF283761
:103EA400BD4680BD0054004000380240000402407A
:103EB40080B582B000AF78607B681B68084A934283
:103EC4000AD1084B01221A60002200212920FCF7A4
:103ED40088FC2920FCF7A1FC00BF0837BD4680BD43
:103EE400002800403C0E474280B487B000AF7860A1
:103EF4007B681B68B3F1804F0ED100237B61274A96
:103F0400264B1B6C43F001031364244B1B6C03F01E
:103F140001037B617B693AE07B681B68204A93421A
:103F24000ED100233B611D4A1C4B1B6C43F0020362
:103F340013641A4B1B6C03F002033B613B6926E0DC
:103F44007B681B68174A93420ED10023FB60134A17
:103F5400124B1B6C43F004031364104B1B6C03F0F3
:103F64000403FB60FB6812E07B681B680E4A934203
:103F74000DD10023BB60094A084B5B6C43F002037C
:103F84005364064B5B6C03F00203BB60BB6800BF69
:103F94001C37BD465DF8047B704700BF0038024003
:103FA40000040040000800400004014080B58CB0CB
:103FB40000AF786007F11C0300221A605A609A600F
:103FC400DA601A617B681B68B3F1804F1FD100234C
:103FD400BB61464A454B1B6B43F002031363434BDF
:103FE4001B6B03F00203BB61BB694FF48063FB618D
:103FF40002233B6200237B620023BB620123FB623A
:1040040007F11C0319463A48FCF722FC6AE07B6876
:104014001B68384A93421ED100237B61334A334BD9
:104024001B6B43F001031363304B1B6B03F0010361
:104034007B617B698023FB6102233B6200237B62FB
:104044000023BB620223FB6207F11C0319462A48C2
:10405400FCF7FEFB46E07B681B68284A93421ED1AE
:1040640000233B61214A214B1B6B43F00203136382
:104074001E4B1B6B03F002033B613B694023FB6156
:1040840002233B6200237B620023BB620223FB62A8
:1040940007F11C0319461648FCF7DAFB22E07B689B
:1040A4001B68174A93421DD10023FB600F4A0F4B34
:1040B4001B6B43F0040313630C4B1B6B03F00403EF
:1040C400FB60FB688023FB6102233B6200237B626D
:1040D4000023BB620323FB6207F11C031946094852
:1040E400FCF7B6FB00BF3037BD4680BD0038024048
:1040F40000040240000400400000024000080040A8
:10410400000401400008024080B58AB000AF786026
:1041140007F1140300221A605A609A60DA601A6187
:104124007B681B68194A93422BD100233B61184AD0
:10413400174B1B6C43F400331364154B1B6C03F4D3
:1041440000333B613B690023FB60114A104B1B6B3E
:1041540043F0010313630E4B1B6B03F00103FB607D
:10416400FB680C237B610223BB610123FB610323F6
:104174003B6207237B6207F1140319460548FCF7E9
:1041840067FB00BF2837BD4680BD00BF0044004028
:10419400003802400000024080B400AF00BFBD46BA
:1041A4005DF8047B704780B400AFFEE780B400AFD5
:1041B400FEE780B400AFFEE780B400AFFEE780B452
:1041C40000AF00BFBD465DF8047B704780B400AF0C
:1041D40000BFBD465DF8047B704780B400AF00BFEC
:1041E400BD465DF8047B704780B500AFFCF7E2F98B
:1041F40000BF80BD80B500AF0248FEF703FA00BFE0
:1042040080BD00BF7401002080B400AF164A164B75
:10421400D3F8883043F47003C2F88830134A134B40
:104224001B6843F001031360104B00229A600F4A8D
:104234000E4B1B6823F0847323F4803313600B4B01
:104244000B4A5A60094A094B1B6823F48023136004
:10425400064B0022DA60044B4FF000629A6000BF04
:10426400BD465DF8047B704700ED00E00038024075
:1042740010300024DFF834D0002103E00C4B5B58ED
:10428400435004310B480C4B42189A42F6D30B4A64
:1042940002E0002342F8043B094B9A42F9D3FFF7AA
:1042A400B3FF00F011F8FFF757F970470000022040
:1042B40064430008000000200C0000200C000020D3
:1042C40010020020FEE7000070B50D4E0D4CA41B3B
:1042D400A4100025A54209D10B4E0C4C00F020F887
:1042E400A41BA4100025A54205D170BD56F82530A5
:1042F40098470135EEE756F8253098470135F2E73F
:104304005C4300085C4300085C4300086043000809
:1043140002440346934200D1704703F8011BF9E7B6
:10432400F8B500BFF8BC08BC9E467047F8B500BF9E
:08433400F8BC08BC9E4670476E
:10433C000000000000000000010203040607080949
:08434C0000000000010203045F
:08435400E0BEFF7F0100000044
:04435C00E90100086B
:04436000C50100088B
:0C43640010000000010000000024F40024
:040000050800427934
:00000001FF
