:020000040800F2
:1000000000000220DD540008C9530008D75300083F
:10001000DD530008E3530008E95300080000000026
:10002000000000000000000000000000EF53000886
:10003000FD530008000000000B540008195400088C
:100040002D5500082D5500082D5500082D55000888
:100050002D5500082D5500082D5500082554000881
:100060002D5500082D5500082D5500082D55000868
:100070002D5500082D5500082D5500082D55000858
:100080002D5500082D5500082D5500082D55000848
:100090002D5500082D5500082D5500083354000833
:1000A0002D5500082D5500082D5500082D55000828
:1000B0002D5500082D5500082D5500082D55000818
:1000C0002D5500082D5500082D5500082D55000808
:1000D0002D5500082D5500082D5500082D550008F8
:1000E0004B5400085D5400082D5500082D5500089C
:1000F0002D5500082D5500082D5500082D550008D8
:100100002D5500082D5500082D5500082D550008C7
:100110002D5500082D5500082D5500082D550008B7
:100120002D5500082D5500082D5500082D550008A7
:100130002D55000800000000000000002D550008AB
:100140002D5500082D5500082D5500082D55000887
:100150002D5500082D5500082D5500082D55000877
:100160002D5500082D5500082D5500082D55000867
:100170002D5500082D5500082D55000800000000E1
:10018000000000002D5500080000000000000000E5
:100190002D55000800000000000000002D5500084B
:1001A0000000000000000000000000002D550008C5
:1001B0002D5500082D5500082D5500082D55000817
:0401C0002D550008B1
:1001D00010B5054C237833B9044B13B10448AFF381
:1001E00000800123237010BD840000200000000067
:1001F000B05D000808B5034B1BB103490348AFF3DA
:10020000008008BD0000000088000020B05D0008EC
:1002100001F0FF01102A2BDB10F0070F08D010F8B7
:10022000013B013A8B422DD010F0070F42B3F6D1BB
:10023000F0B441EA012141EA014122F007047FF0D4
:1002400000070023F0E80256083C85EA010586EA2B
:10025000010685FA47F5A3FA87F586FA47F6A5FA67
:1002600087F68EB9EED1F0BC01F0FF0102F0070273
:1002700032B110F8013B013A83EA010313B1F8D11E
:100280000020704701387047002D06BF35460338FF
:10029000073815F0010F07D1013015F4807F02BF38
:1002A000013015F4C03F0130F0BC0138704700BF89
:1002B00053B94AB9002908BF00281CBF4FF0FF31CD
:1002C0004FF0FF3000F072B9ADF1080C6DE904CECB
:1002D00000F006F8DDF804E0DDE9022304B0704721
:1002E0002DE9F047089E04468846002B4BD18A42F0
:1002F000154667D9B2FA82F24AB1C2F1200701FA73
:1003000002F320FA07F7954047EA030894404FEAC2
:10031000154E230CB8FBFEF71FFA85FC0EFB178861
:1003200043EA084307FB0CF1994209D9EB1807F19E
:10033000FF3080F01B81994240F21881023F2B442C
:100340005B1AA4B2B3FBFEF00EFB103344EA034485
:1003500000FB0CFCA44509D92C1900F1FF3380F0F7
:100360000781A44540F2048102382C4440EA07404A
:10037000A4EB0C0400271EB1D4400023C6E90043BF
:100380003946BDE8F0878B4209D9002E00F0EB809A
:100390000027C6E9000138463946BDE8F087B3FAC0
:1003A00083F7002F47D18B4202D3824200F2FA80BA
:1003B000841A61EB030301209846002EE0D0C6E9C1
:1003C0000048DDE702B9FFDEB2FA82F2002A40F00F
:1003D0008F80491B4FEA154E1FFA85F80127B1FBA4
:1003E000FEFC230C0EFB1C1143EA014308FB0CF13D
:1003F000994207D9EB180CF1FF3002D2994200F272
:10040000CD808446591AA3B2B1FBFEF00EFB101446
:1004100043EA044408FB00F8A04507D92C1900F171
:10042000FF3302D2A04500F2B6801846A4EB0804C0
:1004300040EA0C409FE7C7F1200CBB4022FA0CFEBB
:100440004EEA030E01FA07F420FA0CF521FA0CF338
:100450004FEA1E482543B3FBF8F92C0C08FB19336F
:100460001FFA8EFA44EA034309FB0AF49C4202FA9B
:1004700007F200FA07F10BD91EEB030309F1FF3075
:1004800080F087809C4240F28480A9F10209734485
:100490001B1BADB2B3FBF8F008FB103345EA034475
:1004A00000FB0AFAA24508D91EEB040400F1FF3351
:1004B0006BD2A24569D90238744440EA0940A0FBD6
:1004C0000289A4EB0A044C45C2464B4654D351D092
:1004D000002E69D0B1EB0A0564EB030404FA0CFCAE
:1004E000FD40FC404CEA0505C6E90054002747E7FB
:1004F000C2F1200320FA03F7954001FA02F021FA35
:1005000003F34FEA154E3843010CB3FBFEF71FFA15
:1005100085F80EFB173341EA034107FB08F38B42D2
:1005200004FA02F407D9691807F1FF3C2FD28B4275
:100530002DD9023F2944CB1A81B2B3FBFEF00EFB4A
:10054000103341EA034100FB08F38B4207D96918D5
:1005500000F1FF3C17D28B4215D902382944C91A41
:1005600040EA07473BE73746304609E70746E7E6F4
:100570001846FBE64145ABD2B8EB020A69EB0E0226
:1005800001381346A4E76046E9E7184695E7674651
:10059000D1E781467CE702382C4447E7ACF1020CF6
:1005A0002B442FE7384608E73746E9E6704700BF97
:1005B00080B500AF0E4A0E4B1B6843F40073136006
:1005C0000B4A0B4B1B6843F480631360084A084BCB
:1005D0001B6843F480731360032000F047F9002088
:1005E00000F008F804F00CFD0023184680BD00BFA1
:1005F000003C024080B582B000AF7860124B1A68B0
:10060000124B1B7819464FF47A73B3FBF1F3B2FB2C
:10061000F3F3184600F05FF90346002B01D00123E5
:100620000EE07B680F2B0AD8002279684FF0FF306C
:1006300000F027F9064A7B681360002300E00123DD
:1006400018460837BD4680BD1C000020040000206D
:100650000000002080B400AF064B1B781A46064B02
:100660001B681344044A136000BFBD465DF8047B59
:10067000704700BF04000020D000002080B400AF0D
:10068000034B1B681846BD465DF8047B704700BFEE
:10069000D000002080B584B000AF7860FFF7EEFF97
:1006A000B8607B68FB60FB68B3F1FF3F05D0094B86
:1006B0001B781A46FB681344FB6000BFFFF7DEFFA0
:1006C0000246BB68D21AFB689A42F7D300BF1037C4
:1006D000BD4680BD0400002080B485B000AF7860C6
:1006E0007B6803F00703FB600C4BDB68BB60BA68F8
:1006F0004FF6FF031340BB60FB681A02BB6813434D
:1007000043F0BF6343F40033BB60044ABB68D3606B
:1007100000BF1437BD465DF8047B704700ED00E074
:1007200080B400AF044BDB681B0A03F007031846D4
:10073000BD465DF8047B704700ED00E080B483B0F7
:1007400000AF0346FB71094997F907305B09FA7955
:1007500002F01F02012000FA02F241F8232000BF3C
:100760000C37BD465DF8047B704700BF00E100E038
:1007700080B483B000AF03463960FB7197F907304E
:10078000002B0BDA0D49FB7903F00F03043B3A68A9
:10079000D2B21201D2B20B441A7609E0084997F995
:1007A00007303A68D2B21201D2B20B4483F8002368
:1007B00000BF0C37BD465DF8047B704700ED00E0DC
:1007C00000E100E080B489B000AFF860B9607A6001
:1007D000FB6803F00703FB61FB69C3F10703042B0C
:1007E00028BF0423BB61FB690433062B02D9FB69D4
:1007F000033B00E000237B610122BB6902FA03F3A3
:100800005A1EBB681A407B699A4001217B6901FA34
:1008100003F3591E7B680B40134318462437BD462B
:100820005DF8047B7047000080B582B000AF78604F
:100830007B68013BB3F1807F01D301230FE00A4ABB
:100840007B68013B53600F214FF0FF30FFF790FFB3
:10085000054B00229A60044B07221A6000231846B9
:100860000837BD4680BD00BF10E000E080B582B013
:1008700000AF78607868FFF72FFF00BF0837BD46EC
:1008800080BD80B586B000AF0346B9607A60FB7367
:1008900000237B61FFF744FF78617A68B968786963
:1008A000FFF790FF024697F90F3011461846FFF701
:1008B0005FFF00BF1837BD4680BD80B582B000AF76
:1008C0000346FB7197F907301846FFF737FF00BF63
:1008D0000837BD4680BD80B582B000AF78607868CB
:1008E000FFF7A2FF034618460837BD4680BD00004B
:1008F00080B489B000AF7860396000237B61002349
:100900003B610023BB610023FB6165E10122FB69C0
:1009100002FA03F37B613B681A687B6913403B6111
:100920003A697B699A4240F054813B685B68022BCC
:1009300003D03B685B68122B23D1FB69DA087B6824
:10094000083253F82230BB61FB6903F007039B00B8
:100950000F2202FA03F3DB43BA691340BB613B6821
:100960001A69FB6903F007039B0002FA03F3BA69F3
:100970001343BB61FB69DA087B680832B96943F845
:1009800022107B681B68BB61FB695B00032202FAD3
:1009900003F3DB43BA691340BB613B685B6803F058
:1009A0000302FB695B0002FA03F3BA691343BB61FC
:1009B0007B68BA691A603B685B68012B0BD03B68A7
:1009C0005B68022B07D03B685B68112B03D03B6848
:1009D0005B68122B30D17B689B68BB61FB695B0055
:1009E000032202FA03F3DB43BA691340BB613B689D
:1009F000DA68FB695B0002FA03F3BA691343BB616F
:100A00007B68BA699A607B685B68BB610122FB699D
:100A100002FA03F3DB43BA691340BB613B685B68CE
:100A20001B0903F00102FB6902FA03F3BA691343DD
:100A3000BB617B68BA695A607B68DB68BB61FB6934
:100A40005B00032202FA03F3DB43BA691340BB6184
:100A50003B689A68FB695B0002FA03F3BA691343C7
:100A6000BB617B68BA69DA603B685B6803F08053FE
:100A7000002B00F0AE800023FB605C4A5B4B5B6C9C
:100A800043F480435364594B5B6C03F48043FB6035
:100A9000FB68574AFB699B08023352F82330BB615D
:100AA000FB6903F003039B000F2202FA03F3DB430D
:100AB000BA691340BB617B684E4A934225D07B687C
:100AC0004D4A93421FD07B684C4A934219D07B68B1
:100AD0004B4A934213D07B684A4A93420DD07B68BD
:100AE000494A934207D07B68484A934201D1062382
:100AF0000CE007230AE0052308E0042306E00323B3
:100B000004E0022302E0012300E00023FA6902F07E
:100B1000030292009340BA691343BB613449FB69F5
:100B20009B080233BA6941F82320394B1B68BB612B
:100B30003B69DB43BA691340BB613B685B6803F404
:100B40008033002B03D0BA693B691343BB61304A41
:100B5000BB6913602E4B5B68BB613B69DB43BA69C1
:100B60001340BB613B685B6803F40033002B03D088
:100B7000BA693B691343BB61254ABB695360244B87
:100B80009B68BB613B69DB43BA691340BB613B684F
:100B90005B6803F48013002B03D0BA693B691343ED
:100BA000BB611B4ABB699360194BDB68BB613B6946
:100BB000DB43BA691340BB613B685B6803F4001315
:100BC000002B03D0BA693B691343BB61104ABB6970
:100BD000D360FB690133FB61FB690F2B7FF696AE97
:100BE00000BF2437BD465DF8047B704700380240E3
:100BF00000380140000002400004024000080240AA
:100C0000000C024000100240001402400018024094
:100C1000003C014080B485B000AF78600B467B801B
:100C20007B681A697B881340002B02D00123FB7379
:100C300001E00023FB73FB7B18461437BD465DF8CB
:100C4000047B704780B483B000AF78600B467B8034
:100C500013467B707B78002B03D07A887B689A617F
:100C600003E07B881A047B689A6100BF0C37BD469D
:100C70005DF8047B7047000080B582B000AF03468A
:100C8000FB80084B5A69FB881340002B06D0054AAD
:100C9000FB885361FB88184600F006F800BF083750
:100CA000BD4680BD003C014080B483B000AF034628
:100CB000FB8000BF0C37BD465DF8047B7047000029
:100CC00080B584B000AF78600023FB600023BB6078
:100CD0007B68002B01D10123C8E07B6893F83D308D
:100CE000DBB2002B06D17B68002283F83C207868B9
:100CF00004F0AEF97B68242283F83D207B681B68F2
:100D00007A681268126822F001021A6000F098FCFA
:100D1000B860BB68574AA2FB03239B0CFB607B684F
:100D20001B68FA685A607B681A687B685B6852497E
:100D30008B4202D8FB68013309E0FB684FF49671DF
:100D400001FB03F34D49A1FB03139B09013313621C
:100D50007B6819687B685B68474A934212D87B6856
:100D60005B685B00BA68B2FBF3F3C3F30B03032BBE
:100D700006D97B685B685B00BA68B2FBF3F345E0B9
:100D8000042343E07B689B68002B0FD17B685A6883
:100D900013465B001344BA68B2FBF3F3C3F30B03CF
:100DA000002B0CBF01230023DBB210E07B685A68E4
:100DB00013469B0013449A001344BA68B2FBF3F342
:100DC000C3F30B03002B0CBF01230023DBB2002B6A
:100DD00001D001231AE07B689B68002B0AD17B6855
:100DE0005A6813465B001344BA68B2FBF3F343F44A
:100DF00000430BE07B685A6813469B0013449A003B
:100E00001344BA68B2FBF3F343F44043CB617B680D
:100E10001B687A68D1697A68126A0A431A607B682B
:100E20001B687A6811697A68D2680A439A607B689D
:100E30001B687A6851697A6892690A43DA607B684C
:100E40001B687A681268126842F001021A607B68B7
:100E500000221A647B68202283F83D207B680022F0
:100E60001A637B68002283F83E200023184610375F
:100E7000BD4680BD83DE1B43A0860100D34D6210BA
:100E800080B588B002AFF8607A601A460B467B8165
:100E900013463B8100237B61FFF7F0FB7861FB6821
:100EA00093F83D30DBB2202B40F0EE807B6900935D
:100EB000192301227749F86800F072F90346002BE4
:100EC00001D00223E1E0FB6893F83C30012B01D113
:100ED0000223DAE0FB68012283F83C20FB681B68F0
:100EE0001B6803F00103012B07D0FB681B68FA683D
:100EF0001268126842F001021A60FB681B68FA6807
:100F00001268126822F400621A60FB68212283F8DA
:100F10003D20FB68102283F83E20FB6800221A6403
:100F2000FB687A685A62FB683A895A85FB685A4AB4
:100F3000DA62FB685B8D9AB2FB681A8579897B69F6
:100F40003A6AF86800F0AAF80346002B0FD0FB6855
:100F50001B6C042B05D1FB68002283F83C20012385
:100F600093E0FB68002283F83C2003238DE00023FC
:100F70003B61FB681B685B693B61FB681B689B69A5
:100F80003B613B6966E07A69396AF86800F0C7F945
:100F90000346002B0FD0FB681B6C042B09D1FB68A8
:100FA0001B68FA681268126842F400721A60012322
:100FB0006BE0032369E0FB681A68FB685B6A581CF6
:100FC000F96848621B781361FB685B8D9BB2013B3B
:100FD0009AB2FB685A85FB681B8D013B9AB2FB688D
:100FE0001A85FB681B685B6903F00403042B19D1A5
:100FF000FB681B8D002B15D0FB681A68FB685B6AC9
:10100000581CF96848621B781361FB685B8D9BB2C2
:10101000013B9AB2FB685A85FB681B8D013B9AB273
:10102000FB681A857A69396AF86800F0B5F90346F1
:10103000002B0FD0FB681B6C042B09D1FB681B68CD
:10104000FA681268126842F400721A6001231CE008
:1010500003231AE0FB681B8D002B94D1FB681B68EF
:10106000FA681268126842F400721A60FB68202263
:1010700083F83D20FB68002283F83E20FB680022B5
:1010800083F83C20002300E0022318461837BD46B1
:1010900080BD00BF020010000000FFFF80B588B0D7
:1010A00002AFF8607A603B600B467B81FB68DB6ACD
:1010B0007B617B69042B06D07B69012B03D07B69A4
:1010C00013F5803F08D1FB681B68FA681268126844
:1010D00042F480721A600BE0FB681B6B122B07D185
:1010E000FB681B68FA681268126842F480721A6022
:1010F0003B6800937B6800224FF00111F86800F014
:101100004FF80346002B01D0032340E0FB681B6926
:10111000B3F5804F07D1FB681B687A89D2B202F021
:10112000FE021A6121E0FB681B687A89D211D2B2F3
:1011300002F00602D2B262F00F02D2B21A613B682C
:101140007A681549F86800F07CF80346002B07D050
:10115000FB681B6C042B01D1012318E0032316E06C
:10116000FB681B687A89D2B21A613B687A680B49BE
:10117000F86800F066F80346002B07D0FB681B6C8C
:10118000042B01D1012302E0032300E000231846D1
:101190001837BD4680BD00BF0800010002000100F5
:1011A00080B584B000AFF860B9603B601346FB7156
:1011B0001FE03B68B3F1FF3F1BD03B68002B07D01B
:1011C000FFF75CFA0246BB69D21A3B689A4210D913
:1011D000FB6800221A63FB68202283F83D20FB682D
:1011E000002283F83E20FB68002283F83C20032382
:1011F00023E0BB681B0CDBB2012B0DD1FB681B6825
:101200005B69DA43BB6813409BB2002B0CBF012320
:101210000023DBB21A460CE0FB681B689B69DA43CB
:10122000BB6813409BB2002B0CBF01230023DBB231
:101230001A46FB799A42BCD0002318461037BD46A7
:1012400080BD80B584B000AFF860B9607A603B6063
:1012500040E0FB681B685B6903F48063B3F5806F53
:101260001CD1FB681B68FA681268126842F40072AD
:101270001A60FB681B686FF480625A61FB68042285
:101280001A64FB6800221A63FB68202283F83D2061
:10129000FB68002283F83C2001233CE07B68B3F12B
:1012A000FF3F17D07B68002B07D0FFF7E7F9024616
:1012B0003B68D21A7B689A420CD9FB6800221A63F9
:1012C000FB68202283F83D20FB68002283F83C2045
:1012D000032320E0BB681B0CDBB2012B0CD1FB68A5
:1012E0001B685B69DA43BB6813409BB2002B14BFD9
:1012F00001230023DBB20BE0FB681B689B69DA4328
:10130000BB6813409BB2002B14BF01230023DBB248
:10131000002B9ED1002318461037BD4680BD80B5F6
:1013200084B000AFF860B9607A6029E0F86800F036
:1013300070F80346002B01D0012329E0BB68B3F10C
:10134000FF3F1DD0BB68002B07D0FFF797F902467F
:101350007B68D21ABB689A4212D9FB681B6C43F0B7
:101360002002FB681A64FB6800221A63FB682022D3
:1013700083F83D20FB68002283F83C20032307E02C
:10138000FB681B685B6903F08003802BCED10023D0
:1013900018461037BD4680BD80B584B000AFF860F8
:1013A000B9607A6029E0F86800F033F80346002B52
:1013B00001D0012329E0BB68B3F1FF3F1DD0BB681A
:1013C000002B07D0FFF75AF902467B68D21ABB6898
:1013D0009A4212D9FB681B6C43F02002FB681A6426
:1013E000FB6800221A63FB68202283F83D20FB681B
:1013F000002283F83C20032307E0FB681B685B693D
:1014000003F00403042BCED1002318461037BD4649
:1014100080BD80B483B000AF78607B681B685B6977
:1014200003F48063B3F5806F14D17B681B686FF49D
:1014300080625A617B6804221A647B6800221A6306
:101440007B68202283F83D207B68002283F83C20C3
:10145000012300E0002318460C37BD465DF8047BED
:101460007047000080B584B000AF786039607B6859
:10147000002B01D10123CAE0674B1B6803F00F0268
:101480003B689A420CD2644B3A68D2B21A70624BF3
:101490001B6803F00F023B689A4201D00123B6E0BB
:1014A0007B681B6803F00203002B20D07B681B685D
:1014B00003F00403002B05D0584A584B9B6843F4B3
:1014C000E05393607B681B6803F00803002B05D092
:1014D000524A524B9B6843F4604393604F494F4BD1
:1014E0009B6823F0F0027B689B6813438B607B68EA
:1014F0001B6803F00103002B44D07B685B68012B61
:1015000007D1464B1B6803F40033002B19D101238C
:101510007DE07B685B68022B03D07B685B68032BF4
:1015200007D13E4B1B6803F00073002B09D1012348
:101530006DE03A4B1B6803F00203002B01D101233D
:1015400065E03649354B9B6823F003027B685B6896
:1015500013438B60FFF792F8F8600AE0FFF78EF80C
:101560000246FB68D31A41F28832934201D9032321
:101570004DE02A4B9B6803F00C027B685B689B0084
:101580009A42EBD1244B1B6803F00F023B689A424E
:101590000CD9214B3A68D2B21A701F4B1B6803F06A
:1015A0000F023B689A4201D0012330E07B681B6840
:1015B00003F00403002B08D01849184B9B6823F450
:1015C000E0527B68DB6813438B607B681B6803F029
:1015D0000803002B09D01149104B9B6823F460428B
:1015E0007B681B69DB0013438B6000F07BFB0146CB
:1015F0000A4B9B681B0903F00F03094AD35C21FACD
:1016000003F3084A13600020FEF7F4FF0023184696
:101610001037BD4680BD00BF003C0240003802408C
:10162000FC5D00081C00002080B400AF034B1B6869
:101630001846BD465DF8047B704700BF1C000020C3
:1016400080B500AFFFF7F0FF0146054B9B689B0A92
:1016500003F00703034AD35C21FA03F3184680BD65
:10166000003802400C5E000880B500AFFFF7DCFFD9
:101670000146054B9B685B0B03F00703034AD35CF1
:1016800021FA03F3184680BD003802400C5E0008C2
:1016900080B58CB000AF786000237B6200233B6292
:1016A0000023FB610023BB6100237B6100233B61BE
:1016B0000023FB600023FB620023BB627B681B6886
:1016C00003F00103002B10D06F496F4BD3F88C301F
:1016D00023F0C0627B689B6B1343C1F88C307B683E
:1016E0009B6B002B01D10123FB627B681B6803F01D
:1016F0000203002B10D06449634BD3F88C3023F0E5
:10170000C0527B68DB6B1343C1F88C307B68DB6BAA
:10171000002B01D10123FB627B681B6803F00403EB
:10172000002B17D05849584BD3F88C3023F4401273
:101730007B681B6B1343C1F88C307B681B6BB3F564
:10174000801F01D10123FB627B681B6B002B01D141
:101750000123BB627B681B6803F00803002B17D0D2
:101760004949494BD3F88C3023F440027B685B6BCA
:101770001343C1F88C307B685B6BB3F5800F01D1EC
:101780000123FB627B685B6B002B01D10123BB62F1
:101790007B681B6803F02003002B00F08A80002385
:1017A000BB60394A384B1B6C43F080531364364B93
:1017B0001B6C03F08053BB60BB68344A334B1B681F
:1017C00043F480731360FEF759FF786208E0FEF778
:1017D00055FF02467B6AD31A022B01D9032378E214
:1017E0002A4B1B6803F48073002BF0D0264B1B6F31
:1017F00003F440733B623B6A002B2FD07B681B6C69
:1018000003F440723B6A9A4228D01F4B1B6F23F4AB
:1018100040733B621E4B01221A601D4B00221A606E
:10182000194A3B6A1367184B1B6F03F00103002B27
:1018300014D0FEF723FF78620AE0FEF71FFF02468E
:101840007B6AD31A41F28832934201D9032340E2E2
:101850000D4B1B6F03F00203002BEED07B681B6C5B
:1018600003F44073B3F5407F14D10749064B9B68DE
:1018700023F4F8127B681B6C23F0704323F440734D
:1018800013438B600CE000BF003802400070004042
:10189000400E47424A4A4A4B9B6823F4F813936030
:1018A0004749474B1A6F7B681B6CC3F30B03134309
:1018B0000B677B681B6803F01003002B04D0414AC0
:1018C0007B6893F8583013607B681B6803F08003D3
:1018D000002B0AD03A493A4BD3F8943023F4400213
:1018E0007B68DB6C1343C1F894307B681B6803F0A2
:1018F0004003002B0AD03249314BD3F8943023F007
:1019000080627B689B6C1343C1F894307B681B68D2
:1019100003F48073002B11D02949294BD3F894305C
:1019200023F000627B685B6D1343C1F894307B68E1
:101930005B6DB3F1006F01D10123BB627B681B6853
:1019400003F40073002B0AD01D491D4BD3F89430CB
:1019500023F080527B685B6C1343C1F894307B6842
:101960001B6803F48063002B11D01549144BD3F886
:10197000943023F000527B681B6D1343C1F8943000
:101980007B681B6DB3F1005F01D10123FB62FB6A31
:10199000012B05D07B681B68B3F5006F40F0FF801A
:1019A000094B00221A60FEF769FE78620EE0FEF72E
:1019B00065FE02467B6AD31A022B07D9032388E10E
:1019C00000380240E0114742680047427E4B1B68E6
:1019D00003F00063002BEAD17B681B6803F001036E
:1019E000002B03D07B689B6B002B09D07B681B68A6
:1019F00003F00203002B28D07B68DB6B002B24D183
:101A0000714BD3F884301B0C03F0030301335B00EC
:101A1000FB616D4BD3F884301B0E03F00F03BB61E9
:101A200069497B685A687B689B689B011A43FB691C
:101A30005B08013B1B041A43BB691B061A437B6806
:101A40005B691B071343C1F884307B681B6803F094
:101A50000403002B04D07B681B6BB3F5801F0AD0F6
:101A60007B681B6803F00803002B35D07B685B6B39
:101A7000B3F5800F30D1544BD3F884301B0C03F0F6
:101A8000030301335B00FB614F4BD3F884301B0F22
:101A900003F007037B614C497B685A687B689B684D
:101AA0009B011A43FB695B08013B1B041A437B68DB
:101AB0001B691B061A437B691B071343C1F884305B
:101AC0004149414BD3F88C3023F01F027B689B6A5D
:101AD000013B1343C1F88C307B681B6803F48063BF
:101AE000002B29D07B681B6DB3F1005F24D1364BEE
:101AF000D3F884301B0C03F0030301335B00BB619C
:101B0000314BD3F884301B0F03F007037B612E4960
:101B10007B685A687B689B689B011A437B68DB681B
:101B20005B08013B1B041A43BB691B061A437B6914
:101B30001B071343C1F884307B681B6803F4006300
:101B4000002B16D020497B685A687B689B689B01F4
:101B50001A437B68DB685B08013B1B041A437B6804
:101B60001B691B061A437B685B691B071343C1F89B
:101B70008430164B01221A60FEF780FD786208E07F
:101B8000FEF77CFD02467B6AD31A022B01D90323A0
:101B90009FE00D4B1B6803F00063002BF0D0BB6A85
:101BA000012B40F095800A4B00221A60FEF766FD7B
:101BB00078620FE0FEF762FD02467B6AD31A022BC1
:101BC00008D9032385E000BF00380240680047427F
:101BD00070004742414B1B6803F00053B3F1005FB4
:101BE000E8D07B681B6803F00403002B03D07B68FC
:101BF0001B6B002B09D07B681B6803F00803002BCC
:101C00002BD07B685B6B002B27D1344BD3F888300B
:101C10001B0C03F0030301335B003B612F497B681E
:101C20009A697B68DB699B011A433B695B08013B4E
:101C30001B041A437B685B6A1B061343C1F8883098
:101C40002649264BD3F88C3023F4F8527B68DB6AA4
:101C5000013B1B021343C1F88C307B681B6803F403
:101C60008073002B1DD07B685B6DB3F1006F18D1C2
:101C70001A4BD3F888301B0E03F00F03FB60174993
:101C80007B689A697B68DB699B011A437B681B6AE6
:101C90005B08013B1B041A43FB681B061343C1F896
:101CA00088300F4B01221A60FEF7E8FC786208E0EA
:101CB000FEF7E4FC02467B6AD31A022B01D9032308
:101CC00007E0064B1B6803F00053B3F1005FEFD150
:101CD000002318463037BD4680BD00BF00380240A3
:101CE000700047422DE9F04FA1B000AF00237B67A1
:101CF0000023FB6700233B670023FB660023BB67D1
:101D0000A04B9B6803F00C030C2B00F2938101A203
:101D100052F823F0491D000835200008352000083E
:101D2000352000084F1D0008352000083520000828
:101D300035200008551D0008352000083520000812
:101D400035200008D11E00088F4BBB6775E18F4B13
:101D5000BB6772E18B4B5B6803F03F037B67894B8A
:101D60005B6803F48003002B56D0864B5B689B09AD
:101D70004FF0000440F2FF114FF0000201EA0301AE
:101D800002EA04020B46144660017866786E40EA67
:101D9000D36078665B013B66D7E918345B1A64EB65
:101DA0000204A001F865F86D40EA9360F8659801B7
:101DB000B865D7E91656ED1A66EB04063346DB0024
:101DC0007B657B6D284643EA50737B652B46DB00C1
:101DD0003B65D7E914341D4626466B1846EB0204D2
:101DE000184621460B465B02FB64FB6C024643EA45
:101DF000D253FB6403465B02BB64D7E91234184636
:101E000021467B6F4FF000041A462346FEF750FA36
:101E100003460C46FB674DE05A4B5B689B094FF04D
:101E2000000440F2FF114FF0000201EA030102EA50
:101E300004020B46144660017864786C40EAD36073
:101E400078645B013B64D7E910345B1A64EB0204ED
:101E50004FEA841B4BEA936B4FEA831ABAEB030AEF
:101E60006BEB040B4FEACB03FB63FB6B43EA5A7348
:101E7000FB634FEACA03BB63D7E90EAB1AEB010A57
:101E80004BEB020B4FEA8B237B637B6B43EA9A534A
:101E90007B634FEA8A233B63D7E90CAB5046594634
:101EA0007B6F4FF000041A462346FEF701FA034603
:101EB0000C46FB67334B5B681B0C03F003030133D9
:101EC0005B003B67FA6F3B6FB2FBF3F3BB67B4E0B9
:101ED0002C4B5B6803F03F037B672A4B5B6803F482
:101EE0008003002B54D0274B5B689B094FF0000404
:101EF00040F2FF114FF0000201EA030102EA04027E
:101F00000B4614466001F862F86A40EAD360F86252
:101F10005B01BB62D7E90A345B1A64EB02044FEA47
:101F2000841949EA93694FEA8318B8EB030869EB0F
:101F300004094FEAC9037B627B6A43EA58737B62F8
:101F40004FEAC8033B62D7E9088918EB010849EB5F
:101F500002094FEA4923FB61FB6943EAD853FB615D
:101F60004FEA4823BB61D7E90689404649467B6F63
:101F70004FF000041A462346FEF79AF903460C4632
:101F8000FB674BE0003802400024F40000127A00A6
:101F90002D4B5B689B094FF0000440F2FF114FF09E
:101FA000000201EA030102EA04020B461446600142
:101FB0007861786940EAD36078615B013B61D7E979
:101FC00004345B1A64EB0204A60146EA93669D01A1
:101FD000ED1A66EB0406F300FB60FB6843EA5573F9
:101FE000FB60EB00BB60D7E902566D1846EB0206BA
:101FF000B3027B607B6843EA95537B60AB023B6036
:1020000097E86000284631467B6F4FF000041A467F
:102010002346FEF74DF903460C46FB670A4B5B6807
:102020001B0F03F00703FB66FA6FFB6EB2FBF3F3C3
:10203000BB6702E0054BBB6700BFBB6F1846843728
:10204000BD46BDE8F08F00BF003802400024F40018
:1020500080B586B000AF786000233B617B681B6869
:1020600003F00103002B00F08380954B9B6803F085
:102070000C03042B19D0924B9B6803F00C03082B24
:1020800006D18F4B5B6803F48003B3F5800F0CD04F
:102090008B4B9B6803F00C030C2B12D1884B5B68B5
:1020A00003F48003B3F5800F0BD1854B1B6803F459
:1020B0000033002B5BD07B685B68002B57D101237A
:1020C00016E27B685B68B3F5803F06D17C4A7C4BA7
:1020D0001B6843F4803313601DE07B685B68B3F5D5
:1020E000A02F0CD1764A764B1B6843F480231360F3
:1020F000734A734B1B6843F4803313600BE0704AE0
:102100006F4B1B6823F4803313606D4A6C4B1B6864
:1021100023F4802313607B685B68002B13D0FEF7E9
:10212000ADFA386108E0FEF7A9FA02463B69D31A16
:10213000642B01D90323DBE1614B1B6803F40033FB
:10214000002BF0D014E0FEF799FA386108E0FEF7B2
:1021500095FA02463B69D31A642B01D90323C7E1E0
:10216000574B1B6803F40033002BF0D100E000BF95
:102170007B681B6803F00203002B6FD0504B9B68F9
:1021800003F00C03002B17D04D4B9B6803F00C039E
:10219000082B05D14A4B5B6803F48003002B0BD05E
:1021A000474B9B6803F00C030C2B1CD1444B5B6822
:1021B00003F48003002B16D1414B1B6803F002038C
:1021C000002B05D07B68DB68012B01D001238FE158
:1021D0003B493B4B1B6823F0F8027B681B69DB0023
:1021E00013430B603AE07B68DB68002B20D0354B53
:1021F00001221A60FEF742FA386108E0FEF73EFA63
:1022000002463B69D31A022B01D9032370E12C4B00
:102210001B6803F00203002BF0D02949284B1B68F0
:1022200023F0F8027B681B69DB0013430B6015E0A9
:10223000244B00221A60FEF721FA386108E0FEF70D
:102240001DFA02463B69D31A022B01D903234FE141
:102250001B4B1B6803F00203002BF0D17B681B684B
:1022600003F00803002B37D07B685B69002B16D086
:10227000154B01221A60FEF701FA386108E0FEF7FB
:10228000FDF902463B69D31A022B01D903232FE142
:102290000B4B5B6F03F00203002BF0D01CE00A4BEA
:1022A00000221A60FEF7EAF938610FE0FEF7E6F95E
:1022B00002463B69D31A022B08D9032318E100BF59
:1022C0000038024000004742800E47428A4B5B6F55
:1022D00003F00203002BE9D17B681B6803F00403C1
:1022E000002B00F097800023FB75834B1B6C03F0E1
:1022F0008053002B0FD10023FB607F4A7E4B1B6C69
:1023000043F0805313647C4B1B6C03F08053FB60E1
:10231000FB680123FB75794B1B6803F48073002B6A
:1023200018D1764A754B1B6843F480731360FEF72F
:10233000A5F9386108E0FEF7A1F902463B69D31A16
:10234000022B01D90323D3E06C4B1B6803F4807389
:10235000002BF0D07B689B68012B06D1664A664B48
:102360001B6F43F0010313671CE07B689B68052B20
:102370000CD1614A604B1B6F43F0040313675E4A44
:102380005D4B1B6F43F0010313670BE05A4A5A4B36
:102390001B6F23F001031367574A574B1B6F23F042
:1023A000040313677B689B68002B15D0FEF766F962
:1023B00038610AE0FEF762F902463B69D31A41F23E
:1023C0008832934201D9032392E04B4B1B6F03F0F9
:1023D0000203002BEED014E0FEF750F938610AE05A
:1023E000FEF74CF902463B69D31A41F28832934218
:1023F00001D903237CE0404B1B6F03F00203002B49
:10240000EED1FB7D012B05D13B4A3B4B1B6C23F0EE
:10241000805313647B689B69002B68D0364B9B68A4
:1024200003F00C03082B60D07B689B69022B45D11D
:10243000334B00221A60FEF721F9386108E0FEF7FD
:102440001DF902463B69D31A022B01D903234FE041
:10245000294B1B6803F00073002BF0D126497B68E1
:10246000DA697B681B6A1A437B685B6A9B011A43C3
:102470007B689B6A5B08013B1B041A437B68DB6A31
:102480001B061A437B681B6B1B0713434B601C4BDB
:1024900001221A60FEF7F2F8386108E0FEF7EEF864
:1024A00002463B69D31A022B01D9032320E0124BC9
:1024B0001B6803F00073002BF0D018E0104B0022D3
:1024C0001A60FEF7DBF8386108E0FEF7D7F802463D
:1024D0003B69D31A022B01D9032309E0064B1B6881
:1024E00003F00073002BF0D101E0012300E0002392
:1024F00018461837BD4680BD0038024000700040C5
:102500006000474280B582B000AF78607B68002BE6
:1025100001D1012383E07B685B7FDBB2002B05D117
:102520007B6800221A77786802F0DAFD7B68022265
:102530005A777B681B68CA225A627B681B685322E1
:102540005A62786800F054FC0346002B08D07B6880
:102550001B68FF225A627B6804225A7701235EE0DF
:102560007B681A687B681B689B6823F4E00323F090
:10257000400393607B681B687A68126891687A6888
:1025800050687A68126910437A68526902430A43B4
:102590009A607B681B687A68D2681A617B681B68DE
:1025A0007A68126811697A68926812040A431A619B
:1025B0007B681B687A681268D26822F08002DA6051
:1025C0007B681B689B6803F02003002B0ED17868A2
:1025D00000F0E6FB0346002B08D07B681B68FF2257
:1025E0005A627B6804225A77012318E07B681B68D3
:1025F0007A681268126C22F480221A647B681B6865
:102600007A681268116C7A6892690A431A647B6866
:102610001B68FF225A627B6801225A770023184602
:102620000837BD4680BD90B587B000AFF860B9608F
:102630007A6000237B61FB681B7F012B01D10223A1
:10264000B2E0FB6801221A77FB6802225A777B68A6
:10265000002B26D1FB681B689B6803F04003002B0E
:1026600002D1BB680022DA70BB681B78184600F004
:10267000EBFB03461C04BB685B78184600F0E4FBE8
:1026800003461B021C43BB689B78184600F0DCFB2A
:10269000034644EA0302BB68DB781B0413437B61F7
:1026A00020E0FB681B689B6803F04003002B07D009
:1026B000BB681B78184600F0E5FB03467B6102E02F
:1026C000BB680022DA70BB681B781A04BB685B78B1
:1026D0001B021343BA6892781A43BB68DB781B0469
:1026E00013437B61FB681B68CA225A62FB681B6844
:1026F00053225A62F86800F07BFB0346002B0BD094
:10270000FB681B68FF225A62FB6804225A77FB6849
:1027100000221A77012347E0FB681A687B6903F0FF
:102720007F3323F0FE431360FB681B68FA6812686E
:10273000926822F480229A60FB681B68FA6812682B
:102740009168BA68D068BA68126902430A439A600D
:10275000FB681B68FA681268D26822F08002DA60AF
:10276000FB681B689B6803F02003002B11D1F868FD
:1027700000F016FB0346002B0BD0FB681B68FF2202
:102780005A62FB6804225A77FB6800221A770123F9
:102790000AE0FB681B68FF225A62FB6801225A7735
:1027A000FB6800221A77002318461C37BD4690BDEF
:1027B00080B586B000AFF860B9607A6000237B61B5
:1027C000FB681B689A6ABB685A60FB681B681B69D8
:1027D000C3F30E02BB689A60FB681B681B6803F0BA
:1027E0007F3323F0FE437B617B691B0CDBB203F07C
:1027F0003F03DAB2BB681A707B691B0ADBB203F0D5
:102800007F03DAB2BB685A707B69DBB203F07F03E7
:10281000DAB2BB689A707B691B0CDBB203F0400331
:10282000DAB2BB68DA707B68002B1AD1BB681B7800
:10283000184600F027FB03461A46BB681A70BB68AF
:102840005B78184600F01EFB03461A46BB685A70B8
:10285000BB689B78184600F015FB03461A46BB6818
:102860009A70002318461837BD4680BD90B587B0D2
:1028700000AFF860B9607A6000237B61FB681B7F62
:10288000012B01D1022394E0FB6801221A77FB6837
:1028900002225A777B68002B0ED1BB685B7803F06D
:1028A0001003002B08D0BB685B7823F01003DBB269
:1028B0000A33DAB2BB685A707B68002B1CD1BB6844
:1028C000DB78184600F0C0FA03461C04BB685B784E
:1028D000184600F0B9FA03461B021C43BB689B78FC
:1028E000184600F0B1FA034644EA0302BB681B78BD
:1028F0005B0313437B610EE0BB68DB781A04BB68A3
:102900005B781B021343BA6892781A43BB681B7842
:102910005B0313437B61FB681B68CA225A62FB6836
:102920001B6853225A62F86800F062FA0346002BD3
:102930000BD0FB681B68FF225A62FB6804225A779F
:10294000FB6800221A77012333E0FB681A687B6971
:1029500023F07F4323F0C0035360FB681B68FA68D1
:102960001268D26822F08002DA60FB681B689B68FC
:1029700003F02003002B11D1F86800F011FA034690
:10298000002B0BD0FB681B68FF225A62FB680422F5
:102990005A77FB6800221A7701230AE0FB681B685C
:1029A000FF225A62FB6801225A77FB6800221A77DD
:1029B000002318461C37BD4690BD80B586B000AFD9
:1029C000F860B9607A6000237B61FB681B685B6814
:1029D00023F07F4323F0C0037B617B691B0CDAB2D9
:1029E000BB68DA707B691B0ADBB203F01F03DAB243
:1029F000BB685A707B69DBB203F03F03DAB2BB6895
:102A00009A707B695B0BDBB203F00703DAB2BB6839
:102A10001A707B68002B1AD1BB68DB78184600F06F
:102A200031FA03461A46BB68DA70BB685B78184611
:102A300000F028FA03461A46BB685A70BB689B78B8
:102A4000184600F01FFA03461A46BB689A70002326
:102A500018461837BD4680BD90B589B000AFF86004
:102A6000B9607A600023FB610023BB61A14B1B6846
:102A7000A14AA2FB0323DB0A4FF47A7202FB03F3A1
:102A80007B61FB681B7F012B01D102232EE1FB68D8
:102A900001221A77FB6802225A777B68002B37D114
:102AA000FB681B689B6803F04003002B02D1BB68E6
:102AB0000022DA70BB681B78184600F0C5F903469F
:102AC0001C04BB685B78184600F0BEF903461B0285
:102AD0001C43BB689B78184600F0B6F9034644EAED
:102AE0000302BB68DB781B0442EA0304BB6893F86B
:102AF0002030184600F0A8F903461B0644EA0302FA
:102B0000BB68DB691A43BB685B691343FB6140E048
:102B1000FB681B689B6803F04003002B07D0BB6871
:102B20001B78184600F0AEF90346FB6102E0BB6873
:102B30000022DA70BB68DB69002B08D1BB6893F810
:102B40002030184600F09EF90346FB6107E0BB68A1
:102B500093F82030184600F095F90346FB61BB68F6
:102B60001B781A04BB685B781B021343BA6892781F
:102B70001A43BB68DB781B041A43BB6893F8203008
:102B80001B061A43BB68DB691A43BB685B691343C6
:102B9000FB61BB685A68BB689B691343BB61FB68F8
:102BA0001B68CA225A62FB681B6853225A62BB68C0
:102BB0005B6AB3F5807F41D1FB681B68FA681268D5
:102BC000926822F480729A60FB681B68FA68126847
:102BD000D268D2B262F4C072DA607B695A1E7A613E
:102BE000002B0BD1FB681B68FF225A62FB68032293
:102BF0005A77FB6800221A77032377E0FB681B688B
:102C0000DB6803F00103002BE7D0FB681B68FA695F
:102C1000DA61FB681B68BA695A64FB681B68FA686A
:102C20001268926842F480729A60FB681B68FA68C6
:102C30001268926842F480529A6040E0FB681B6818
:102C4000FA681268926822F400729A60FB681B6846
:102C5000FA681268D268D2B262F42072DA607B69D4
:102C60005A1E7A61002B0BD1FB681B68FF225A6247
:102C7000FB6803225A77FB6800221A77032335E0AA
:102C8000FB681B68DB6803F00203002BE7D0FB68DE
:102C90001B68FA691A62FB681B68BA699A64FB6868
:102CA0001B68FA681268926842F400729A60FB68C6
:102CB0001B68FA681268926842F400529A600F4AE0
:102CC0000E4B1B6843F4003313600C4A0B4B9B689C
:102CD00043F400339360FB681B68FF225A62FB6871
:102CE00001225A77FB6800221A77002318462437FE
:102CF000BD4690BD1C000020D34D6210003C014039
:102D000080B582B000AF78607B681B68DB6803F435
:102D10008073002B12D07B681B689B6803F4805380
:102D2000002B0BD0786800F031F87B681B687A685C
:102D30001268D268D2B262F4C072DA607B681B6833
:102D4000DB6803F40073002B12D07B681B689B6860
:102D500003F40053002B0BD0786800F0B1F87B68C7
:102D60001B687A681268D268D2B262F42072DA60A4
:102D7000054B4FF400325A617B6801225A7700BF3D
:102D80000837BD4680BD00BF003C014080B483B021
:102D900000AF786000BF0C37BD465DF8047B70471C
:102DA00080B584B000AF78600023FB607B681B684F
:102DB0007A681268D26822F0A002DA60FDF75EFC41
:102DC000F86009E0FDF75AFC0246FB68D31AB3F538
:102DD0007A7F01D9032307E07B681B68DB6803F077
:102DE0002003002BEED0002318461037BD4680BDCF
:102DF00080B584B000AF78600023FB607B681B68FF
:102E0000DB6803F04003002B19D17B681B684FF08F
:102E1000FF32DA60FDF732FCF86009E0FDF72EFCC6
:102E20000246FB68D31AB3F57A7F01D9032307E082
:102E30007B681B68DB6803F04003002BEED00023A7
:102E400018461037BD4680BD80B485B000AF03463C
:102E5000FB710023FB6005E0FB680133FB60FB793D
:102E60000A3BFB71FB79092BF6D8FB68DBB21B012F
:102E7000DAB2FB791343DBB218461437BD465DF86E
:102E8000047B704780B485B000AF0346FB7100231C
:102E9000FB60FB791B09DBB21A4613469B00134407
:102EA0005B00FB60FB7903F00F03DAB2FB68DBB277
:102EB0001344DBB218461437BD465DF8047B7047F7
:102EC00080B483B000AF786000BF0C37BD465DF8BA
:102ED000047B704780B582B000AF78607B68002BC0
:102EE00001D101231DE07B6893F83930DBB2002B60
:102EF00006D17B68002283F83820786802F00CF94C
:102F00007B68022283F839207B681A687B68043367
:102F10001946104600F004F97B68012283F8392035
:102F2000002318460837BD4680BD000080B582B03A
:102F300000AF786039607B681B68012239681846E9
:102F400000F010FA7B681B68104A934204D07B683B
:102F50001B680F4A934201D1012300E00023002B9C
:102F600007D07B681B687A681268526C42F4004292
:102F70005A647B681B687A681268126842F0010222
:102F80001A60002318460837BD4680BD0000014086
:102F90000004014080B584B000AFF860B9607A6089
:102FA000FB6893F83830012B01D10223B4E0FB68B1
:102FB000012283F83820FB68022283F839207B68DD
:102FC0000C2B00F29F8001A252F823F00130000880
:102FD00005310008053100080531000841300008BE
:102FE000053100080531000805310008833000086C
:102FF000053100080531000805310008C33000081C
:10300000FB681B68B968184600F0D0F9FB681B68BC
:10301000FA681268926942F008029A61FB681B68BC
:10302000FA681268926922F004029A61FB681B68D0
:10303000FA6812689169BA6812690A439A6162E093
:10304000FB681B68B968184600F014F9FB681B6838
:10305000FA681268926942F400629A61FB681B6820
:10306000FA681268926922F480629A61FB681B68B0
:10307000FA6812689169BA68126912020A439A6181
:1030800041E0FB681B68B968184600F003FAFB686A
:103090001B68FA681268D26942F00802DA61FB68BC
:1030A0001B68FA681268D26922F00402DA61FB68D0
:1030B0001B68FA681268D169BA6812690A43DA6152
:1030C00021E0FB681B68B968184600F05BFAFB68F2
:1030D0001B68FA681268D26942F40062DA61FB6820
:1030E0001B68FA681268D26922F48062DA61FB68B0
:1030F0001B68FA681268D169BA68126912020A4339
:10310000DA6100E000BFFB68012283F83920FB6828
:10311000002283F83820002318461037BD4680BDB2
:1031200080B485B000AF786039600023FB607B68B5
:103130001B68FB607B68444A934213D07B68B3F101
:10314000804F0FD07B68414A93420BD07B68404A46
:10315000934207D07B683F4A934203D07B683E4A44
:10316000934201D1012300E00023002B08D0FB682B
:1031700023F07003FB603B685B68FA681343FB60F5
:103180007B68314A93422BD07B68B3F1804F27D0C4
:103190007B682E4A934223D07B682D4A93421FD0EE
:1031A0007B682C4A93421BD07B682B4A934217D0F2
:1031B0007B682A4A934213D07B68294A93420FD0F6
:1031C0007B68284A93420BD07B68274A934207D0FA
:1031D0007B68264A934203D07B68254A934201D1FB
:1031E000012300E00023002B08D0FB6823F4407388
:1031F000FB603B68DB68FA681343FB607B68FA6836
:103200001A603B689A687B68DA623B681A687B6878
:103210009A627B680C4A934203D07B680E4A9342C1
:1032200001D1012300E00023002B03D03B681A6981
:103230007B681A637B6801225A6100BF1437BD4660
:103240005DF8047B704700BF0000014000040040AF
:1032500000080040000C0040000401400040014014
:10326000004401400048014000180040001C00409C
:103270000020004080B487B000AF78603960002340
:10328000FB6000237B6100233B617B681B6A23F0AA
:1032900010027B681A627B681B6A7B617B685B68D3
:1032A0003B617B689B69FB60FB6823F4E043FB6048
:1032B000FB6823F44073FB603B681B681B02FA68E1
:1032C0001343FB607B6923F020037B613B689B68B1
:1032D0001B017A6913437B617B68204A934203D0C8
:1032E0007B681F4A934201D1012300E00023002B99
:1032F00021D07B6923F080037B613B68DB681B0185
:103300007A6913437B617B6923F040037B613B69EE
:1033100023F480633B613B6923F400633B613B68BA
:103320005B699B003A6913433B613B689B699B0067
:103330003A6913433B617B683A695A607B68FA6873
:103340009A613B685A687B689A637B687A691A62FB
:1033500000BF1C37BD465DF8047B7047000001408C
:103360000004014080B487B000AFF860B9607A60B3
:1033700000237B610122BB6802FA03F37B61FB68D7
:103380001A6A7B69DB431A40FB681A62FB681A6A97
:103390007968BB6801FA03F31A43FB681A6200BF3D
:1033A0001C37BD465DF8047B7047000080B487B0D1
:1033B00000AF786039600023FB6000237B6100234D
:1033C0003B617B681B6A23F001027B681A627B68A1
:1033D0001B6A7B617B685B683B617B689B69FB6008
:1033E000FB6823F07003FB60FB6823F00303FB60C2
:1033F0003B681B68FA681343FB607B6923F0020398
:103400007B613B689B687A6913437B617B681F4AD9
:10341000934203D07B681E4A934201D1012300E00E
:103420000023002B1ED07B6923F008037B613B68DF
:10343000DB687A6913437B617B6923F004037B615A
:103440003B6923F480733B613B6923F400733B6168
:103450003B685B693A6913433B613B689B693A6926
:1034600013433B617B683A695A607B68FA689A61EA
:103470003B685A687B685A637B687A691A6200BF46
:103480001C37BD465DF8047B704700BF000001405B
:103490000004014080B487B000AF78603960002339
:1034A000FB6000237B6100233B617B681B6A23F484
:1034B00080727B681A627B681B6A7B617B685B68D1
:1034C0003B617B68DB69FB60FB6823F07003FB609A
:1034D000FB6823F00303FB603B681B68FA68134337
:1034E000FB607B6923F400737B613B689B681B0274
:1034F0007A6913437B617B68204A934203D07B68DF
:103500001F4A934201D1012300E00023002B21D068
:103510007B6923F400637B613B68DB681B027A698B
:1035200013437B617B6923F480637B613B6923F4F4
:1035300080533B613B6923F400533B613B685B690B
:103540001B013A6913433B613B689B691B013A6964
:1035500013433B617B683A695A607B68FA68DA61B9
:103560003B685A687B68DA637B687A691A6200BFD5
:103570001C37BD465DF8047B704700BF000001406A
:103580000004014080B487B000AF78603960002348
:103590003B610023FB6000237B617B681B6A23F493
:1035A00080527B681A627B681B6AFB607B685B6881
:1035B0007B617B68DB693B613B6923F4E0433B61F2
:1035C0003B6923F440733B613B681B681B023A690B
:1035D00013433B61FB6823F40053FB603B689B682B
:1035E0001B03FA681343FB607B68144A934203D0C1
:1035F0007B68134A934201D1012300E00023002B92
:1036000009D07B6923F480437B613B685B699B0144
:103610007A6913437B617B687A695A607B683A698F
:10362000DA613B685A687B681A647B68FA681A62D8
:1036300000BF1C37BD465DF8047B704700000140A9
:103640000004014080B483B000AF786039607B68CB
:1036500093F83830012B01D1022332E07B6801223C
:1036600083F838207B68022283F839207B681B6846
:103670007A681268526822F070025A607B681B6890
:103680007A68126851683A6812680A435A607B681F
:103690001B687A681268926822F080029A607B68E0
:1036A0001B687A68126891683A6852680A439A609F
:1036B0007B68012283F839207B68002283F8382058
:1036C000002318460C37BD465DF8047B704780B474
:1036D00085B000AF786039600023FB607B6893F8A9
:1036E0003830012B01D1022344E07B68012283F8AA
:1036F0003820FB6823F0FF023B68DB681343FB6064
:10370000FB6823F440723B689B681343FB60FB68D3
:1037100023F480623B685B681343FB60FB6823F41F
:1037200000623B681B681343FB60FB6823F4805214
:103730003B681B691343FB60FB6823F400523B6842
:103740005B691343FB60FB6823F480423B689B6921
:103750001343FB60FB6823F400423B689B691343FF
:10376000FB607B681B68FA685A647B68002283F8F8
:103770003820002318461437BD465DF8047B704797
:1037800080B582B000AF78607B68002B01D1012347
:103790003FE07B6893F83930DBB2002B06D17B68C1
:1037A000002283F83820786801F0C6FD7B68242267
:1037B00083F839207B681B687A681268D26822F423
:1037C0000052DA60786800F029F87B681B687A6834
:1037D0001268126922F490421A617B681B687A6849
:1037E0001268526922F02A025A617B681B687A6863
:1037F0001268D26842F40052DA607B680022DA6311
:103800007B68202283F839207B68202283F83A20C5
:10381000002318460837BD4680BD0000F0B585B0CE
:1038200000AF78600023FB607B681B681B69FB604E
:10383000FB6823F44053FB607B68DB68FA68134342
:10384000FB607B681B68FA681A617B681B68DB6831
:10385000FB60FB6823F4164323F00C03FB607B68DA
:103860009A687B681B691A437B685B691A437B68AB
:10387000DB691343FA681343FB607B681B68FA68D3
:10388000DA607B681B685B69FB60FB6823F440734C
:10389000FB607B689B69FA681343FB607B681B686D
:1038A000FA685A617B68DB69B3F5004F40F0E48049
:1038B0007B681B68AB4A934204D07B681B68AA4AAA
:1038C00093426CD17B681C68FDF7CEFE024613461E
:1038D0009B0013449A001A447B685B685B00B2FB50
:1038E000F3F3A24AA2FB03235B091D01FDF7BCFE13
:1038F000024613469B0013449A001A447B685B6897
:103900005B00B2FBF3F6FDF7AFFE024613469B00E9
:1039100013449A001A447B685B685B00B2FBF3F3C4
:10392000924AA2FB03235B09642202FB03F3F31A0E
:10393000DB0032338D4AA2FB03235B095B0003F4F7
:10394000F8731D44FDF790FE024613469B00134496
:103950009A001A447B685B685B00B2FBF3F6FDF7E4
:1039600083FE024613469B0013449A001A447B6868
:103970005B685B00B2FBF3F37C4AA2FB03235B09A9
:10398000642202FB03F3F31ADB003233774AA2FB13
:1039900003235B0903F007032B44A36054E17B6816
:1039A0001C68FDF74DFE024613469B0013449A0027
:1039B0001A447B685B685B00B2FBF3F36B4AA2FBC3
:1039C00003235B091D01FDF73BFE024613469B00E6
:1039D00013449A001A447B685B685B00B2FBF3F601
:1039E000FDF72EFE024613469B0013449A001A442C
:1039F0007B685B685B00B2FBF3F35C4AA2FB0323CA
:103A00005B09642202FB03F3F31ADB003233574AEB
:103A1000A2FB03235B095B0003F4F8731D44FDF76D
:103A20000FFE024613469B0013449A001A447B681B
:103A30005B685B00B2FBF3F6FDF702FE024613463D
:103A40009B0013449A001A447B685B685B00B2FBDE
:103A5000F3F3464AA2FB03235B09642202FB03F350
:103A6000F31ADB003233414AA2FB03235B0903F064
:103A700007032B44A360E7E07B681B68394A934245
:103A800004D07B681B68384A934271D17B681C68FC
:103A9000FDF7EAFD024613469B0013449A001A44C0
:103AA0007B685B689B00B2FBF3F3304AA2FB032305
:103AB0005B091D01FDF7D8FD024613469B00134428
:103AC0009A001A447B685B689B00B2FBF3F6FDF733
:103AD000CBFD024613469B0013449A001A447B68B0
:103AE0005B689B00B2FBF3F3204AA2FB03235B0954
:103AF000642202FB03F3F31A1B0132331B4AA2FBBD
:103B000003235B0903F0F0031D44FDF7ADFD0246FE
:103B100013469B0013449A001A447B685B689B0021
:103B2000B2FBF3F6FDF7A0FD024613469B001344DB
:103B30009A001A447B685B689B00B2FBF3F30B4A64
:103B4000A2FB03235B09642202FB03F3F31A1B01AC
:103B50003233064AA2FB03235B0903F00F032B4415
:103B6000A36071E000100140001401401F85EB517B
:103B70007B681C68FDF764FD024613469B001344F6
:103B80009A001A447B685B689B00B2FBF3F3304AEF
:103B9000A2FB03235B091D01FDF752FD02461346FC
:103BA0009B0013449A001A447B685B689B00B2FB3D
:103BB000F3F6FDF745FD024613469B0013449A00B9
:103BC0001A447B685B689B00B2FBF3F3204AA2FBBC
:103BD00003235B09642202FB03F3F31A1B01323354
:103BE0001B4AA2FB03235B0903F0F0031D44FDF70E
:103BF00027FD024613469B0013449A001A447B6833
:103C00005B689B00B2FBF3F6FDF71AFD0246134614
:103C10009B0013449A001A447B685B689B00B2FBCC
:103C2000F3F30B4AA2FB03235B09642202FB03F3B9
:103C3000F31A1B013233064AA2FB03235B0903F08C
:103C40000F032B44A360FFE700BF1437BD46F0BD50
:103C50001F85EB5180B586B002AF0346FB71FB793F
:103C600023F00F03FB73FB791B01BB73FB7B43F05A
:103C70000C03DBB23B72FB7B43F00803DBB27B72CD
:103C8000BB7B43F00C03DBB2BB72BB7B43F008038E
:103C9000DBB2FB7207F108026423009304234E2178
:103CA0000348FDF7EDF800BF1037BD4680BD00BFEB
:103CB0006001002080B586B002AF0346FB71FB793E
:103CC00023F00F03FB73FB791B01BB73FB7B43F0FA
:103CD0000D03DBB23B72FB7B43F00903DBB27B726B
:103CE000BB7B43F00D03DBB2BB72BB7B43F009032C
:103CF000DBB2FB7207F108026423009304234E2118
:103D00000348FDF7BDF800BF1037BD4680BD00BFBA
:103D10006001002080B582B000AF0023FB7100235A
:103D2000FB7108E00320FFF795FF2D20FCF7B2FCA4
:103D3000FB790133FB71FB79022BF3D90220FFF7EA
:103D400089FF6420FCF7A6FC2820FFF783FF64208E
:103D5000FCF7A0FC0C20FFF77DFF6420FCF79AFC29
:103D60008020FFF777FF6420FCF794FC0120FFF729
:103D700071FF6420FCF78EFC00BF0837BD4680BD94
:103D800080B582B000AF786006E07B685A1C7A602C
:103D90001B781846FFF78EFF7B681B78002BF4D149
:103DA00000BF0837BD4680BD80B584B000AF034674
:103DB0000A46FB711346BB710023FB73FB79013B81
:103DC000032B17D801A252F823F000BFDD3D0008F5
:103DD000E33D0008E93D0008EF3D00088023FB7348
:103DE00008E0C023FB7305E09423FB7302E0D423B7
:103DF000FB7300BFBA79FB7B1344DBB2013BFB735F
:103E0000FB7B1846FFF726FF0A20FCF743FC00BFA8
:103E10001037BD4680BD00BF80B500AF1020FFF752
:103E200019FF00BF80BD80B586B000AF0346FB71AF
:103E30002023FB73FB797B6106E0FB7B1846FFF7D1
:103E400039FF7B69013B7B617B69002BF5DCFB79EA
:103E50003B6104E0FFF7E0FF3B69013B3B613B69ED
:103E6000002BF7DC00BF1837BD4680BD80B500AF22
:103E7000FCF79EFB00F0E2FB00F0F8FF00F0CCFF47
:103E800000F06CFC002000F0DFFE002000F07EFE61
:103E9000002000F037FF002000F01CFE00F08EFD37
:103EA000FFF738FF00F016FD944B01221A60944B87
:103EB00007221A70924B3B225A70914B1E229A7025
:103EC00000228F498F48FEF7AEFB8F4B06229A7077
:103ED0008D4B12225A708C4B04221A708A4B12227C
:103EE000DA70002288498748FEF7C0FC874B082219
:103EF0001A70864B00225A70854B12221A70844B1E
:103F000000225A7000F046FB7D4B5B781A46814BCD
:103F10001B689A420ED07D4B18787C4B59787C4BAD
:103F20001A787B4B5B7800F0FDFC754B5B781A468A
:103F3000784B1A60754B1A78714B1B789A4208D1EE
:103F4000724B5A786E4B5B789A4202D1724B0122C7
:103F50001A706F4B1A786A4B1B789A4208D16C4BD7
:103F60005A78674B5B789A4202D16B4B02221A70E7
:103F7000694B1B78012B02D0022B03D005E000F027
:103F8000BFF902E000F050FA00BF644B00221A7043
:103F900002216348FCF73EFE03461A46614B1A7045
:103FA000604B1B78002B06D05F4B1B78002B02D197
:103FB0005A4B01221A705B4B1A785B4B1A70022124
:103FC0005748FCF727FE0346012B05D1012220218B
:103FD0005648FCF737FE04E0002220215348FCF746
:103FE00031FE00F0EBFA03461A46514B1A70434B70
:103FF0001B68013B032B00F2618101A252F823F000
:10400000114000082940000835410008F34100082C
:10401000424B1B78012B40F04A81384B02221A6038
:10402000022000F0C9FB42E13C4B1B78012B05D17B
:10403000324B03221A60032000F0BEFB3C4B93F985
:104040000030012B28D12E4B5B780133DAB22C4B98
:104050005A702B4B5B783B2B0FD9294B1B780133C4
:10406000DAB2274B1A70264B00225A70244B1B7869
:10407000172B02D9224B00221A7000222049214816
:10408000FEF7D1FA214B1878204B5978204B1A783B
:104090001F4B5B7800F046FC254B93F90030B3F1E1
:1040A000FF3F40F00681164B5B78013BDAB2144BC0
:1040B0005A70134B5B783B2B0FD9114B1B78013B8C
:1040C000DAB20F4B1A700E4B3B225A700C4B1B7816
:1040D000172B02D90A4B17221A70002208490948E7
:1040E000FEF7A1FA094B1878084B5978084B1A7853
:1040F000074B5B7800F016FCDBE000BF08000020F7
:10410000D4000020200200201C020020F401002026
:1041100008020020A8000020F0010020A1000020DB
:1041200000080240C0000020C1000020000402403E
:10413000C2000020634B1B78012B05D1624B042287
:104140001A60042000F038FB604B93F90030012B1B
:1041500023D15F4B5B780133DAB25D4B5A705C4B15
:104160005B783B2B0FD95A4B1B780133DAB2584B93
:104170001A70574B00225A70554B1B78172B02D9D7
:10418000534B00221A70524B1878514B5978514BAF
:104190001A78504B5B7800F0C5FB4C4B93F900301C
:1041A000B3F1FF3F40F08780494B5B78013BDAB2C7
:1041B000474B5A70464B5B783B2B0FD9444B1B78CF
:1041C000013BDAB2424B1A70414B3B225A70404BD2
:1041D0001B78172B02D93E4B17221A703C4B1878CC
:1041E0003B4B59783B4B1A783A4B5B7800F09AFB83
:1041F00061E0344B1B78012B05D1334B01221A604F
:10420000012000F0D9FA314B93F90030012B23D172
:10421000304B5B780133DAB22E4B5A702D4B5B7802
:104220003B2B0FD92B4B1B780133DAB2294B1A7079
:10423000284B00225A70274B1B78172B02D9254B8D
:1042400000221A70224B1878214B5978214B1A788A
:10425000204B5B7800F066FB1C4B93F90030B3F108
:10426000FF3F2AD11B4B5B78013BDAB2194B5A70E6
:10427000184B5B783B2B0FD9164B1B78013BDAB2FE
:10428000144B1A70134B3B225A70124B1B78172B8E
:1042900002D9104B17221A700D4B18780C4B597815
:1042A0000C4B1A780B4B5B7800F03CFB05E000BF31
:1042B00004E000BF02E000BF00E000BF0A20FCF7FE
:1042C000E9F91FE6A100002008000020C20000203C
:1042D000F40100200802002080B584B000AFF8602F
:1042E000B9607A60F86800F0AFFCB86800F04EFC86
:1042F000786800F007FD00BF1037BD4680BD0000A4
:1043000080B500AF01224FF480614048FCF79AFC71
:1043100000F040F93E4B1B68B3F57A7F3DDC3D4B26
:104320001B68B3F57A7F38DC3B4B1B68B3F57A7FAB
:1043300033DC3A4B1B68B3F57A7F2EDC384B9B7825
:104340001A46384B1B689A425ED0314B1B680533C6
:104350002F4A13602F4B1B6805332E4A13602E4BD8
:104360001B680A332C4A13602C4B1B680A332B4AF8
:1043700013602A4B1B68184600F030FE244B186867
:10438000244B1968244B1B681A46FFF7A5FF244BE2
:104390009B781A46234B1A6036E01D4B1B68042B92
:1043A00020DD1C4B1B68042B1CDD1B4B1B68092BE1
:1043B00018DD174B1B68143B154A1360154B1B681F
:1043C000143B144A1360144B1B68283B124A1360B9
:1043D0000F4B18680F4B19680F4B1B681A46FFF7F5
:1043E0007BFF11E00A4B00221A600A4B00221A6080
:1043F000094B00221A60064B1868064B1968064BD9
:104400001B681A46FFF768FF00BF80BD000002402E
:10441000B0000020B4000020B8000020BC00002044
:10442000D4000020A400002080B500AF00F0B2F856
:10443000504B1B68042B3BDD4F4B1B68042B37DDB7
:104440004E4B1B68092B33DD4D4B1B68182B2FDDA2
:104450004C4B9B781A464C4B1B689A4200F0888064
:10446000444B1B68053B434A1360434B1B68053BA9
:10447000414A1360414B1B680A3B404A1360404B62
:104480001B680A3B3E4A13603D4B1B68184600F010
:10449000A5FD384B1868384B1968384B1B681A460D
:1044A000FFF71AFF374B9B781A46374B1A605FE0CD
:1044B000344B9B781A46354B1A60324B9B781A4620
:1044C000324B1B683C339A422DDA2E4B9B781A46AE
:1044D0002D4B1B689A4245D0284B1B68B3F57A7F59
:1044E00040DA244B00221A60234B00221A60234B2F
:1044F0001B680A33214A1360214B00221A60204BAB
:104500001B68184600F06AFD1A4B18681A4B1968A8
:104510001A4B1B681A46FFF7DFFE1A4B9B781A46A8
:10452000194B1A601EE0134B00221A60124B002236
:104530001A60124B00221A60114B00221A60104BB5
:104540001B68184600F04AFD0A4B18680A4B1968A8
:104550000A4B1B681A46FFF7BFFE0A4B9B781A46A8
:10456000094B1A6000224FF480610948FCF76AFB8E
:1045700000BF80BDB0000020B4000020B8000020C3
:10458000BC000020D4000020A4000020AC000020CB
:104590000000024080B500AF002205490548FEF743
:1045A00007F9002204490348FEF707FA00BF80BD5F
:1045B000D4000020200200201C02002080B582B020
:1045C00000AF0023FB711A4B1B789B00DAB2184B2B
:1045D0001A704FF480711748FCF71CFB0346012B3F
:1045E00003D1FB7943F00203FB714FF400711148D2
:1045F000FCF710FB0346012B03D1FB7943F00103C9
:10460000FB7197F9073003F003035AB2084B1B788C
:104610005BB213435BB2DAB2054B1A70044B1B78E2
:1046200003F00F03044AD35618460837BD4680BD31
:10463000A0000020000002400C00002080B5ACB0BB
:1046400000AF07F17C0334220021184600F094FFEC
:1046500007F1680300221A605A609A60DA601A61F2
:1046600007F10C035C220021184600F085FF0023AF
:10467000BB60384B1B6C374A43F080531364354B97
:104680001B6C03F08053BB60BB6800237B60324B24
:104690001B6823F44043304A43F4804313602E4B9D
:1046A0001B6803F440437B607B680623FB670123A0
:1046B000C7F884300123C7F888301023C7F88C303E
:1046C0000223C7F894300023C7F898301023C7F8A6
:1046D0009C304FF4A873C7F8A0300423C7F8A43067
:1046E0000223C7F8A8300223C7F8AC3007F17C03D7
:1046F0001846FDF7ADFC0346002B01D000F079FC15
:104700000F23BB660223FB6600233B674FF48053F5
:104710007B670023BB6707F1680302211846FCF79B
:10472000A1FE0346002B01D000F063FC2023FB60B8
:104730004FF48073FB6407F10C031846FCF7A8FFE5
:104740000346002B01D000F054FC00BFB037BD463B
:1047500080BD00BF003802400070004080B500AF4F
:10476000124B134A1A60114B124A5A600F4B002227
:104770009A600E4B0022DA600C4B4FF480421A61B3
:104780000A4B00225A61094B00229A61074B002212
:10479000DA61064B00221A620448FCF791FA0346DC
:1047A000002B01D000F025FC00BF80BD600100207F
:1047B00000540040A086010080B582B000AF786050
:1047C0007B68013B032B7FD801A252F823F000BF86
:1047D000E14700081B480008554800088F480008BA
:1047E00002210220FFF7E0FA0220FFF71CFB022162
:1047F0000320FFF7D9FA0220FFF715FB022104205E
:10480000FFF7D2FA0220FFF70EFB02210120FFF78B
:10481000CBFA2F48FFF7B4FA56E002210120FFF748
:10482000C3FA0220FFF7FFFA02210320FFF7BCFAC8
:104830000220FFF7F8FA02210420FFF7B5FA022060
:10484000FFF7F1FA02210220FFF7AEFA2048FFF746
:1048500097FA39E002210120FFF7A6FA0220FFF7BC
:10486000E2FA02210220FFF79FFA0220FFF7DBFAAB
:1048700002210420FFF798FA0220FFF7D4FA022160
:104880000320FFF791FA1248FFF77AFA1CE00221A1
:104890000120FFF789FA0220FFF7C5FA0221022062
:1048A000FFF782FA0220FFF7BEFA02210320FFF78A
:1048B0007BFA0220FFF7B7FA02210420FFF774FA0F
:1048C0000348FFF75DFA00BF00BF0837BD4680BD53
:1048D000C85D000880B500AF05210120FFF764FA2C
:1048E0000C48FFF74DFA05210220FFF75DFA0A4850
:1048F000FFF746FA05210320FFF756FA0748FFF7AE
:104900003FFA05210420FFF74FFA0548FFF738FA70
:1049100000BF80BDCC5D0008D85D0008E05D0008E8
:10492000E85D000890B589B000AF0446084611461E
:104930001A462346FB710346BB710B467B71134637
:104940003B71FA79BB7907F118001A4900F01CFE97
:104950000F210320FFF728FA07F118031846FFF785
:104960000FFA7A793B7907F11000124900F00CFE3A
:104970000F210420FFF718FA07F110031846FFF77C
:10498000FFF9FFF707FE0C4B1B781A460A4B5B78C2
:1049900007F10800074900F0F7FD0F210220FFF79B
:1049A00003FA07F108031846FFF7EAF900BF2437B6
:1049B000BD4690BDF05D0008D400002080B590B0E9
:1049C00000AF07F12C0300221A605A609A60DA6087
:1049D0001A610023BB623B4628220021184600F0E2
:1049E000CBFD3A4B3A4A1A60384B00225A60374B9B
:1049F0007F229A60354BFF22DA60344B00221A6125
:104A0000324B00225A61314B00229A612F48FDF748
:104A100079FD0346002B01D000F0EBFA002387F864
:104A20002C30002387F82D30002387F82E30002308
:104A3000BB630023FB6307F12C03012219462348C3
:104A4000FDF7F1FD0346002B01D000F0D2FA01235F
:104A500087F82830012387F82930012387F82A3086
:104A6000182387F82B3007F128030122194617482D
:104A7000FDF7FCFE0346002B01D000F0BAFA00233C
:104A80003B7000237B700023BB7000237B600023FE
:104A9000FB6000233B6100237B610023BB6100239B
:104AA000FB61012387F820304FF480737B623B4623
:104AB000012219460548FDF7CFFF0346002B01D020
:104AC00000F097FA00BF4037BD4680BD20020020AD
:104AD0000028004080B58CB000AF786007F1280353
:104AE00000221A605A6007F10C0300221A605A6013
:104AF0009A60DA601A615A619A61234B4FF08042E2
:104B00001A60214B54225A601F4B00229A601E4BA0
:104B10004FF47A72DA601C4B00221A611A48FEF7D1
:104B2000D9F90346002B01D000F063FA0023BB62E1
:104B30000023FB6207F1280319461348FEF782FDA4
:104B40000346002B01D000F054FA6023FB607B6821
:104B50003B6100237B610023FB6107F10C0308220A
:104B600019460948FEF716FA0346002B01D000F05B
:104B700040FA08210448FEF7D9F9034800F02EFB5B
:104B800000BF3037BD4680BD4002002080B58CB0EC
:104B900000AF786007F1280300221A605A6007F11D
:104BA0000C0300221A605A609A60DA601A615A6136
:104BB0009A61234B234A1A60214B54225A60204B9E
:104BC00000229A601E4B4FF47A72DA601C4B00226E
:104BD0001A611B48FEF77EF90346002B01D000F056
:104BE00008FA0023BB620023FB6207F12803194681
:104BF0001348FEF727FD0346002B01D000F0F9F91A
:104C00006023FB607B683B6100237B610023FB61C9
:104C100007F10C03042219460948FEF7BBF90346C5
:104C2000002B01D000F0E5F904210548FEF77EF9DC
:104C3000034800F0D3FA00BF3037BD4680BD00BF47
:104C4000B40100200004004080B58CB000AF786053
:104C500007F1280300221A605A6007F10C030022B2
:104C60001A605A609A60DA601A615A619A61234B3D
:104C7000234A1A60214B54225A60204B00229A602A
:104C80001E4B4FF47A72DA601C4B00221A611B48EB
:104C9000FEF720F90346002B01D000F0AAF900230B
:104CA000BB620023FB6207F1280319461348FEF795
:104CB000C9FC0346002B01D000F09BF96023FB6088
:104CC0007B683B6100237B610023FB6107F10C03E0
:104CD000002219460948FEF75DF90346002B01D072
:104CE00000F087F900210548FEF720F9034800F09D
:104CF00075FA00BF3037BD4680BD00BF24010020DB
:104D00000008004080B592B000AF786007F1400322
:104D100000221A605A6007F1240300221A605A60C8
:104D20009A60DA601A615A619A6107F108030022F9
:104D30001A605A609A60DA601A615A619A61344B5B
:104D4000344A1A60324B54225A60314B00229A6026
:104D50002F4B4FF47A72DA602D4B00221A612C4BE4
:104D600000225A612A48FEF7B5F80346002B01D00D
:104D700000F03FF900233B6400237B6407F140030C
:104D800019462348FEF75EFC0346002B01D000F0D5
:104D900030F960237B627B68BB620023FB620023E7
:104DA0003B6300237B630023BB630023FB6307F1AA
:104DB0002403042219461648FEF7ECF80346002B9C
:104DC00001D000F016F90023BB600023FB60002334
:104DD0003B6100237B610023BB614FF40053FB6107
:104DE00000233B6207F1080319460948FEF76FFCF0
:104DF0000346002B01D000F0FCF804210448FEF724
:104E000095F8034800F0EAF900BF4837BD4680BD79
:104E1000E80000200004014080B500AF114B124AA9
:104E20001A60104B4FF4E1325A600E4B00229A6028
:104E30000C4B0022DA600B4B00221A61094B0C224A
:104E40005A61084B00229A61064B0022DA6105483C
:104E5000FEF796FC0346002B01D000F0CAF800BF15
:104E600080BD00BF7C0200200044004080B58AB0B5
:104E700000AF07F1140300221A605A609A60DA60EA
:104E80001A6100233B614F4B1B6B4E4A43F00403F6
:104E900013634C4B1B6B03F004033B613B69002322
:104EA000FB60484B1B6B474A43F080031363454B41
:104EB0001B6B03F08003FB60FB680023BB60414B6E
:104EC0001B6B404A43F0010313633E4B1B6B03F023
:104ED0000103BB60BB6800237B603A4B1B6B394A04
:104EE00043F002031363374B1B6B03F002037B6039
:104EF0007B68002260213448FBF7A4FE00222021B9
:104F00003248FBF79FFE4FF400537B61304BBB618F
:104F10000023FB6107F1140319462E48FBF7E8FC58
:104F200002237B612C4BBB610223FB6107F114035D
:104F300019462848FBF7DCFC4FF48C637B610123A6
:104F4000BB610123FB6100233B6207F11403194697
:104F50001D48FBF7CDFC4FF440737B611E4BBB61DA
:104F60000123FB6107F1140319461748FBF7C0FC46
:104F700020237B610123BB610023FB6100233B6293
:104F800007F1140319461148FBF7B2FC0022002177
:104F90000720FBF776FC0720FBF78FFC002200219F
:104FA0001720FBF76EFC1720FBF787FC002200217F
:104FB0002820FBF766FC2820FBF77FFC00BF283782
:104FC000BD4680BD0038024000000240000402409F
:104FD00000002110000802400000111080B582B0CE
:104FE00000AF78607868FFF775FD00BF0837BD46F1
:104FF00080BD80B400AF00BFBD465DF8047B704744
:1050000080B582B000AF00237B60104A0F4B5B6C11
:1050100043F4804353640D4B5B6C03F480437B602B
:105020007B6800233B60094A084B1B6C43F08053AC
:105030001364064B1B6C03F080533B603B680720F6
:10504000FBF714FC00BF0837BD4680BD00380240A6
:1050500080B58AB000AF786007F1140300221A60AF
:105060005A609A60DA601A617B681B68194A934239
:105070002CD100233B61184A174B1B6B43F00203F2
:105080001363154B1B6B03F002033B613B694FF449
:1050900040737B611223BB610123FB6103233B62ED
:1050A00004237B6207F1140319460C48FBF720FC2C
:1050B0000023FB60084A084B1B6C43F40013136485
:1050C000054B1B6C03F40013FB60FB6800BF283723
:1050D000BD4680BD0054004000380240000402403C
:1050E00080B582B000AF78607B681B68084A934245
:1050F0000AD1084B01221A60002200212920FBF767
:10510000C0FB2920FBF7D9FB00BF0837BD4680BD97
:10511000002800403C0E474280B487B000AF786062
:105120007B681B68B3F1804F0ED100237B61274A57
:10513000264B1B6C43F001031364244B1B6C03F0E0
:1051400001037B617B693AE07B681B68204A9342DC
:105150000ED100233B611D4A1C4B1B6C43F0020324
:1051600013641A4B1B6C03F002033B613B6926E09E
:105170007B681B68174A93420ED10023FB60134AD9
:10518000124B1B6C43F004031364104B1B6C03F0B5
:105190000403FB60FB6812E07B681B680E4A9342C5
:1051A0000DD10023BB60094A084B5B6C43F002033E
:1051B0005364064B5B6C03F00203BB60BB6800BF2B
:1051C0001C37BD465DF8047B704700BF00380240C5
:1051D00000040040000800400004014080B58CB08D
:1051E00000AF786007F11C0300221A605A609A60D1
:1051F000DA601A617B681B68B3F1804F1FD100230E
:10520000BB61464A454B1B6B43F002031363434BA0
:105210001B6B03F00203BB61BB694FF48063FB614E
:1052200002233B6200237B620023BB620123FB62FB
:1052300007F11C0319463A48FBF75AFB6AE07B6802
:105240001B68384A93421ED100237B61334A334B9B
:105250001B6B43F001031363304B1B6B03F0010323
:105260007B617B698023FB6102233B6200237B62BD
:105270000023BB620223FB6207F11C0319462A4884
:10528000FBF736FB46E07B681B68284A93421ED139
:1052900000233B61214A214B1B6B43F00203136344
:1052A0001E4B1B6B03F002033B613B694023FB6118
:1052B00002233B6200237B620023BB620223FB626A
:1052C00007F11C0319461648FBF712FB22E07B6826
:1052D0001B68174A93421DD10023FB600F4A0F4BF6
:1052E0001B6B43F0040313630C4B1B6B03F00403B1
:1052F000FB60FB688023FB6102233B6200237B622F
:105300000023BB620323FB6207F11C031946094813
:10531000FBF7EEFA00BF3037BD4680BD00380240D3
:105320000004024000040040000002400008004069
:10533000000401400008024080B58AB000AF7860E8
:1053400007F1140300221A605A609A60DA601A6149
:105350007B681B68194A93422BD100233B61184A92
:10536000174B1B6C43F400331364154B1B6C03F495
:1053700000333B613B690023FB60114A104B1B6B00
:1053800043F0010313630E4B1B6B03F00103FB603F
:10539000FB680C237B610223BB610123FB610323B8
:1053A0003B6207237B6207F1140319460548FBF7AC
:1053B0009FFA00BF2837BD4680BD00BF00440040B3
:1053C000003802400000024080B400AF00BFBD467C
:1053D0005DF8047B704780B400AFFEE780B400AF97
:1053E000FEE780B400AFFEE780B400AFFEE780B414
:1053F00000AF00BFBD465DF8047B704780B400AFCE
:1054000000BFBD465DF8047B704780B400AF00BFAD
:10541000BD465DF8047B704780B500AFFBF71AF915
:1054200000BF80BD80B500AF0220FBF725FC00BFA8
:1054300080BD80B500AF4FF48070FBF71DFC4FF4CA
:105440000070FBF719FC00BF80BD80B500AF4FF4C2
:105450000050FBF711FC00BF80BD000080B500AF1D
:105460000248FDF74DFC00BF80BD00BF20020020B8
:1054700080B400AF164A164BD3F8883043F470035B
:10548000C2F88830134A134B1B6843F001031360C2
:10549000104B00229A600F4A0E4B1B6823F0847356
:1054A00023F4803313600B4B0B4A5A60094A094BB3
:1054B0001B6823F480231360064B0022DA60044B40
:1054C0004FF000629A6000BFBD465DF8047B7047F4
:1054D00000ED00E00038024010300024DFF834D046
:1054E000002103E00C4B5B58435004310B480C4B3C
:1054F00042189A42F6D30B4A02E0002342F8043BDA
:10550000094B9A42F9D3FFF7B3FF00F011F8FEF709
:10551000ADFC704700000220585E0008000000202B
:105520008400002084000020E8020020FEE7000044
:1055300070B50D4E0D4CA41BA4100025A54209D139
:105540000B4E0C4C00F034FCA41BA4100025A5420B
:1055500005D170BD56F8253098470135EEE756F86D
:10556000253098470135F2E7505E0008505E00088C
:10557000505E0008545E000802440346934200D186
:10558000704703F8011BF9E70EB400B59CB01DABE2
:10559000029006906FF00041094807910491094973
:1055A00053F8042B05910068019302A900F066F8F6
:1055B000029B00221A701CB05DF804EB03B0704728
:1055C000200000200802FFFF2DE9F0478E689E4270
:1055D00082460C469046994637D88A8912F4906FD5
:1055E00031D0256809696F1A6569022305EB450505
:1055F00095FBF3F509F101033B449D4238BF1D467D
:10560000530530D5294600F02BFB064650B90C2334
:10561000CAF80030A38943F04003A3814FF0FF3064
:10562000BDE8F0873A46216900F0A8FAA38923F47F
:10563000906343F08003A381266165613E44ED1BC6
:105640002660A5604E464E4500D94E46324641463C
:10565000206800F09EFAA3689B1BA36023681E4489
:1056600026600020DCE72A4600F054FB06460028AE
:10567000E2D12169504600F0A5FAC8E72DE9F04FC4
:105680001D468B891F069DB080460C4616460FD5D9
:105690000B696BB9402100F0E3FA2060206128B962
:1056A0000C23C8F800304FF0FF30C8E0402363619E
:1056B0000023099320238DF8293030238DF82A30D8
:1056C00003954FF0010B37463D4615F8013B0BB1F2
:1056D000252B3ED1B7EB060A0BD053463246214666
:1056E0004046FFF771FF013000F0A480099B53444E
:1056F00009933B78002B00F09D8000234FF0FF3290
:10570000CDE90523049307938DF853301A932F4660
:10571000052217F8011B5048FAF77AFD049BD0B90F
:10572000D90644BF20228DF853201A0744BF2B22EC
:105730008DF853202A782A2A15D0079A2F46002060
:105740000A25394611F8013B303B092B4DD9B8B138
:105750000FE02F46B8E7404A801A0BFA00F01843D2
:1057600004903D46D3E7039A111D12680391002A65
:1057700001DB079204E0524243F0020307920493D4
:105780003B782E2B0CD17B782A2B33D1039B1A1D0F
:105790001B680392002BB8BF4FF0FF33023705930D
:1057A0002E4D397803222846FAF732FD38B14023CE
:1057B000401B03FA00F0049B03430137049339783C
:1057C00027488DF8281006227E1CFAF721FD0028B4
:1057D00038D0244B13BB039B073323F00703083354
:1057E0000393099B4B4409936DE705FB02320120AB
:1057F0000F46A6E700230137059319460A253846C8
:1058000010F8012B303A092A03D9002BC8D0059192
:10581000C6E705FB012101230746F0E703AB009330
:105820002246114B04A94046AFF30080B0F1FF3F80
:105830008146D6D1A3895B063FF535AF09981DB0E7
:10584000BDE8F08F03AB00932246074B04A9404606
:1058500000F082F8EAE700BF145E00081A5E000854
:105860001E5E000800000000C95500082DE9F04741
:1058700091461F468A680B69DDF820809342B8BFC5
:105880001346C9F8003091F8432006460C4612B181
:105890000133C9F800302368990642BFD9F80030B7
:1058A0000233C9F80030256815F0060507D104F168
:1058B000190AE368D9F800209B1AAB4228DC94F857
:1058C00043302268003318BF012392062DD404F11F
:1058D000430239463046C047013020D02368E5688E
:1058E000D9F8002003F00603042B08BFAD1AA36803
:1058F00022690CBF25EAE57500259342C4BF9B1AB7
:10590000ED184FF000091A344D451AD1002008E077
:105910000123524639463046C047013003D14FF08B
:10592000FF30BDE8F0870135C3E7E1185A1C30208D
:1059300081F84300224494F8451082F84310023362
:10594000C5E70123224639463046C0470130E6D03C
:1059500009F10109D8E700002DE9F04301F1430CFA
:105960000C46097E85B06E291746064698460C9A65
:1059700000F0B38022D8632936D00AD8002900F07D
:10598000B980582900F0838004F1420584F8421060
:1059900032E0642901D06929F6D120681368050630
:1059A00003F104012AD51B681160002B03DA2D22B4
:1059B0005B4284F843206F480A2239E0732900F0E3
:1059C0009D8008D86F2920D07029DDD1236843F04D
:1059D0002003236003E0752917D07829D4D17823D8
:1059E00084F84530644855E01368191D1B68116040
:1059F00004F1420584F8423001238CE01B681160F9
:105A000010F0400F18BF1BB2CFE713682568181DB0
:105A10001060280601D51B6802E06806FBD51B88CC
:105A200054486F2914BF0A220822002184F8431029
:105A30006568A560002DC0F29580216821F0040101
:105A40002160002B3DD1002D40F08E806546082A54
:105A50000BD12368DB0708D5236962689A42DEBF51
:105A6000302305F8013C05F1FF35ACEB050323615C
:105A7000CDF800803B4603AA21463046FFF7F6FEEC
:105A800001304DD14FF0FF3005B0BDE8F08339480B
:105A900084F84510136821681D1D1B6815600A06EF
:105AA0000BD5CA0744BF41F0200121601BB9226811
:105AB00022F0200222601022B7E74D0648BF9BB2B9
:105AC000EFE76546B3FBF2F102FB1133C35C05F867
:105AD000013D0B460029F5D1B9E7136825686169D6
