:020000040800F2
:1000000000000220D95200088951000897510008C9
:100010009D510008A3510008A951000800000000EC
:10002000000000000000000000000000AF510008C8
:10003000BD51000800000000CB510008D951000854
:1000400029530008295300082953000829530008A0
:10005000295300082953000829530008E5510008D6
:100060002953000829530008295300082953000880
:100070002953000829530008295300082953000870
:100080002953000829530008295300082953000860
:100090002953000829530008295300080152000879
:1000A0002953000829530008295300082953000840
:1000B0002953000829530008295300082953000830
:1000C0002953000829530008295300082953000820
:1000D0002953000829530008295300082953000810
:1000E00049520008595200082953000829530008B2
:1000F00029530008295300082953000829530008F0
:1001000029530008295300082953000829530008DF
:1001100029530008295300082953000829530008CF
:1001200029530008295300082953000829530008BF
:1001300029530008000000000000000029530008B7
:10014000295300082953000829530008295300089F
:10015000295300082953000829530008295300088F
:10016000295300082953000829530008295300087F
:1001700029530008295300082953000800000000F3
:1001800000000000295300080000000000000000EB
:100190002953000800000000000000002953000857
:1001A00000000000000000000000000029530008CB
:1001B000295300082953000829530008295300082F
:0401C00029530008B7
:1001D00010B5054C237833B9044B13B10448AFF381
:1001E00000800123237010BD780000200000000073
:1001F000DC5B000808B5034B1BB103490348AFF3B0
:10020000008008BD000000007C000020DC5B0008CE
:1002100001F0FF01102A2BDB10F0070F08D010F8B7
:10022000013B013A8B422DD010F0070F42B3F6D1BB
:10023000F0B441EA012141EA014122F007047FF0D4
:1002400000070023F0E80256083C85EA010586EA2B
:10025000010685FA47F5A3FA87F586FA47F6A5FA67
:1002600087F68EB9EED1F0BC01F0FF0102F0070273
:1002700032B110F8013B013A83EA010313B1F8D11E
:100280000020704701387047002D06BF35460338FF
:10029000073815F0010F07D1013015F4807F02BF38
:1002A000013015F4C03F0130F0BC0138704700BF89
:1002B00053B94AB9002908BF00281CBF4FF0FF31CD
:1002C0004FF0FF3000F07AB9ADF1080C6DE904CEC3
:1002D00000F006F8DDF804E0DDE9022304B0704721
:1002E0002DE9F0478C460D460446089E002B51D15F
:1002F0008A4217466DD9B2FA82FEBEF1000F0BD0CA
:10030000CEF1200C01FA0EF520FA0CFC02FA0EF7E1
:100310004CEA050C00FA0EF44FEA174A250CBCFB18
:10032000FAF81FFA87F90AFB18CC45EA0C4508FBD6
:1003300009F3AB420AD9ED1908F1FF3280F02381AD
:10034000AB4240F22081A8F102083D44ED1AA4B26C
:10035000B5FBFAF00AFB105544EA054400FB09F925
:10036000A14509D9E41900F1FF3380F00A81A145C4
:1003700040F2078102383C44A4EB090440EA0840FB
:100380000021002E61D024FA0EF400233460736043
:10039000BDE8F0878B4207D9002E54D0002186E8B3
:1003A00021000846BDE8F087B3FA83F1002940F048
:1003B0008E80AB4202D3824200F2FA80841A65EB4F
:1003C00003050120AC46002E3FD086E81010BDE8A2
:1003D000F08712B90127B7FBF2F7B7FA87FEBEF133
:1003E000000F34D1EB1B3A0C1FFA87FC0121B3FB41
:1003F000F2F8250C02FB183345EA03450CFB08F321
:10040000AB4207D9ED1908F1FF3002D2AB4200F23E
:10041000D1808046ED1AA3B2B5FBF2F002FB105575
:1004200043EA05440CFB00FCA44507D9E41900F19C
:10043000FF3302D2A44500F2B8801846A4EB0C04A6
:1004400040EA08409DE731463046BDE8F087CEF1EE
:10045000200405FA0EF307FA0EF720FA04F83A0C16
:1004600025FA04F448EA0308B4FBF2F14FEA184510
:1004700002FB11441FFA87FC45EA044501FB0CF31B
:10048000AB4200FA0EF409D9ED1901F1FF3080F00A
:100490008A80AB4240F2878002393D44EB1A1FFA52
:1004A00088F5B3FBF2F002FB103345EA034500FB8D
:1004B0000CF3AB4207D9ED1900F1FF386FD2AB4214
:1004C0006DD902383D44EB1A40EA01418FE7C1F192
:1004D000200722FA07F88B4005FA01F448EA0303E3
:1004E00020FA07FE4FEA134CFD404EEA040EB5FB1E
:1004F000FCF94FEA1E440CFB19551FFA83F844EA35
:10050000054509FB08F4AC4202FA01F200FA01FACF
:1005100008D9ED1809F1FF3043D2AC4241D9A9F115
:1005200002091D442D1B1FFA8EFEB5FBFCF00CFBCF
:1005300010554EEA054400FB08F8A04507D9E41819
:1005400000F1FF3529D2A04527D902381C4440EAE2
:100550000940A4EB0804A0FB02894C45C6464D4661
:1005600015D312D056B1BAEB0E0364EB050404FAAE
:1005700007F7CB401F43CC40376074600021BDE8D3
:10058000F0871846F8E69046E0E6C245EAD2B8EBB6
:10059000020E69EB03050138E4E72846D7E7404639
:1005A00091E78146BEE7014678E702383C4445E7DB
:1005B000084608E7A8F102083D442BE7704700BF52
:1005C00080B500AF0E4A0E4B1B6843F400731360F6
:1005D0000B4A0B4B1B6843F480631360084A084BBB
:1005E0001B6843F480731360032000F047F9002078
:1005F00000F008F804F0E4FB0023184680BD00BFBB
:10060000003C024080B582B000AF7860124B1A689F
:10061000124B1B7819464FF47A73B3FBF1F3B2FB1C
:10062000F3F3184600F05FF90346002B01D00123D5
:100630000EE07B680F2B0AD8002279684FF0FF305C
:1006400000F027F9064A7B681360002300E00123CD
:1006500018460837BD4680BD100000200400002069
:100660000000002080B400AF064B1B781A46064BF2
:100670001B681344044A136000BFBD465DF8047B49
:10068000704700BF04000020C400002080B400AF09
:10069000034B1B681846BD465DF8047B704700BFDE
:1006A000C400002080B584B000AF7860FFF7EEFF93
:1006B000B8607B68FB60FB68B3F1FF3F05D0094B76
:1006C0001B781A46FB681344FB6000BFFFF7DEFF90
:1006D0000246BB68D21AFB689A42F7D300BF1037B4
:1006E000BD4680BD0400002080B485B000AF7860B6
:1006F0007B6803F00703FB600C4BDB68BB60BA68E8
:100700004FF6FF031340BB60FB681A02BB6813433C
:1007100043F0BF6343F40033BB60044ABB68D3605B
:1007200000BF1437BD465DF8047B704700ED00E064
:1007300080B400AF044BDB681B0A03F007031846C4
:10074000BD465DF8047B704700ED00E080B483B0E7
:1007500000AF0346FB71094997F907305B09FA7945
:1007600002F01F02012000FA02F241F8232000BF2C
:100770000C37BD465DF8047B704700BF00E100E028
:1007800080B483B000AF03463960FB7197F907303E
:10079000002B0BDA0D49FB7903F00F03043B3A6899
:1007A000D2B21201D2B20B441A7609E0084997F985
:1007B00007303A68D2B21201D2B20B4483F8002358
:1007C00000BF0C37BD465DF8047B704700ED00E0CC
:1007D00000E100E080B489B000AFF860B9607A60F1
:1007E000FB6803F00703FB61FB69C3F10703042BFC
:1007F00028BF0423BB61FB690433062B02D9FB69C4
:10080000033B00E000237B610122BB6902FA03F392
:100810005A1EBB681A407B699A4001217B6901FA24
:1008200003F3591E7B680B40134318462437BD461B
:100830005DF8047B7047000080B582B000AF78603F
:100840007B68013BB3F1807F01D301230FE00A4AAB
:100850007B68013B53600F214FF0FF30FFF790FFA3
:10086000054B00229A60044B07221A6000231846A9
:100870000837BD4680BD00BF10E000E080B582B003
:1008800000AF78607868FFF72FFF00BF0837BD46DC
:1008900080BD80B586B000AF0346B9607A60FB7357
:1008A00000237B61FFF744FF78617A68B968786953
:1008B000FFF790FF024697F90F3011461846FFF7F1
:1008C0005FFF00BF1837BD4680BD80B582B000AF66
:1008D0000346FB7197F907301846FFF737FF00BF53
:1008E0000837BD4680BD80B582B000AF78607868BB
:1008F000FFF7A2FF034618460837BD4680BD00003B
:1009000080B489B000AF7860396000237B61002338
:100910003B610023BB610023FB6165E10122FB69B0
:1009200002FA03F37B613B681A687B6913403B6101
:100930003A697B699A4240F054813B685B68022BBC
:1009400003D03B685B68122B23D1FB69DA087B6814
:10095000083253F82230BB61FB6903F007039B00A8
:100960000F2202FA03F3DB43BA691340BB613B6811
:100970001A69FB6903F007039B0002FA03F3BA69E3
:100980001343BB61FB69DA087B680832B96943F835
:1009900022107B681B68BB61FB695B00032202FAC3
:1009A00003F3DB43BA691340BB613B685B6803F048
:1009B0000302FB695B0002FA03F3BA691343BB61EC
:1009C0007B68BA691A603B685B68012B0BD03B6897
:1009D0005B68022B07D03B685B68112B03D03B6838
:1009E0005B68122B30D17B689B68BB61FB695B0045
:1009F000032202FA03F3DB43BA691340BB613B688D
:100A0000DA68FB695B0002FA03F3BA691343BB615E
:100A10007B68BA699A607B685B68BB610122FB698D
:100A200002FA03F3DB43BA691340BB613B685B68BE
:100A30001B0903F00102FB6902FA03F3BA691343CD
:100A4000BB617B68BA695A607B68DB68BB61FB6924
:100A50005B00032202FA03F3DB43BA691340BB6174
:100A60003B689A68FB695B0002FA03F3BA691343B7
:100A7000BB617B68BA69DA603B685B6803F08053EE
:100A8000002B00F0AE800023FB605C4A5B4B5B6C8C
:100A900043F480435364594B5B6C03F48043FB6025
:100AA000FB68574AFB699B08023352F82330BB614D
:100AB000FB6903F003039B000F2202FA03F3DB43FD
:100AC000BA691340BB617B684E4A934225D07B686C
:100AD0004D4A93421FD07B684C4A934219D07B68A1
:100AE0004B4A934213D07B684A4A93420DD07B68AD
:100AF000494A934207D07B68484A934201D1062372
:100B00000CE007230AE0052308E0042306E00323A2
:100B100004E0022302E0012300E00023FA6902F06E
:100B2000030292009340BA691343BB613449FB69E5
:100B30009B080233BA6941F82320394B1B68BB611B
:100B40003B69DB43BA691340BB613B685B6803F4F4
:100B50008033002B03D0BA693B691343BB61304A31
:100B6000BB6913602E4B5B68BB613B69DB43BA69B1
:100B70001340BB613B685B6803F40033002B03D078
:100B8000BA693B691343BB61254ABB695360244B77
:100B90009B68BB613B69DB43BA691340BB613B683F
:100BA0005B6803F48013002B03D0BA693B691343DD
:100BB000BB611B4ABB699360194BDB68BB613B6936
:100BC000DB43BA691340BB613B685B6803F4001305
:100BD000002B03D0BA693B691343BB61104ABB6960
:100BE000D360FB690133FB61FB690F2B7FF696AE87
:100BF00000BF2437BD465DF8047B704700380240D3
:100C00000038014000000240000402400008024099
:100C1000000C024000100240001402400018024084
:100C2000003C014080B485B000AF78600B467B800B
:100C30007B681A697B881340002B02D00123FB7369
:100C400001E00023FB73FB7B18461437BD465DF8BB
:100C5000047B704780B483B000AF78600B467B8024
:100C600013467B707B78002B03D07A887B689A616F
:100C700003E07B881A047B689A6100BF0C37BD468D
:100C80005DF8047B7047000080B582B000AF03467A
:100C9000FB80084B5A69FB881340002B06D0054A9D
:100CA000FB885361FB88184600F006F800BF083740
:100CB000BD4680BD003C014080B483B000AF034618
:100CC000FB8000BF0C37BD465DF8047B7047000019
:100CD00080B584B000AF78600023FB600023BB6068
:100CE0007B68002B01D10123C8E07B6893F83D307D
:100CF000DBB2002B06D17B68002283F83C207868A9
:100D000004F086F87B68242283F83D207B681B680A
:100D10007A681268126822F001021A6000F098FCEA
:100D2000B860BB68574AA2FB03239B0CFB607B683F
:100D30001B68FA685A607B681A687B685B6852496E
:100D40008B4202D8FB68013309E0FB684FF49671CF
:100D500001FB03F34D49A1FB03139B09013313620C
:100D60007B6819687B685B68474A934212D87B6846
:100D70005B685B00BA68B2FBF3F3C3F30B03032BAE
:100D800006D97B685B685B00BA68B2FBF3F345E0A9
:100D9000042343E07B689B68002B0FD17B685A6873
:100DA00013465B001344BA68B2FBF3F3C3F30B03BF
:100DB000002B0CBF01230023DBB210E07B685A68D4
:100DC00013469B0013449A001344BA68B2FBF3F332
:100DD000C3F30B03002B0CBF01230023DBB2002B5A
:100DE00001D001231AE07B689B68002B0AD17B6845
:100DF0005A6813465B001344BA68B2FBF3F343F43A
:100E000000430BE07B685A6813469B0013449A002A
:100E10001344BA68B2FBF3F343F44043CB617B68FD
:100E20001B687A68D1697A68126A0A431A607B681B
:100E30001B687A6811697A68D2680A439A607B688D
:100E40001B687A6851697A6892690A43DA607B683C
:100E50001B687A681268126842F001021A607B68A7
:100E600000221A647B68202283F83D207B680022E0
:100E70001A637B68002283F83E200023184610374F
:100E8000BD4680BD83DE1B43A0860100D34D6210AA
:100E900080B588B002AFF8607A601A460B467B8155
:100EA00013463B8100237B61FFF7F0FB7861FB6811
:100EB00093F83D30DBB2202B40F0EE807B6900934D
:100EC000192301227749F86800F072F90346002BD4
:100ED00001D00223E1E0FB6893F83C30012B01D103
:100EE0000223DAE0FB68012283F83C20FB681B68E0
:100EF0001B6803F00103012B07D0FB681B68FA682D
:100F00001268126842F001021A60FB681B68FA68F6
:100F10001268126822F400621A60FB68212283F8CA
:100F20003D20FB68102283F83E20FB6800221A64F3
:100F3000FB687A685A62FB683A895A85FB685A4AA4
:100F4000DA62FB685B8D9AB2FB681A8579897B69E6
:100F50003A6AF86800F0AAF80346002B0FD0FB6845
:100F60001B6C042B05D1FB68002283F83C20012375
:100F700093E0FB68002283F83C2003238DE00023EC
:100F80003B61FB681B685B693B61FB681B689B6995
:100F90003B613B6966E07A69396AF86800F0C7F935
:100FA0000346002B0FD0FB681B6C042B09D1FB6898
:100FB0001B68FA681268126842F400721A60012312
:100FC0006BE0032369E0FB681A68FB685B6A581CE6
:100FD000F96848621B781361FB685B8D9BB2013B2B
:100FE0009AB2FB685A85FB681B8D013B9AB2FB687D
:100FF0001A85FB681B685B6903F00403042B19D195
:10100000FB681B8D002B15D0FB681A68FB685B6AB8
:10101000581CF96848621B781361FB685B8D9BB2B2
:10102000013B9AB2FB685A85FB681B8D013B9AB263
:10103000FB681A857A69396AF86800F0B5F90346E1
:10104000002B0FD0FB681B6C042B09D1FB681B68BD
:10105000FA681268126842F400721A6001231CE0F8
:1010600003231AE0FB681B8D002B94D1FB681B68DF
:10107000FA681268126842F400721A60FB68202253
:1010800083F83D20FB68002283F83E20FB680022A5
:1010900083F83C20002300E0022318461837BD46A1
:1010A00080BD00BF020010000000FFFF80B588B0C7
:1010B00002AFF8607A603B600B467B81FB68DB6ABD
:1010C0007B617B69042B06D07B69012B03D07B6994
:1010D00013F5803F08D1FB681B68FA681268126834
:1010E00042F480721A600BE0FB681B6B122B07D175
:1010F000FB681B68FA681268126842F480721A6012
:101100003B6800937B6800224FF00111F86800F003
:101110004FF80346002B01D0032340E0FB681B6916
:10112000B3F5804F07D1FB681B687A89D2B202F011
:10113000FE021A6121E0FB681B687A89D211D2B2E3
:1011400002F00602D2B262F00F02D2B21A613B681C
:101150007A681549F86800F07CF80346002B07D040
:10116000FB681B6C042B01D1012318E0032316E05C
:10117000FB681B687A89D2B21A613B687A680B49AE
:10118000F86800F066F80346002B07D0FB681B6C7C
:10119000042B01D1012302E0032300E000231846C1
:1011A0001837BD4680BD00BF0800010002000100E5
:1011B00080B584B000AFF860B9603B601346FB7146
:1011C0001FE03B68B3F1FF3F1BD03B68002B07D00B
:1011D000FFF75CFA0246BB69D21A3B689A4210D903
:1011E000FB6800221A63FB68202283F83D20FB681D
:1011F000002283F83E20FB68002283F83C20032372
:1012000023E0BB681B0CDBB2012B0DD1FB681B6814
:101210005B69DA43BB6813409BB2002B0CBF012310
:101220000023DBB21A460CE0FB681B689B69DA43BB
:10123000BB6813409BB2002B0CBF01230023DBB221
:101240001A46FB799A42BCD0002318461037BD4697
:1012500080BD80B584B000AFF860B9607A603B6053
:1012600040E0FB681B685B6903F48063B3F5806F43
:101270001CD1FB681B68FA681268126842F400729D
:101280001A60FB681B686FF480625A61FB68042275
:101290001A64FB6800221A63FB68202283F83D2051
:1012A000FB68002283F83C2001233CE07B68B3F11B
:1012B000FF3F17D07B68002B07D0FFF7E7F9024606
:1012C0003B68D21A7B689A420CD9FB6800221A63E9
:1012D000FB68202283F83D20FB68002283F83C2035
:1012E000032320E0BB681B0CDBB2012B0CD1FB6895
:1012F0001B685B69DA43BB6813409BB2002B14BFC9
:1013000001230023DBB20BE0FB681B689B69DA4317
:10131000BB6813409BB2002B14BF01230023DBB238
:10132000002B9ED1002318461037BD4680BD80B5E6
:1013300084B000AFF860B9607A6029E0F86800F026
:1013400070F80346002B01D0012329E0BB68B3F1FC
:10135000FF3F1DD0BB68002B07D0FFF797F902466F
:101360007B68D21ABB689A4212D9FB681B6C43F0A7
:101370002002FB681A64FB6800221A63FB682022C3
:1013800083F83D20FB68002283F83C20032307E01C
:10139000FB681B685B6903F08003802BCED10023C0
:1013A00018461037BD4680BD80B584B000AFF860E8
:1013B000B9607A6029E0F86800F033F80346002B42
:1013C00001D0012329E0BB68B3F1FF3F1DD0BB680A
:1013D000002B07D0FFF75AF902467B68D21ABB6888
:1013E0009A4212D9FB681B6C43F02002FB681A6416
:1013F000FB6800221A63FB68202283F83D20FB680B
:10140000002283F83C20032307E0FB681B685B692C
:1014100003F00403042BCED1002318461037BD4639
:1014200080BD80B483B000AF78607B681B685B6967
:1014300003F48063B3F5806F14D17B681B686FF48D
:1014400080625A617B6804221A647B6800221A63F6
:101450007B68202283F83D207B68002283F83C20B3
:10146000012300E0002318460C37BD465DF8047BDD
:101470007047000080B584B000AF786039607B6849
:10148000002B01D10123CAE0674B1B6803F00F0258
:101490003B689A420CD2644B3A68D2B21A70624BE3
:1014A0001B6803F00F023B689A4201D00123B6E0AB
:1014B0007B681B6803F00203002B20D07B681B684D
:1014C00003F00403002B05D0584A584B9B6843F4A3
:1014D000E05393607B681B6803F00803002B05D082
:1014E000524A524B9B6843F4604393604F494F4BC1
:1014F0009B6823F0F0027B689B6813438B607B68DA
:101500001B6803F00103002B44D07B685B68012B50
:1015100007D1464B1B6803F40033002B19D101237C
:101520007DE07B685B68022B03D07B685B68032BE4
:1015300007D13E4B1B6803F00073002B09D1012338
:101540006DE03A4B1B6803F00203002B01D101232D
:1015500065E03649354B9B6823F003027B685B6886
:1015600013438B60FFF792F8F8600AE0FFF78EF8FC
:101570000246FB68D31A41F28832934201D9032311
:101580004DE02A4B9B6803F00C027B685B689B0074
:101590009A42EBD1244B1B6803F00F023B689A423E
:1015A0000CD9214B3A68D2B21A701F4B1B6803F05A
:1015B0000F023B689A4201D0012330E07B681B6830
:1015C00003F00403002B08D01849184B9B6823F440
:1015D000E0527B68DB6813438B607B681B6803F019
:1015E0000803002B09D01149104B9B6823F460427B
:1015F0007B681B69DB0013438B6000F07BFB0146BB
:101600000A4B9B681B0903F00F03094AD35C21FABC
:1016100003F3084A13600020FEF7F4FF0023184686
:101620001037BD4680BD00BF003C0240003802407C
:10163000245C00081000002080B400AF034B1B683E
:101640001846BD465DF8047B704700BF10000020BF
:1016500080B500AFFFF7F0FF0146054B9B689B0A82
:1016600003F00703034AD35C21FA03F3184680BD55
:1016700000380240345C000880B500AFFFF7DCFFA3
:101680000146054B9B685B0B03F00703034AD35CE1
:1016900021FA03F3184680BD00380240345C00088C
:1016A00080B58CB000AF786000237B6200233B6282
:1016B0000023FB610023BB6100237B6100233B61AE
:1016C0000023FB600023FB620023BB627B681B6876
:1016D00003F00103002B10D06F496F4BD3F88C300F
:1016E00023F0C0627B689B6B1343C1F88C307B682E
:1016F0009B6B002B01D10123FB627B681B6803F00D
:101700000203002B10D06449634BD3F88C3023F0D4
:10171000C0527B68DB6B1343C1F88C307B68DB6B9A
:10172000002B01D10123FB627B681B6803F00403DB
:10173000002B17D05849584BD3F88C3023F4401263
:101740007B681B6B1343C1F88C307B681B6BB3F554
:10175000801F01D10123FB627B681B6B002B01D131
:101760000123BB627B681B6803F00803002B17D0C2
:101770004949494BD3F88C3023F440027B685B6BBA
:101780001343C1F88C307B685B6BB3F5800F01D1DC
:101790000123FB627B685B6B002B01D10123BB62E1
:1017A0007B681B6803F02003002B00F08A80002375
:1017B000BB60394A384B1B6C43F080531364364B83
:1017C0001B6C03F08053BB60BB68344A334B1B680F
:1017D00043F480731360FEF759FF786208E0FEF768
:1017E00055FF02467B6AD31A022B01D9032378E204
:1017F0002A4B1B6803F48073002BF0D0264B1B6F21
:1018000003F440733B623B6A002B2FD07B681B6C58
:1018100003F440723B6A9A4228D01F4B1B6F23F49B
:1018200040733B621E4B01221A601D4B00221A605E
:10183000194A3B6A1367184B1B6F03F00103002B17
:1018400014D0FEF723FF78620AE0FEF71FFF02467E
:101850007B6AD31A41F28832934201D9032340E2D2
:101860000D4B1B6F03F00203002BEED07B681B6C4B
:1018700003F44073B3F5407F14D10749064B9B68CE
:1018800023F4F8127B681B6C23F0704323F440733D
:1018900013438B600CE000BF003802400070004032
:1018A000400E47424A4A4A4B9B6823F4F813936020
:1018B0004749474B1A6F7B681B6CC3F30B031343F9
:1018C0000B677B681B6803F01003002B04D0414AB0
:1018D0007B6893F8583013607B681B6803F08003C3
:1018E000002B0AD03A493A4BD3F8943023F4400203
:1018F0007B68DB6C1343C1F894307B681B6803F092
:101900004003002B0AD03249314BD3F8943023F0F6
:1019100080627B689B6C1343C1F894307B681B68C2
:1019200003F48073002B11D02949294BD3F894304C
:1019300023F000627B685B6D1343C1F894307B68D1
:101940005B6DB3F1006F01D10123BB627B681B6843
:1019500003F40073002B0AD01D491D4BD3F89430BB
:1019600023F080527B685B6C1343C1F894307B6832
:101970001B6803F48063002B11D01549144BD3F876
:10198000943023F000527B681B6D1343C1F89430F0
:101990007B681B6DB3F1005F01D10123FB62FB6A21
:1019A000012B05D07B681B68B3F5006F40F0FF800A
:1019B000094B00221A60FEF769FE78620EE0FEF71E
:1019C00065FE02467B6AD31A022B07D9032388E1FE
:1019D00000380240E0114742680047427E4B1B68D6
:1019E00003F00063002BEAD17B681B6803F001035E
:1019F000002B03D07B689B6B002B09D07B681B6896
:101A000003F00203002B28D07B68DB6B002B24D172
:101A1000714BD3F884301B0C03F0030301335B00DC
:101A2000FB616D4BD3F884301B0E03F00F03BB61D9
:101A300069497B685A687B689B689B011A43FB690C
:101A40005B08013B1B041A43BB691B061A437B68F6
:101A50005B691B071343C1F884307B681B6803F084
:101A60000403002B04D07B681B6BB3F5801F0AD0E6
:101A70007B681B6803F00803002B35D07B685B6B29
:101A8000B3F5800F30D1544BD3F884301B0C03F0E6
:101A9000030301335B00FB614F4BD3F884301B0F12
:101AA00003F007037B614C497B685A687B689B683D
:101AB0009B011A43FB695B08013B1B041A437B68CB
:101AC0001B691B061A437B691B071343C1F884304B
:101AD0004149414BD3F88C3023F01F027B689B6A4D
:101AE000013B1343C1F88C307B681B6803F48063AF
:101AF000002B29D07B681B6DB3F1005F24D1364BDE
:101B0000D3F884301B0C03F0030301335B00BB618B
:101B1000314BD3F884301B0F03F007037B612E4950
:101B20007B685A687B689B689B011A437B68DB680B
:101B30005B08013B1B041A43BB691B061A437B6904
:101B40001B071343C1F884307B681B6803F40063F0
:101B5000002B16D020497B685A687B689B689B01E4
:101B60001A437B68DB685B08013B1B041A437B68F4
:101B70001B691B061A437B685B691B071343C1F88B
:101B80008430164B01221A60FEF780FD786208E06F
:101B9000FEF77CFD02467B6AD31A022B01D9032390
:101BA0009FE00D4B1B6803F00063002BF0D0BB6A75
:101BB000012B40F095800A4B00221A60FEF766FD6B
:101BC00078620FE0FEF762FD02467B6AD31A022BB1
:101BD00008D9032385E000BF00380240680047426F
:101BE00070004742414B1B6803F00053B3F1005FA4
:101BF000E8D07B681B6803F00403002B03D07B68EC
:101C00001B6B002B09D07B681B6803F00803002BBB
:101C10002BD07B685B6B002B27D1344BD3F88830FB
:101C20001B0C03F0030301335B003B612F497B680E
:101C30009A697B68DB699B011A433B695B08013B3E
:101C40001B041A437B685B6A1B061343C1F8883088
:101C50002649264BD3F88C3023F4F8527B68DB6A94
:101C6000013B1B021343C1F88C307B681B6803F4F3
:101C70008073002B1DD07B685B6DB3F1006F18D1B2
:101C80001A4BD3F888301B0E03F00F03FB60174983
:101C90007B689A697B68DB699B011A437B681B6AD6
:101CA0005B08013B1B041A43FB681B061343C1F886
:101CB00088300F4B01221A60FEF7E8FC786208E0DA
:101CC000FEF7E4FC02467B6AD31A022B01D90323F8
:101CD00007E0064B1B6803F00053B3F1005FEFD140
:101CE000002318463037BD4680BD00BF0038024093
:101CF000700047422DE9F04FA1B000AF00237B6791
:101D00000023FB6700233B670023FB660023BB67C0
:101D1000A04B9B6803F00C030C2B00F2938101A2F3
:101D200052F823F0591D00084520000845200008FE
:101D3000452000085F1D00084520000845200008D8
:101D400045200008651D00084520000845200008C2
:101D500045200008E11E00088F4BBB6775E18F4BE3
:101D6000BB6772E18B4B5B6803F03F037B67894B7A
:101D70005B6803F48003002B56D0864B5B689B099D
:101D80004FF0000440F2FF114FF0000201EA03019E
:101D900002EA04020B46144660017866786E40EA57
:101DA000D36078665B013B66D7E918345B1A64EB55
:101DB0000204A001F865F86D40EA9360F8659801A7
:101DC000B865D7E91656ED1A66EB04063346DB0014
:101DD0007B657B6D284643EA50737B652B46DB00B1
:101DE0003B65D7E914341D4626466B1846EB0204C2
:101DF000184621460B465B02FB64FB6C024643EA35
:101E0000D253FB6403465B02BB64D7E91234184625
:101E100021467B6F4FF000041A462346FEF748FA2E
:101E200003460C46FB674DE05A4B5B689B094FF03D
:101E3000000440F2FF114FF0000201EA030102EA40
:101E400004020B46144660017864786C40EAD36063
:101E500078645B013B64D7E910345B1A64EB0204DD
:101E60004FEA841B4BEA936B4FEA831ABAEB030ADF
:101E70006BEB040B4FEACB03FB63FB6B43EA5A7338
:101E8000FB634FEACA03BB63D7E90EAB1AEB010A47
:101E90004BEB020B4FEA8B237B637B6B43EA9A533A
:101EA0007B634FEA8A233B63D7E90CAB5046594624
:101EB0007B6F4FF000041A462346FEF7F9F90346FC
:101EC0000C46FB67334B5B681B0C03F003030133C9
:101ED0005B003B67FA6F3B6FB2FBF3F3BB67B4E0A9
:101EE0002C4B5B6803F03F037B672A4B5B6803F472
:101EF0008003002B54D0274B5B689B094FF00004F4
:101F000040F2FF114FF0000201EA030102EA04026D
:101F10000B4614466001F862F86A40EAD360F86242
:101F20005B01BB62D7E90A345B1A64EB02044FEA37
:101F3000841949EA93694FEA8318B8EB030869EBFF
:101F400004094FEAC9037B627B6A43EA58737B62E8
:101F50004FEAC8033B62D7E9088918EB010849EB4F
:101F600002094FEA4923FB61FB6943EAD853FB614D
:101F70004FEA4823BB61D7E90689404649467B6F53
:101F80004FF000041A462346FEF792F903460C462A
:101F9000FB674BE0003802400024F40000127A0096
:101FA0002D4B5B689B094FF0000440F2FF114FF08E
:101FB000000201EA030102EA04020B461446600132
:101FC0007861786940EAD36078615B013B61D7E969
:101FD00004345B1A64EB0204A60146EA93669D0191
:101FE000ED1A66EB0406F300FB60FB6843EA5573E9
:101FF000FB60EB00BB60D7E902566D1846EB0206AA
:10200000B3027B607B6843EA95537B60AB023B6025
:1020100097E86000284631467B6F4FF000041A466F
:102020002346FEF745F903460C46FB670A4B5B68FF
:102030001B0F03F00703FB66FA6FFB6EB2FBF3F3B3
:10204000BB6702E0054BBB6700BFBB6F1846843718
:10205000BD46BDE8F08F00BF003802400024F40008
:1020600080B586B000AF786000233B617B681B6859
:1020700003F00103002B00F08380954B9B6803F075
:102080000C03042B19D0924B9B6803F00C03082B14
:1020900006D18F4B5B6803F48003B3F5800F0CD03F
:1020A0008B4B9B6803F00C030C2B12D1884B5B68A5
:1020B00003F48003B3F5800F0BD1854B1B6803F449
:1020C0000033002B5BD07B685B68002B57D101236A
:1020D00016E27B685B68B3F5803F06D17C4A7C4B97
:1020E0001B6843F4803313601DE07B685B68B3F5C5
:1020F000A02F0CD1764A764B1B6843F480231360E3
:10210000734A734B1B6843F4803313600BE0704ACF
:102110006F4B1B6823F4803313606D4A6C4B1B6854
:1021200023F4802313607B685B68002B13D0FEF7D9
:10213000ADFA386108E0FEF7A9FA02463B69D31A06
:10214000642B01D90323DBE1614B1B6803F40033EB
:10215000002BF0D014E0FEF799FA386108E0FEF7A2
:1021600095FA02463B69D31A642B01D90323C7E1D0
:10217000574B1B6803F40033002BF0D100E000BF85
:102180007B681B6803F00203002B6FD0504B9B68E9
:1021900003F00C03002B17D04D4B9B6803F00C038E
:1021A000082B05D14A4B5B6803F48003002B0BD04E
:1021B000474B9B6803F00C030C2B1CD1444B5B6812
:1021C00003F48003002B16D1414B1B6803F002037C
:1021D000002B05D07B68DB68012B01D001238FE148
:1021E0003B493B4B1B6823F0F8027B681B69DB0013
:1021F00013430B603AE07B68DB68002B20D0354B43
:1022000001221A60FEF742FA386108E0FEF73EFA52
:1022100002463B69D31A022B01D9032370E12C4BF0
:102220001B6803F00203002BF0D02949284B1B68E0
:1022300023F0F8027B681B69DB0013430B6015E099
:10224000244B00221A60FEF721FA386108E0FEF7FD
:102250001DFA02463B69D31A022B01D903234FE131
:102260001B4B1B6803F00203002BF0D17B681B683B
:1022700003F00803002B37D07B685B69002B16D076
:10228000154B01221A60FEF701FA386108E0FEF7EB
:10229000FDF902463B69D31A022B01D903232FE132
:1022A0000B4B5B6F03F00203002BF0D01CE00A4BDA
:1022B00000221A60FEF7EAF938610FE0FEF7E6F94E
:1022C00002463B69D31A022B08D9032318E100BF49
:1022D0000038024000004742800E47428A4B5B6F45
:1022E00003F00203002BE9D17B681B6803F00403B1
:1022F000002B00F097800023FB75834B1B6C03F0D1
:102300008053002B0FD10023FB607F4A7E4B1B6C58
:1023100043F0805313647C4B1B6C03F08053FB60D1
:10232000FB680123FB75794B1B6803F48073002B5A
:1023300018D1764A754B1B6843F480731360FEF71F
:10234000A5F9386108E0FEF7A1F902463B69D31A06
:10235000022B01D90323D3E06C4B1B6803F4807379
:10236000002BF0D07B689B68012B06D1664A664B38
:102370001B6F43F0010313671CE07B689B68052B10
:102380000CD1614A604B1B6F43F0040313675E4A34
:102390005D4B1B6F43F0010313670BE05A4A5A4B26
:1023A0001B6F23F001031367574A574B1B6F23F032
:1023B000040313677B689B68002B15D0FEF766F952
:1023C00038610AE0FEF762F902463B69D31A41F22E
:1023D0008832934201D9032392E04B4B1B6F03F0E9
:1023E0000203002BEED014E0FEF750F938610AE04A
:1023F000FEF74CF902463B69D31A41F28832934208
:1024000001D903237CE0404B1B6F03F00203002B38
:10241000EED1FB7D012B05D13B4A3B4B1B6C23F0DE
:10242000805313647B689B69002B68D0364B9B6894
:1024300003F00C03082B60D07B689B69022B45D10D
:10244000334B00221A60FEF721F9386108E0FEF7ED
:102450001DF902463B69D31A022B01D903234FE031
:10246000294B1B6803F00073002BF0D126497B68D1
:10247000DA697B681B6A1A437B685B6A9B011A43B3
:102480007B689B6A5B08013B1B041A437B68DB6A21
:102490001B061A437B681B6B1B0713434B601C4BCB
:1024A00001221A60FEF7F2F8386108E0FEF7EEF854
:1024B00002463B69D31A022B01D9032320E0124BB9
:1024C0001B6803F00073002BF0D018E0104B0022C3
:1024D0001A60FEF7DBF8386108E0FEF7D7F802462D
:1024E0003B69D31A022B01D9032309E0064B1B6871
:1024F00003F00073002BF0D101E0012300E0002382
:1025000018461837BD4680BD0038024000700040B4
:102510006000474280B582B000AF78607B68002BD6
:1025200001D1012383E07B685B7FDBB2002B05D107
:102530007B6800221A77786802F0B2FC7B6802227E
:102540005A777B681B68CA225A627B681B685322D1
:102550005A62786800F054FC0346002B08D07B6870
:102560001B68FF225A627B6804225A7701235EE0CF
:102570007B681A687B681B689B6823F4E00323F080
:10258000400393607B681B687A68126891687A6878
:1025900050687A68126910437A68526902430A43A4
:1025A0009A607B681B687A68D2681A617B681B68CE
:1025B0007A68126811697A68926812040A431A618B
:1025C0007B681B687A681268D26822F08002DA6041
:1025D0007B681B689B6803F02003002B0ED1786892
:1025E00000F0E6FB0346002B08D07B681B68FF2247
:1025F0005A627B6804225A77012318E07B681B68C3
:102600007A681268126C22F480221A647B681B6854
:102610007A681268116C7A6892690A431A647B6856
:102620001B68FF225A627B6801225A7700231846F2
:102630000837BD4680BD90B587B000AFF860B9607F
:102640007A6000237B61FB681B7F012B01D1022391
:10265000B2E0FB6801221A77FB6802225A777B6896
:10266000002B26D1FB681B689B6803F04003002BFE
:1026700002D1BB680022DA70BB681B78184600F0F4
:10268000EBFB03461C04BB685B78184600F0E4FBD8
:1026900003461B021C43BB689B78184600F0DCFB1A
:1026A000034644EA0302BB68DB781B0413437B61E7
:1026B00020E0FB681B689B6803F04003002B07D0F9
:1026C000BB681B78184600F0E5FB03467B6102E01F
:1026D000BB680022DA70BB681B781A04BB685B78A1
:1026E0001B021343BA6892781A43BB68DB781B0459
:1026F00013437B61FB681B68CA225A62FB681B6834
:1027000053225A62F86800F07BFB0346002B0BD083
:10271000FB681B68FF225A62FB6804225A77FB6839
:1027200000221A77012347E0FB681A687B6903F0EF
:102730007F3323F0FE431360FB681B68FA6812685E
:10274000926822F480229A60FB681B68FA6812681B
:102750009168BA68D068BA68126902430A439A60FD
:10276000FB681B68FA681268D26822F08002DA609F
:10277000FB681B689B6803F02003002B11D1F868ED
:1027800000F016FB0346002B0BD0FB681B68FF22F2
:102790005A62FB6804225A77FB6800221A770123E9
:1027A0000AE0FB681B68FF225A62FB6801225A7725
:1027B000FB6800221A77002318461C37BD4690BDDF
:1027C00080B586B000AFF860B9607A6000237B61A5
:1027D000FB681B689A6ABB685A60FB681B681B69C8
:1027E000C3F30E02BB689A60FB681B681B6803F0AA
:1027F0007F3323F0FE437B617B691B0CDBB203F06C
:102800003F03DAB2BB681A707B691B0ADBB203F0C4
:102810007F03DAB2BB685A707B69DBB203F07F03D7
:10282000DAB2BB689A707B691B0CDBB203F0400321
:10283000DAB2BB68DA707B68002B1AD1BB681B78F0
:10284000184600F027FB03461A46BB681A70BB689F
:102850005B78184600F01EFB03461A46BB685A70A8
:10286000BB689B78184600F015FB03461A46BB6808
:102870009A70002318461837BD4680BD90B587B0C2
:1028800000AFF860B9607A6000237B61FB681B7F52
:10289000012B01D1022394E0FB6801221A77FB6827
:1028A00002225A777B68002B0ED1BB685B7803F05D
:1028B0001003002B08D0BB685B7823F01003DBB259
:1028C0000A33DAB2BB685A707B68002B1CD1BB6834
:1028D000DB78184600F0C0FA03461C04BB685B783E
:1028E000184600F0B9FA03461B021C43BB689B78EC
:1028F000184600F0B1FA034644EA0302BB681B78AD
:102900005B0313437B610EE0BB68DB781A04BB6892
:102910005B781B021343BA6892781A43BB681B7832
:102920005B0313437B61FB681B68CA225A62FB6826
:102930001B6853225A62F86800F062FA0346002BC3
:102940000BD0FB681B68FF225A62FB6804225A778F
:10295000FB6800221A77012333E0FB681A687B6961
:1029600023F07F4323F0C0035360FB681B68FA68C1
:102970001268D26822F08002DA60FB681B689B68EC
:1029800003F02003002B11D1F86800F011FA034680
:10299000002B0BD0FB681B68FF225A62FB680422E5
:1029A0005A77FB6800221A7701230AE0FB681B684C
:1029B000FF225A62FB6801225A77FB6800221A77CD
:1029C000002318461C37BD4690BD80B586B000AFC9
:1029D000F860B9607A6000237B61FB681B685B6804
:1029E00023F07F4323F0C0037B617B691B0CDAB2C9
:1029F000BB68DA707B691B0ADBB203F01F03DAB233
:102A0000BB685A707B69DBB203F03F03DAB2BB6884
:102A10009A707B695B0BDBB203F00703DAB2BB6829
:102A20001A707B68002B1AD1BB68DB78184600F05F
:102A300031FA03461A46BB68DA70BB685B78184601
:102A400000F028FA03461A46BB685A70BB689B78A8
:102A5000184600F01FFA03461A46BB689A70002316
:102A600018461837BD4680BD90B589B000AFF860F4
:102A7000B9607A600023FB610023BB61A14B1B6836
:102A8000A14AA2FB0323DB0A4FF47A7202FB03F391
:102A90007B61FB681B7F012B01D102232EE1FB68C8
:102AA00001221A77FB6802225A777B68002B37D104
:102AB000FB681B689B6803F04003002B02D1BB68D6
:102AC0000022DA70BB681B78184600F0C5F903468F
:102AD0001C04BB685B78184600F0BEF903461B0275
:102AE0001C43BB689B78184600F0B6F9034644EADD
:102AF0000302BB68DB781B0442EA0304BB6893F85B
:102B00002030184600F0A8F903461B0644EA0302E9
:102B1000BB68DB691A43BB685B691343FB6140E038
:102B2000FB681B689B6803F04003002B07D0BB6861
:102B30001B78184600F0AEF90346FB6102E0BB6863
:102B40000022DA70BB68DB69002B08D1BB6893F800
:102B50002030184600F09EF90346FB6107E0BB6891
:102B600093F82030184600F095F90346FB61BB68E6
:102B70001B781A04BB685B781B021343BA6892780F
:102B80001A43BB68DB781B041A43BB6893F82030F8
:102B90001B061A43BB68DB691A43BB685B691343B6
:102BA000FB61BB685A68BB689B691343BB61FB68E8
:102BB0001B68CA225A62FB681B6853225A62BB68B0
:102BC0005B6AB3F5807F41D1FB681B68FA681268C5
:102BD000926822F480729A60FB681B68FA68126837
:102BE000D268D2B262F4C072DA607B695A1E7A612E
:102BF000002B0BD1FB681B68FF225A62FB68032283
:102C00005A77FB6800221A77032377E0FB681B687A
:102C1000DB6803F00103002BE7D0FB681B68FA694F
:102C2000DA61FB681B68BA695A64FB681B68FA685A
:102C30001268926842F480729A60FB681B68FA68B6
:102C40001268926842F480529A6040E0FB681B6808
:102C5000FA681268926822F400729A60FB681B6836
:102C6000FA681268D268D2B262F42072DA607B69C4
:102C70005A1E7A61002B0BD1FB681B68FF225A6237
:102C8000FB6803225A77FB6800221A77032335E09A
:102C9000FB681B68DB6803F00203002BE7D0FB68CE
:102CA0001B68FA691A62FB681B68BA699A64FB6858
:102CB0001B68FA681268926842F400729A60FB68B6
:102CC0001B68FA681268926842F400529A600F4AD0
:102CD0000E4B1B6843F4003313600C4A0B4B9B688C
:102CE00043F400339360FB681B68FF225A62FB6861
:102CF00001225A77FB6800221A77002318462437EE
:102D0000BD4690BD10000020D34D6210003C014034
:102D100080B582B000AF78607B681B68DB6803F425
:102D20008073002B12D07B681B689B6803F4805370
:102D3000002B0BD0786800F031F87B681B687A684C
:102D40001268D268D2B262F4C072DA607B681B6823
:102D5000DB6803F40073002B12D07B681B689B6850
:102D600003F40053002B0BD0786800F0B1F87B68B7
:102D70001B687A681268D268D2B262F42072DA6094
:102D8000054B4FF400325A617B6801225A7700BF2D
:102D90000837BD4680BD00BF003C014080B483B011
:102DA00000AF786000BF0C37BD465DF8047B70470C
:102DB00080B584B000AF78600023FB607B681B683F
:102DC0007A681268D26822F0A002DA60FDF75EFC31
:102DD000F86009E0FDF75AFC0246FB68D31AB3F528
:102DE0007A7F01D9032307E07B681B68DB6803F067
:102DF0002003002BEED0002318461037BD4680BDBF
:102E000080B584B000AF78600023FB607B681B68EE
:102E1000DB6803F04003002B19D17B681B684FF07F
:102E2000FF32DA60FDF732FCF86009E0FDF72EFCB6
:102E30000246FB68D31AB3F57A7F01D9032307E072
:102E40007B681B68DB6803F04003002BEED0002397
:102E500018461037BD4680BD80B485B000AF03462C
:102E6000FB710023FB6005E0FB680133FB60FB792D
:102E70000A3BFB71FB79092BF6D8FB68DBB21B011F
:102E8000DAB2FB791343DBB218461437BD465DF85E
:102E9000047B704780B485B000AF0346FB7100230C
:102EA000FB60FB791B09DBB21A4613469B001344F7
:102EB0005B00FB60FB7903F00F03DAB2FB68DBB267
:102EC0001344DBB218461437BD465DF8047B7047E7
:102ED00080B483B000AF786000BF0C37BD465DF8AA
:102EE000047B704780B582B000AF78607B68002BB0
:102EF00001D101231DE07B6893F83930DBB2002B50
:102F000006D17B68002283F83820786801F0E4FF5E
:102F10007B68022283F839207B681A687B68043357
:102F20001946104600F004F97B68012283F8392025
:102F3000002318460837BD4680BD000080B582B02A
:102F400000AF786039607B681B68012239681846D9
:102F500000F010FA7B681B68104A934204D07B682B
:102F60001B680F4A934201D1012300E00023002B8C
:102F700007D07B681B687A681268526C42F4004282
:102F80005A647B681B687A681268126842F0010212
:102F90001A60002318460837BD4680BD0000014076
:102FA0000004014080B584B000AFF860B9607A6079
:102FB000FB6893F83830012B01D10223B4E0FB68A1
:102FC000012283F83820FB68022283F839207B68CD
:102FD0000C2B00F29F8001A252F823F01130000860
:102FE000153100081531000815310008513000086E
:102FF000153100081531000815310008933000081C
:10300000153100081531000815310008D3300008CB
:10301000FB681B68B968184600F0D0F9FB681B68AC
:10302000FA681268926942F008029A61FB681B68AC
:10303000FA681268926922F004029A61FB681B68C0
:10304000FA6812689169BA6812690A439A6162E083
:10305000FB681B68B968184600F014F9FB681B6828
:10306000FA681268926942F400629A61FB681B6810
:10307000FA681268926922F480629A61FB681B68A0
:10308000FA6812689169BA68126912020A439A6171
:1030900041E0FB681B68B968184600F003FAFB685A
:1030A0001B68FA681268D26942F00802DA61FB68AC
:1030B0001B68FA681268D26922F00402DA61FB68C0
:1030C0001B68FA681268D169BA6812690A43DA6142
:1030D00021E0FB681B68B968184600F05BFAFB68E2
:1030E0001B68FA681268D26942F40062DA61FB6810
:1030F0001B68FA681268D26922F48062DA61FB68A0
:103100001B68FA681268D169BA68126912020A4328
:10311000DA6100E000BFFB68012283F83920FB6818
:10312000002283F83820002318461037BD4680BDA2
:1031300080B485B000AF786039600023FB607B68A5
:103140001B68FB607B68444A934213D07B68B3F1F1
:10315000804F0FD07B68414A93420BD07B68404A36
:10316000934207D07B683F4A934203D07B683E4A34
:10317000934201D1012300E00023002B08D0FB681B
:1031800023F07003FB603B685B68FA681343FB60E5
:103190007B68314A93422BD07B68B3F1804F27D0B4
:1031A0007B682E4A934223D07B682D4A93421FD0DE
:1031B0007B682C4A93421BD07B682B4A934217D0E2
:1031C0007B682A4A934213D07B68294A93420FD0E6
:1031D0007B68284A93420BD07B68274A934207D0EA
:1031E0007B68264A934203D07B68254A934201D1EB
:1031F000012300E00023002B08D0FB6823F4407378
:10320000FB603B68DB68FA681343FB607B68FA6825
:103210001A603B689A687B68DA623B681A687B6868
:103220009A627B680C4A934203D07B680E4A9342B1
:1032300001D1012300E00023002B03D03B681A6971
:103240007B681A637B6801225A6100BF1437BD4650
:103250005DF8047B704700BF00000140000400409F
:1032600000080040000C0040000401400040014004
:10327000004401400048014000180040001C00408C
:103280000020004080B487B000AF78603960002330
:10329000FB6000237B6100233B617B681B6A23F09A
:1032A00010027B681A627B681B6A7B617B685B68C3
:1032B0003B617B689B69FB60FB6823F4E043FB6038
:1032C000FB6823F44073FB603B681B681B02FA68D1
:1032D0001343FB607B6923F020037B613B689B68A1
:1032E0001B017A6913437B617B68204A934203D0B8
:1032F0007B681F4A934201D1012300E00023002B89
:1033000021D07B6923F080037B613B68DB681B0174
:103310007A6913437B617B6923F040037B613B69DE
:1033200023F480633B613B6923F400633B613B68AA
:103330005B699B003A6913433B613B689B699B0057
:103340003A6913433B617B683A695A607B68FA6863
:103350009A613B685A687B689A637B687A691A62EB
:1033600000BF1C37BD465DF8047B7047000001407C
:103370000004014080B487B000AFF860B9607A60A3
:1033800000237B610122BB6802FA03F37B61FB68C7
:103390001A6A7B69DB431A40FB681A62FB681A6A87
:1033A0007968BB6801FA03F31A43FB681A6200BF2D
:1033B0001C37BD465DF8047B7047000080B487B0C1
:1033C00000AF786039600023FB6000237B6100233D
:1033D0003B617B681B6A23F001027B681A627B6891
:1033E0001B6A7B617B685B683B617B689B69FB60F8
:1033F000FB6823F07003FB60FB6823F00303FB60B2
:103400003B681B68FA681343FB607B6923F0020387
:103410007B613B689B687A6913437B617B681F4AC9
:10342000934203D07B681E4A934201D1012300E0FE
:103430000023002B1ED07B6923F008037B613B68CF
:10344000DB687A6913437B617B6923F004037B614A
:103450003B6923F480733B613B6923F400733B6158
:103460003B685B693A6913433B613B689B693A6916
:1034700013433B617B683A695A607B68FA689A61DA
:103480003B685A687B685A637B687A691A6200BF36
:103490001C37BD465DF8047B704700BF000001404B
:1034A0000004014080B487B000AF78603960002329
:1034B000FB6000237B6100233B617B681B6A23F474
:1034C00080727B681A627B681B6A7B617B685B68C1
:1034D0003B617B68DB69FB60FB6823F07003FB608A
:1034E000FB6823F00303FB603B681B68FA68134327
:1034F000FB607B6923F400737B613B689B681B0264
:103500007A6913437B617B68204A934203D07B68CE
:103510001F4A934201D1012300E00023002B21D058
:103520007B6923F400637B613B68DB681B027A697B
:1035300013437B617B6923F480637B613B6923F4E4
:1035400080533B613B6923F400533B613B685B69FB
:103550001B013A6913433B613B689B691B013A6954
:1035600013433B617B683A695A607B68FA68DA61A9
:103570003B685A687B68DA637B687A691A6200BFC5
:103580001C37BD465DF8047B704700BF000001405A
:103590000004014080B487B000AF78603960002338
:1035A0003B610023FB6000237B617B681B6A23F483
:1035B00080527B681A627B681B6AFB607B685B6871
:1035C0007B617B68DB693B613B6923F4E0433B61E2
:1035D0003B6923F440733B613B681B681B023A69FB
:1035E00013433B61FB6823F40053FB603B689B681B
:1035F0001B03FA681343FB607B68144A934203D0B1
:103600007B68134A934201D1012300E00023002B81
:1036100009D07B6923F480437B613B685B699B0134
:103620007A6913437B617B687A695A607B683A697F
:10363000DA613B685A687B681A647B68FA681A62C8
:1036400000BF1C37BD465DF8047B70470000014099
:103650000004014080B483B000AF786039607B68BB
:1036600093F83830012B01D1022332E07B6801222C
:1036700083F838207B68022283F839207B681B6836
:103680007A681268526822F070025A607B681B6880
:103690007A68126851683A6812680A435A607B680F
:1036A0001B687A681268926822F080029A607B68D0
:1036B0001B687A68126891683A6852680A439A608F
:1036C0007B68012283F839207B68002283F8382048
:1036D000002318460C37BD465DF8047B704780B464
:1036E00085B000AF786039600023FB607B6893F899
:1036F0003830012B01D1022344E07B68012283F89A
:103700003820FB6823F0FF023B68DB681343FB6053
:10371000FB6823F440723B689B681343FB60FB68C3
:1037200023F480623B685B681343FB60FB6823F40F
:1037300000623B681B681343FB60FB6823F4805204
:103740003B681B691343FB60FB6823F400523B6832
:103750005B691343FB60FB6823F480423B689B6911
:103760001343FB60FB6823F400423B689B691343EF
:10377000FB607B681B68FA685A647B68002283F8E8
:103780003820002318461437BD465DF8047B704787
:1037900080B582B000AF78607B68002B01D1012337
:1037A0003FE07B6893F83930DBB2002B06D17B68B1
:1037B000002283F83820786801F09EFC7B68242280
:1037C00083F839207B681B687A681268D26822F413
:1037D0000052DA60786800F029F87B681B687A6824
:1037E0001268126922F490421A617B681B687A6839
:1037F0001268526922F02A025A617B681B687A6853
:103800001268D26842F40052DA607B680022DA6300
:103810007B68202283F839207B68202283F83A20B5
:10382000002318460837BD4680BD0000F0B585B0BE
:1038300000AF78600023FB607B681B681B69FB603E
:10384000FB6823F44053FB607B68DB68FA68134332
:10385000FB607B681B68FA681A617B681B68DB6821
:10386000FB60FB6823F4164323F00C03FB607B68CA
:103870009A687B681B691A437B685B691A437B689B
:10388000DB691343FA681343FB607B681B68FA68C3
:10389000DA607B681B685B69FB60FB6823F440733C
:1038A000FB607B689B69FA681343FB607B681B685D
:1038B000FA685A617B68DB69B3F5004F40F0E48039
:1038C0007B681B68AB4A934204D07B681B68AA4A9A
:1038D00093426CD17B681C68FDF7CEFE024613460E
:1038E0009B0013449A001A447B685B685B00B2FB40
:1038F000F3F3A24AA2FB03235B091D01FDF7BCFE03
:10390000024613469B0013449A001A447B685B6886
:103910005B00B2FBF3F6FDF7AFFE024613469B00D9
:1039200013449A001A447B685B685B00B2FBF3F3B4
:10393000924AA2FB03235B09642202FB03F3F31AFE
:10394000DB0032338D4AA2FB03235B095B0003F4E7
:10395000F8731D44FDF790FE024613469B00134486
:103960009A001A447B685B685B00B2FBF3F6FDF7D4
:1039700083FE024613469B0013449A001A447B6858
:103980005B685B00B2FBF3F37C4AA2FB03235B0999
:10399000642202FB03F3F31ADB003233774AA2FB03
:1039A00003235B0903F007032B44A36054E17B6806
:1039B0001C68FDF74DFE024613469B0013449A0017
:1039C0001A447B685B685B00B2FBF3F36B4AA2FBB3
:1039D00003235B091D01FDF73BFE024613469B00D6
:1039E00013449A001A447B685B685B00B2FBF3F6F1
:1039F000FDF72EFE024613469B0013449A001A441C
:103A00007B685B685B00B2FBF3F35C4AA2FB0323B9
:103A10005B09642202FB03F3F31ADB003233574ADB
:103A2000A2FB03235B095B0003F4F8731D44FDF75D
:103A30000FFE024613469B0013449A001A447B680B
:103A40005B685B00B2FBF3F6FDF702FE024613462D
:103A50009B0013449A001A447B685B685B00B2FBCE
:103A6000F3F3464AA2FB03235B09642202FB03F340
:103A7000F31ADB003233414AA2FB03235B0903F054
:103A800007032B44A360E7E07B681B68394A934235
:103A900004D07B681B68384A934271D17B681C68EC
:103AA000FDF7EAFD024613469B0013449A001A44B0
:103AB0007B685B689B00B2FBF3F3304AA2FB0323F5
:103AC0005B091D01FDF7D8FD024613469B00134418
:103AD0009A001A447B685B689B00B2FBF3F6FDF723
:103AE000CBFD024613469B0013449A001A447B68A0
:103AF0005B689B00B2FBF3F3204AA2FB03235B0944
:103B0000642202FB03F3F31A1B0132331B4AA2FBAC
:103B100003235B0903F0F0031D44FDF7ADFD0246EE
:103B200013469B0013449A001A447B685B689B0011
:103B3000B2FBF3F6FDF7A0FD024613469B001344CB
:103B40009A001A447B685B689B00B2FBF3F30B4A54
:103B5000A2FB03235B09642202FB03F3F31A1B019C
:103B60003233064AA2FB03235B0903F00F032B4405
:103B7000A36071E000100140001401401F85EB516B
:103B80007B681C68FDF764FD024613469B001344E6
:103B90009A001A447B685B689B00B2FBF3F3304ADF
:103BA000A2FB03235B091D01FDF752FD02461346EC
:103BB0009B0013449A001A447B685B689B00B2FB2D
:103BC000F3F6FDF745FD024613469B0013449A00A9
:103BD0001A447B685B689B00B2FBF3F3204AA2FBAC
:103BE00003235B09642202FB03F3F31A1B01323344
:103BF0001B4AA2FB03235B0903F0F0031D44FDF7FE
:103C000027FD024613469B0013449A001A447B6822
:103C10005B689B00B2FBF3F6FDF71AFD0246134604
:103C20009B0013449A001A447B685B689B00B2FBBC
:103C3000F3F30B4AA2FB03235B09642202FB03F3A9
:103C4000F31A1B013233064AA2FB03235B0903F07C
:103C50000F032B44A360FFE700BF1437BD46F0BD40
:103C60001F85EB5180B586B002AF0346FB71FB792F
:103C700023F00F03FB73FB791B01BB73FB7B43F04A
:103C80000C03DBB23B72FB7B43F00803DBB27B72BD
:103C9000BB7B43F00C03DBB2BB72BB7B43F008037E
:103CA000DBB2FB7207F108026423009304234E2168
:103CB0000348FDF7EDF800BF1037BD4680BD00BFDB
:103CC0005401002080B586B002AF0346FB71FB793A
:103CD00023F00F03FB73FB791B01BB73FB7B43F0EA
:103CE0000D03DBB23B72FB7B43F00903DBB27B725B
:103CF000BB7B43F00D03DBB2BB72BB7B43F009031C
:103D0000DBB2FB7207F108026423009304234E2107
:103D10000348FDF7BDF800BF1037BD4680BD00BFAA
:103D20005401002080B582B000AF0023FB716420F5
:103D3000FCF7B8FC0023FB7108E00320FFF792FFBB
:103D40002D20FCF7AFFCFB790133FB71FB79022BD3
:103D5000F3D90220FFF786FF6420FCF7A3FC28209C
:103D6000FFF780FF0120FCF79DFC0C20FFF77AFF96
:103D70000120FCF797FC8020FFF774FF0120FCF77F
:103D800091FC0120FFF76EFF00BF0837BD4680BDE4
:103D900080B582B000AF786006E07B685A1C7A601C
:103DA0001B781846FFF78EFF7B681B78002BF4D139
:103DB00000BF0837BD4680BD80B584B000AF034664
:103DC0000A46FB711346BB710023FB73FB79013B71
:103DD000032B17D801A252F823F000BFED3D0008D5
:103DE000F33D0008F93D0008FF3D00088023FB7308
:103DF00008E0C023FB7305E09423FB7302E0D423A7
:103E0000FB7300BFBA79FB7B1344DBB2013BFB734E
:103E1000FB7B1846FFF726FF00BF1037BD4680BD6D
:103E200080B500AF1020FFF71DFF00BF80BD80B53B
:103E300084B000AF0346FB710023FB6004E0FFF792
:103E4000EFFFFB680133FB60FA79FB689A42F6DC0E
:103E500000BF1037BD4680BD2DE9F04186B000AFF0
:103E6000F87168468046F8790546013D3D61C5B266
:103E70004FF00006F20042EA5572E900C1B24FF07D
:103E80000002D40044EA5174CB0003460733DB0838
:103E9000DB00ADEB030D6B460033FB6000237B6161
:103EA00007E0FA687B69134420221A707B690133AA
:103EB0007B61FA797B699A42F3DCFB681846FFF76D
:103EC00067FFFB791846FFF7B2FFC54600BF1837FA
:103ED000BD46BDE8F081000080B500AFFCF770FB87
:103EE00000F08CFA00F0A2FE00F076FE00F016FB67
:103EF000002000F089FD002000F028FD002000F0E7
:103F0000E1FD002000F0C6FC00F038FC0122202179
:103F10007F48FCF79FFEFFF705FF012000F02CFB18
:103F200000F0B8FB7B4B06221A707A4B14225A70B1
:103F3000784B2D229A70002276497748FEF77BFB5A
:103F4000764B06229A70754B12225A70734B0422DC
:103F50001A70724B1222DA70002270496E48FEF716
:103F60008DFC6F4B06221A706D4B15225A706D4BEB
:103F700012221A706B4B15225A7000F02BFA654B07
:103F80005B781A46684B1B689A420ED0644B1878CF
:103F9000634B5978634B1A78624B5B7800F0A2FB55
:103FA0005C4B5B781A46604B1A605D4B1A78594B34
:103FB0001B789A4208D15A4B5A78564B5B789A42F2
:103FC00002D15A4B01221A60554B1B780133514ADA
:103FD0001278934208D1524B5A784E4B5B789A42F2
:103FE00002D1524B03221A604E4B1A78494B1B7870
:103FF0009A4208D14B4B5A78464B5B789A4202D191
:104000004A4B02221A60474B1B78013B414A127807
:10401000934208D1434B5A783E4B5B789A4202D187
:10402000424B04221A60414B1B68013B032B17D8FB
:1040300001A252F823F000BF494000084F40000899
:10404000554000085B40000800F08CF809E000F0E3
:10405000D9F806E000F072F903E000F01FF900E083
:1040600000BF02213248FCF7DDFD03461A46314B02
:104070001A70314B1B68012B06D12E4B1B78012B7C
:1040800002D12D4B02221A602B4B1B68022B06D14A
:10409000284B1B78012B02D1274B03221A60264B99
:1040A0001B68032B06D1234B1B78012B02D1224B1B
:1040B00004221A60204B1B68042B06D11D4B1B7871
:1040C000012B02D11C4B01221A601B4B1B68013BC8
:1040D000032B1BD801A252F823F000BFED400008CB
:1040E000F5400008FD40000805410008012000F0EF
:1040F00043FA0CE0022000F03FFA08E0032000F051
:104100003BFA04E0042000F037FA00E000BF34E797
:1041100000040240C8000020100200200C02002011
:10412000E4010020F8010020A000002098000020F9
:1041300000080240B40000200C00002080B584B0CC
:1041400000AFF860B9607A60F86800F05DFCB868AC
:1041500000F0FCFB786800F0B5FC00BF1037BD46EE
:1041600080BD000080B500AF00F034F91F4B1B6824
:10417000B3F57A7F37DC1E4B1B68B3F57A7F32DCF0
:104180001C4B1B68B3F57A7F2DDC1B4B9B781A46C2
:104190001A4B1B689A4226D0144B1B681933134ADA
:1041A0001360134B1B680833114A1360114B1B68D3
:1041B0000133104A1360124B1B681933104A136005
:1041C0000F4B1B68184600F0E9FD084B1868084BB8
:1041D0001968084B1B681A46FFF7B0FF064B9B781F
:1041E0001A46064B1A6000BF80BD00BFA400002025
:1041F000A8000020AC000020C80000209C00002087
:10420000B000002080B500AF00F0E4F81D4B1B6843
:10421000002B35DD1C4B1B68002B31DD1B4B1B6855
:10422000002B2DDD1A4B9B781A461A4B1B689A42BD
:1042300026D0144B1B68193B124A1360124B1B68A3
:10424000083B114A1360114B1B68013B0F4A136076
:10425000114B1B68193B104A13600F4B1B68184623
:1042600000F09CFD074B1868074B1968074B1B684B
:104270001A46FFF763FF064B9B781A46054B1A60F8
:1042800000BF80BDA4000020A8000020AC000020DA
:10429000C80000209C000020B000002080B500AFC6
:1042A00000F098F81F4B1B68B3F57A7F37DC1E4B84
:1042B0001B68B3F57A7F32DC1C4B1B68B3F57A7F41
:1042C0002DDC1B4B9B781A461A4B1B689A4226D052
:1042D000144B1B683233134A1360134B1B681033A3
:1042E000114A1360114B1B680233104A1360124BC2
:1042F0001B681933104A13600F4B1B68184600F0F7
:104300004DFD084B1868084B1968084B1B681A4686
:10431000FFF714FF064B9B781A46064B1A6000BF46
:1043200080BD00BFA4000020A8000020AC00002039
:10433000C80000209C000020B000002080B500AF25
:1043400000F048F81D4B1B68002B35DD1C4B1B682B
:10435000002B31DD1B4B1B68002B2DDD1A4B9B788E
:104360001A461A4B1B689A4226D0144B1B68C83B4E
:10437000124A1360124B1B68103B114A1360114B19
:104380001B68023B0F4A1360114B1B68193B104A14
:1043900013600F4B1B68184600F000FD074B1868B0
:1043A000074B1968074B1B681A46FFF7C7FE064BF9
:1043B0009B781A46054B1A6000BF80BDA400002000
:1043C000A8000020AC000020C80000209C000020B5
:1043D000B000002080B500AF002205490548FEF777
:1043E000EFF9002204490348FEF7EFFA00BF80BD51
:1043F000C8000020100200200C02002080B5ACB0E4
:1044000000AF07F17C0334220021184600F0B2FF10
:1044100007F1680300221A605A609A60DA601A6134
:1044200007F10C035C220021184600F0A3FF0023D3
:10443000BB60384A374B1B6C43F080531364354BD9
:104440001B6C03F08053BB60BB6800237B60324A67
:10445000314B1B6823F4404343F4804313602E4BDD
:104460001B6803F440437B607B680623FB670123E2
:10447000C7F884300123C7F888301023C7F88C3080
:104480000223C7F894300023C7F898301023C7F8E8
:104490009C304FF4A873C7F8A0300423C7F8A430A9
:1044A0000223C7F8A8300223C7F8AC3007F17C0319
:1044B0001846FDF7D5FD0346002B01D000F079FC2E
:1044C0000F23BB660223FB6600233B674FF4805338
:1044D0007B670023BB6707F1680302211846FCF7DE
:1044E000C9FF0346002B01D000F063FC2023FB60D2
:1044F0004FF48073FB6407F10C031846FDF7D0F806
:104500000346002B01D000F054FC00BFB037BD467D
:1045100080BD00BF003802400070004080B500AF91
:10452000124B134A1A60114B124A5A600F4B002269
:104530009A600E4B0022DA600C4B4FF480421A61F5
:104540000A4B00225A61094B00229A61074B002254
:10455000DA61064B00221A620448FCF7B9FB0346F5
:10456000002B01D000F025FC00BF80BD54010020CD
:1045700000540040A086010080B582B000AF786092
:104580007B68013B032B7FD801A252F823F000BFC8
:10459000A1450008DB450008154600084F46000805
:1045A00002210220FFF708FC0220FFF755FC022140
:1045B0000320FFF701FC0220FFF74EFC022104203C
:1045C000FFF7FAFB0220FFF747FC02210120FFF76B
:1045D000F3FB2F48FFF7DCFB56E002210120FFF739
:1045E000EBFB0220FFF738FC02210320FFF7E4FB7E
:1045F0000220FFF731FC02210420FFF7DDFB02203F
:10460000FFF72AFC02210220FFF7D6FB2048FFF724
:10461000BFFB39E002210120FFF7CEFB0220FFF7AC
:104620001BFC02210220FFF7C7FB0220FFF714FC4E
:1046300002210420FFF7C0FB0220FFF70DFC02213E
:104640000320FFF7B9FB1248FFF7A2FB1CE0022191
:104650000120FFF7B1FB0220FFF7FEFB0221022041
:10466000FFF7AAFB0220FFF7F7FB02210320FFF769
:10467000A3FB0220FFF7F0FB02210420FFF79CFBC5
:104680000348FFF785FB00BF00BF0837BD4680BD6C
:10469000F45B000880B500AF05210120FFF78CFB1B
:1046A0000C48FFF775FB05210220FFF785FB0A4840
:1046B000FFF76EFB05210320FFF77EFB0748FFF79E
:1046C00067FB05210420FFF777FB0548FFF760FB38
:1046D00000BF80BDF85B0008045C00080C5C0008AB
:1046E000145C000890B589B000AF04460846114636
:1046F0001A462346FB710346BB710B467B7113467A
:104700003B71FA79BB7907F118001A4900F03AFEBB
:104710000F210320FFF750FB07F118031846FFF79E
:1047200037FB7A793B7907F11000124900F02AFE35
:104730000F210420FFF740FB07F110031846FFF795
:1047400027FBFFF747FE0C4B1B781A460A4B5B789A
:1047500007F10800074900F015FE0F210220FFF7BE
:104760002BFB07F108031846FFF712FB00BF2437A5
:10477000BD4690BD1C5C0008C800002080B590B00C
:1047800000AF07F12C0300221A605A609A60DA60C9
:104790001A610023BB623B4628220021184600F024
:1047A000E9FD3A4B3A4A1A60384B00225A60374BBF
:1047B0007F229A60354BFF22DA60344B00221A6167
:1047C000324B00225A61314B00229A612F48FDF78B
:1047D000A1FE0346002B01D000F0EBFA002387F87E
:1047E0002C30002387F82D30002387F82E3000234B
:1047F000BB630023FB6307F12C0301221946234806
:10480000FDF719FF0346002B01D000F0D2FA012377
:1048100087F82830012387F82930012387F82A30C8
:10482000182387F82B3007F128030122194617486F
:10483000FEF724F80346002B01D000F0BAFA00235B
:104840003B7000237B700023BB7000237B60002340
:10485000FB6000233B6100237B610023BB610023DD
:10486000FB61012387F820304FF480737B623B4665
:10487000012219460548FEF7F7F80346002B01D040
:1048800000F097FA00BF4037BD4680BD10020020FF
:104890000028004080B58CB000AF786007F1280395
:1048A00000221A605A6007F10C0300221A605A6055
:1048B0009A60DA601A615A619A61234B4FF0804224
:1048C0001A60214B54225A601F4B00229A601E4BE3
:1048D0004FF47A72DA601C4B00221A611A48FEF714
:1048E00001FB0346002B01D000F063FA0023BB62FA
:1048F0000023FB6207F1280319461348FEF7AAFEBE
:104900000346002B01D000F054FA6023FB607B6863
:104910003B6100237B610023FB6107F10C0308224C
:1049200019460948FEF73EFB0346002B01D000F074
:1049300040FA08210448FEF701FB034800F02EFB73
:1049400000BF3037BD4680BD3002002080B58CB03E
:1049500000AF786007F1280300221A605A6007F15F
:104960000C0300221A605A609A60DA601A615A6178
:104970009A61234B234A1A60214B54225A60204BE0
:1049800000229A601E4B4FF47A72DA601C4B0022B0
:104990001A611B48FEF7A6FA0346002B01D000F06F
:1049A00008FA0023BB620023FB6207F128031946C3
:1049B0001348FEF74FFE0346002B01D000F0F9F933
:1049C0006023FB607B683B6100237B610023FB610C
:1049D00007F10C03042219460948FEF7E3FA0346DF
:1049E000002B01D000F0E5F904210548FEF7A6FAF6
:1049F000034800F0D3FA00BF3037BD4680BD00BF8A
:104A0000A80100200004004080B58CB000AF7860A1
:104A100007F1280300221A605A6007F10C030022F4
:104A20001A605A609A60DA601A615A619A61234B7F
:104A3000234A1A60214B54225A60204B00229A606C
:104A40001E4B4FF47A72DA601C4B00221A611B482D
:104A5000FEF748FA0346002B01D000F0AAF9002324
:104A6000BB620023FB6207F1280319461348FEF7D7
:104A7000F1FD0346002B01D000F09BF96023FB60A1
:104A80007B683B6100237B610023FB6107F10C0322
:104A9000002219460948FEF785FA0346002B01D08B
:104AA00000F087F900210548FEF748FA034800F0B6
:104AB00075FA00BF3037BD4680BD00BF1801002029
:104AC0000008004080B592B000AF786007F1400365
:104AD00000221A605A6007F1240300221A605A600B
:104AE0009A60DA601A615A619A6107F1080300223C
:104AF0001A605A609A60DA601A615A619A61344B9E
:104B0000344A1A60324B54225A60314B00229A6068
:104B10002F4B4FF47A72DA602D4B00221A612C4B26
:104B200000225A612A48FEF7DDF90346002B01D026
:104B300000F03FF900233B6400237B6407F140034E
:104B400019462348FEF786FD0346002B01D000F0EE
:104B500030F960237B627B68BB620023FB62002329
:104B60003B6300237B630023BB630023FB6307F1EC
:104B70002403042219461648FEF714FA0346002BB4
:104B800001D000F016F90023BB600023FB60002376
:104B90003B6100237B610023BB614FF40053FB6149
:104BA00000233B6207F1080319460948FEF797FD09
:104BB0000346002B01D000F0FCF804210448FEF766
:104BC000BDF9034800F0EAF900BF4837BD4680BD93
:104BD000DC0000200004014080B500AF114B124AF8
:104BE0001A60104B4FF4E1325A600E4B00229A606B
:104BF0000C4B0022DA600B4B00221A61094B0C228D
:104C00005A61084B00229A61064B0022DA6105487E
:104C1000FEF7BEFD0346002B01D000F0CAF800BF2E
:104C200080BD00BF6C0200200044004080B58AB007
:104C300000AF07F1140300221A605A609A60DA602C
:104C40001A6100233B614F4A4E4B1B6B43F0040338
:104C500013634C4B1B6B03F004033B613B69002364
:104C6000FB60484A474B1B6B43F080031363454B83
:104C70001B6B03F08003FB60FB680023BB60414AB1
:104C8000404B1B6B43F0010313633E4B1B6B03F064
:104C90000103BB60BB6800237B603A4A394B1B6B46
:104CA00043F002031363374B1B6B03F002037B607B
:104CB0007B68002260213448FBF7CCFF00222021D2
:104CC0003248FBF7C7FF4FF400537B61304BBB61A9
:104CD0000023FB6107F1140319462E48FBF710FE71
:104CE00002237B612C4BBB610223FB6107F11403A0
:104CF00019462848FBF704FE4FF48C637B610123BF
:104D0000BB610123FB6100233B6207F114031946D9
:104D10001D48FBF7F5FD4FF440737B611E4BBB61F3
:104D20000123FB6107F1140319461748FBF7E8FD5F
:104D300020237B610123BB610023FB6100233B62D5
:104D400007F1140319461148FBF7DAFD0022002190
:104D50000720FBF79EFD0720FBF7B7FD002200218F
:104D60001720FBF796FD1720FBF7AFFD002200216F
:104D70002820FBF78EFD2820FBF7A7FD00BF283772
:104D8000BD4680BD003802400000024000040240E1
:104D900000002110000802400000111080B582B010
:104DA00000AF78607868FFF775FD00BF0837BD4633
:104DB00080BD80B400AF00BFBD465DF8047B704786
:104DC00080B582B000AF00237B60104A0F4B5B6C54
:104DD00043F4804353640D4B5B6C03F480437B606E
:104DE0007B6800233B60094A084B1B6C43F08053EF
:104DF0001364064B1B6C03F080533B603B68072039
:104E0000FBF73CFD00BF0837BD4680BD00380240BF
:104E100080B58AB000AF786007F1140300221A60F1
:104E20005A609A60DA601A617B681B68194A93427B
:104E30002CD100233B61184A174B1B6B43F0020334
:104E40001363154B1B6B03F002033B613B694FF48B
:104E500040737B611223BB610123FB6103233B622F
:104E600004237B6207F1140319460C48FBF748FD45
:104E70000023FB60084A084B1B6C43F400131364C7
:104E8000054B1B6C03F40013FB60FB6800BF283765
:104E9000BD4680BD0054004000380240000402407E
:104EA00080B582B000AF78607B681B68084A934287
:104EB0000AD1084B01221A60002200212920FBF7A9
:104EC000E8FC2920FBF701FD00BF0837BD4680BD87
:104ED000002800403C0E474280B487B000AF7860A5
:104EE0007B681B68B3F1804F0ED100237B61274A9A
:104EF000264B1B6C43F001031364244B1B6C03F023
:104F000001037B617B693AE07B681B68204A93421E
:104F10000ED100233B611D4A1C4B1B6C43F0020366
:104F200013641A4B1B6C03F002033B613B6926E0E0
:104F30007B681B68174A93420ED10023FB60134A1B
:104F4000124B1B6C43F004031364104B1B6C03F0F7
:104F50000403FB60FB6812E07B681B680E4A934207
:104F60000DD10023BB60094A084B5B6C43F0020380
:104F70005364064B5B6C03F00203BB60BB6800BF6D
:104F80001C37BD465DF8047B704700BF0038024007
:104F900000040040000800400004014080B58CB0CF
:104FA00000AF786007F11C0300221A605A609A6013
:104FB000DA601A617B681B68B3F1804F1FD1002350
:104FC000BB61464A454B1B6B43F002031363434BE3
:104FD0001B6B03F00203BB61BB694FF48063FB6191
:104FE00002233B6200237B620023BB620123FB623E
:104FF00007F11C0319463A48FBF782FC6AE07B681C
:105000001B68384A93421ED100237B61334A334BDD
:105010001B6B43F001031363304B1B6B03F0010365
:105020007B617B698023FB6102233B6200237B62FF
:105030000023BB620223FB6207F11C0319462A48C6
:10504000FBF75EFC46E07B681B68284A93421ED152
:1050500000233B61214A214B1B6B43F00203136386
:105060001E4B1B6B03F002033B613B694023FB615A
:1050700002233B6200237B620023BB620223FB62AC
:1050800007F11C0319461648FBF73AFC22E07B683F
:105090001B68174A93421DD10023FB600F4A0F4B38
:1050A0001B6B43F0040313630C4B1B6B03F00403F3
:1050B000FB60FB688023FB6102233B6200237B6271
:1050C0000023BB620323FB6207F11C031946094856
:1050D000FBF716FC00BF3037BD4680BD00380240EC
:1050E00000040240000400400000024000080040AC
:1050F000000401400008024080B58AB000AF78602B
:1051000007F1140300221A605A609A60DA601A618B
:105110007B681B68194A93422BD100233B61184AD4
:10512000174B1B6C43F400331364154B1B6C03F4D7
:1051300000333B613B690023FB60114A104B1B6B42
:1051400043F0010313630E4B1B6B03F00103FB6081
:10515000FB680C237B610223BB610123FB610323FA
:105160003B6207237B6207F1140319460548FBF7EE
:10517000C7FB00BF2837BD4680BD00BF00440040CC
:10518000003802400000024080B400AF00BFBD46BE
:105190005DF8047B704780B400AFFEE780B400AFD9
:1051A000FEE780B400AFFEE780B400AFFEE780B456
:1051B00000AF00BFBD465DF8047B704780B400AF10
:1051C00000BFBD465DF8047B704780B400AF00BFF0
:1051D000BD465DF8047B704780B500AFFBF742FA2F
:1051E00000BF80BD80B500AF044B1B6801221A6070
:1051F0000220FBF749FD00BF80BD00BF0800002072
:1052000080B500AF0E4B5B6903F48073002B03D0B5
:105210000C4B1B6802221A60094B5B6903F4007394
:10522000002B03D0074B1B6803221A604FF48070D9
:10523000FBF72AFD4FF40070FBF726FD00BF80BD91
:10524000003C01400800002080B500AF4FF4005042
:10525000FBF71AFD00BF80BD80B500AF0248FDF727
:1052600057FD00BF80BD00BF1002002080B400AF1A
:10527000164A164BD3F8883043F47003C2F88830CE
:10528000134A134B1B6843F001031360104B0022B9
:105290009A600F4A0E4B1B6823F0847323F480330B
:1052A00013600B4B0B4A5A60094A094B1B6823F4E5
:1052B00080231360064B0022DA60044B4FF000623B
:1052C0009A6000BFBD465DF8047B704700ED00E0CA
:1052D0000038024010300024DFF834D0002103E011
:1052E0000C4B5B58435004310B480C4B42189A420C
:1052F000F6D30B4A02E0002342F8043B094B9A42E2
:10530000F9D3FFF7B3FF00F011F8FEF7E5FD7047A2
:1053100000000220805C00080000002078000020CF
:1053200078000020D8020020FEE7000070B50D4E86
:105330000D4CA41BA4100025A54209D10B4E0C4C0A
:1053400000F04CFCA41BA4100025A54205D170BDA3
:1053500056F8253098470135EEE756F8253098473E
:105360000135F2E7785C0008785C0008785C00089A
:105370007C5C000802440346934200D1704703F866
:10538000011BF9E70EB400B59CB04FF402711DABE0
:10539000ADF81410029006906FF000410A48049195
:1053A00007914FF6FF7153F8042BADF81610006803
:1053B000019302A900F066F8029B00221A701CB04B
:1053C0005DF804EB03B07047140000202DE9F047AE
:1053D0008E689E4282460C469146984635D88A8908
:1053E00012F4906F31D0256809696F1A656902233C
:1053F00005EB450595FBF3F508F101033B449D42A0
:1054000038BF1D46530531D5294600F039FB064605
:1054100050B90C23CAF80030A38943F04003A3819C
:105420004FF0FF30BDE8F0873A46216900F0B4FA4A
:10543000A38923F4906343F08003A381266165610F
:105440003E44ED1B2660A5604646464528BF4646BD
:1054500032464946206800F0AAFAA3689B1BA36065
:1054600023681E4426600020BDE8F0872A4600F02D
:1054700065FB06460028E1D12169504600F0B2FAEA
:10548000C7E700002DE9F04F9DB0804603938B895C
:105490001C060D4616460FD50B696BB9402100F06E
:1054A000EFFA2860286128B90C23C8F800304FF0C3
:1054B000FF30C5E040236B610023099320238DF862
:1054C000293030238DF82A304FF0010B37463C4607
:1054D00014F8013B002B3CD1B7EB060A0BD0534626
:1054E000324629464046FFF771FF013000F0A380A5
:1054F000099B534409933B78002B00F09C800023C8
:105500004FF0FF3204930793059206938DF85330C2
:105510001A93052221785048FAF77AFE671C049BFB
:10552000D8B9D90644BF20228DF853201A0744BFAA
:105530002B228DF8532022782A2A16D0079A002190
:105540000A20274601343B78303B092B51D9C9B199
:1055500011E0252BC0D02746B9E73F4A801A0BFA45
:1055600000F0184304903C46D3E7039A111D1268DB
:105570000391002A01DB079204E0524243F0020348
:10558000079204933B782E2B0ED17B782A2B07F1C0
:10559000010132D1039B1A1D1B680392002BB8BF77
:1055A0004FF0FF33023705932C4C39780322204605
:1055B000FAF72EFE38B14023001B03FA00F0049BDB
:1055C000034304930137397825488DF828100622C3
:1055D0007E1CFAF71DFE002835D0224BFBB9039B39
:1055E000073323F0070308330393099B4B440993C4
:1055F0006CE700FB02320121A3E700230593184664
:105600000A240F4601313A78303A092A03D9002B8F
:10561000CAD00590C8E704FB00200123F1E703ABE3
:1056200000932A46104B04A94046AFF30080B0F126
:10563000FF3F8146D9D1AB895B063FF538AF09986A
:105640001DB0BDE8F08F03AB00932A46064B04A9BA
:10565000404600F081F8EAE73C5C0008425C000844
:10566000465C000800000000CD5300082DE9F0471B
:1056700091461F468A680B69DDF820809342B8BFC7
:105680001346C9F8003091F8432006460C4612B183
:105690000133C9F800302368990642BFD9F80030B9
:1056A0000233C9F80030256815F0060507D104F16A
:1056B000190AE368D9F800209B1A9D4229DB94F867
:1056C00043302268003318BF012392062ED404F120
:1056D000430239463046C047013021D02368E5688F
:1056E000D9F8002003F00603042B08BFAD1AA36805
:1056F00022690CBF25EAE57500259342C4BF9B1AB9
:10570000ED184FF000091A344D451BD10020BDE8BB
:10571000F0870123524639463046C047013003D155
:105720004FF0FF30BDE8F0870135C2E7E1185A1CA1
:10573000302081F84300224494F8451082F8431049
:105740000233C4E70123224639463046C0470130C0
:10575000E6D009F10109D7E72DE9F04317460A7EA3
:1057600085B06E2A984606460C460C9B01F1430E06
:1057700000F0BC801AD8632A2ED00AD8002A00F084
:10578000C880582A00F08A8004F1420584F842203B
:105790002AE0642A01D0692AF6D121681A6811F03A
:1057A000800F23D0111D1960136827E0732A00F0C1
:1057B000B48008D86F2A2AD0702AE5D10A6842F04E
:1057C00020020A6003E0752A21D0782ADCD17822F1
:1057D00084F845206E4964E01A6801F14205111D04
:1057E0001960136884F842300123A3E011F0400FE0
:1057F00002F104011960D7D0B2F90030002B03DAAE
:105800002D225B4284F8432062490A2217E0206877
:10581000196810F0800F03D0081D18600B6806E0AF
:1058200010F0400F01F104001860F7D00B885949BF
:105830006F2A14BF0A220822002084F843006568FA
:10584000A560002DC0F29C80206820F0040020603C
:10585000002B3FD1002D40F095807546082A0BD1D2
:105860002368DA0708D5236962689A42DEBF3023CD
:1058700005F8013C05F1FF35AEEB05032361CDF8DA
:1058800000803B4603AA21463046FFF7EFFE013079
:1058900055D14FF0FF3005B0BDE8F08381F84520C9
:1058A0003C492268186812F0800F00F104051D6061
:1058B00001D0036802E05506FBD50388D00744BF3A
:1058C00042F0200222601BB9226822F020022260EE
:1058D0001022B1E77546B3FBF2F002FB1033CB5C4C
:1058E00005F8013D03460028F5D1B7E708681A68B6
:1058F000496910F0800F04D0101D186013681960FA
:1059000007E010F0400F02F1040018601368F6D0B1
:105910001980002323617546B1E71A68111D1960CB
:105920001568626800212846FAF772FC08B1401B2E
:10593000606063682361002384F843309FE7236934
:105940002A4639463046C0470130A2D023689B071B
:1059500007D5002504F11909E368039A9B1A9D42B3
:1059600005DBE068039B9842B8BF184693E7012324
:105970004A4639463046C04701308AD00135EBE708
:10598000002BA7D10B7884F8423004F1420565E77B
:105990005E5C00084D5C000810B5431E0A4491424D
:1059A00000D110BD11F8014B03F8014FF7E7884211
:1059B00010B501EB020303D8421E99420CD110BD71
:1059C0009842F9D28118D21AD34200D110BD13F8EF
:1059D000014D01F8014DF7E711F8014B02F8014FB5
:1059E000EBE7000038B50546002945D051F8043CE6
:1059F0000C1F002BB8BFE41800F0D6F81F4A13683C
:105A0000104633B9636014602846BDE8384000F0A2
:105A1000CCB8A3420CD921686218934204BF1A681B
:105A20005B68636004BF521822600460ECE71346B1
:105A30005A680AB1A242FAD919685818A0420BD183
:105A400020680144581882421960DDD110685268FC
:105A50005A6001441960D7E702D90C232B60D3E7C1
:105A6000206821188A4204BF11685268626004BF2E
:105A7000091821605C60C7E738BD00BFB80000208E
:105A800070B5CD1C25F0030508350C2D38BF0C254D
:105A9000002D064601DBA94203D90C233360002008
:105AA00070BD00F081F8234A1468214691B9224C58
:105AB00023681BB9304600F067F82060294630465D
:105AC00000F062F8431C26D10C233360304600F00E
:105AD0006CF8E4E70B685B1B1AD40B2B0FD90B6037
