:020000040800F2
:1000000000000220112A000875290008772900083D
:10001000792900087B2900087D29000800000000DC
:100020000000000000000000000000007F29000820
:1000300081290008000000008329000885290008A4
:10004000612A0008612A0008612A0008612A000864
:10005000612A0008612A0008612A0008892900082D
:10006000612A0008612A0008612A0008612A000844
:10007000612A0008612A0008612A0008612A000834
:10008000612A0008612A0008612A0008612A000824
:10009000612A0008612A0008612A000891290008E5
:1000A000612A0008612A0008612A0008612A000804
:1000B000612A0008612A0008612A0008612A0008F4
:1000C000612A0008612A0008612A0008612A0008E4
:1000D000612A0008612A0008612A0008612A0008D4
:1000E000B1290008B9290008612A0008612A00081E
:1000F000612A0008612A0008612A0008612A0008B4
:10010000612A0008612A0008612A0008612A0008A3
:10011000612A0008612A0008612A0008612A000893
:10012000612A0008612A0008612A0008612A000883
:10013000612A00080000000000000000612A000899
:10014000612A0008612A0008612A0008612A000863
:10015000612A0008612A0008612A0008612A000853
:10016000612A0008612A0008612A0008612A000843
:10017000612A0008612A0008612A000800000000C6
:1001800000000000612A00080000000000000000DC
:10019000612A00080000000000000000612A000839
:1001A000000000000000000000000000612A0008BC
:1001B000612A0008612A0008612A0008612A0008F3
:0401C000612A0008A8
:1001C40010B5054C237833B9044B13B10448AFF38D
:1001D40000800123237010BD0C00002000000000EB
:1001E400BC2A000808B5034B1BB103490348AFF30D
:1001F400008008BD0000000010000020BC2A000898
:1002040053B94AB9002908BF00281CBF4FF0FF3179
:100214004FF0FF3000F07AB9ADF1080C6DE904CE6F
:1002240000F006F8DDF804E0DDE9022304B07047CD
:100234002DE9F0478C460D460446089E002B51D10B
:100244008A4217466DD9B2FA82FEBEF1000F0BD076
:10025400CEF1200C01FA0EF520FA0CFC02FA0EF78E
:100264004CEA050C00FA0EF44FEA174A250CBCFBC5
:10027400FAF81FFA87F90AFB18CC45EA0C4508FB83
:1002840009F3AB420AD9ED1908F1FF3280F023815A
:10029400AB4240F22081A8F102083D44ED1AA4B219
:1002A400B5FBFAF00AFB105544EA054400FB09F9D2
:1002B400A14509D9E41900F1FF3380F00A81A14571
:1002C40040F2078102383C44A4EB090440EA0840A8
:1002D4000021002E61D024FA0EF4002334607360F0
:1002E400BDE8F0878B4207D9002E54D0002186E860
:1002F40021000846BDE8F087B3FA83F1002940F0F5
:100304008E80AB4202D3824200F2FA80841A65EBFB
:1003140003050120AC46002E3FD086E81010BDE84E
:10032400F08712B90127B7FBF2F7B7FA87FEBEF1DF
:10033400000F34D1EB1B3A0C1FFA87FC0121B3FBED
:10034400F2F8250C02FB183345EA03450CFB08F3CD
:10035400AB4207D9ED1908F1FF3002D2AB4200F2EB
:10036400D1808046ED1AA3B2B5FBF2F002FB105522
:1003740043EA05440CFB00FCA44507D9E41900F149
:10038400FF3302D2A44500F2B8801846A4EB0C0453
:1003940040EA08409DE731463046BDE8F087CEF19B
:1003A400200405FA0EF307FA0EF720FA04F83A0CC3
:1003B40025FA04F448EA0308B4FBF2F14FEA1845BD
:1003C40002FB11441FFA87FC45EA044501FB0CF3C8
:1003D400AB4200FA0EF409D9ED1901F1FF3080F0B7
:1003E4008A80AB4240F2878002393D44EB1A1FFAFF
:1003F40088F5B3FBF2F002FB103345EA034500FB3A
:100404000CF3AB4207D9ED1900F1FF386FD2AB42C0
:100414006DD902383D44EB1A40EA01418FE7C1F13E
:10042400200722FA07F88B4005FA01F448EA03038F
:1004340020FA07FE4FEA134CFD404EEA040EB5FBCA
:10044400FCF94FEA1E440CFB19551FFA83F844EAE1
:10045400054509FB08F4AC4202FA01F200FA01FA7C
:1004640008D9ED1809F1FF3043D2AC4241D9A9F1C2
:1004740002091D442D1B1FFA8EFEB5FBFCF00CFB7C
:1004840010554EEA054400FB08F8A04507D9E418C6
:1004940000F1FF3529D2A04527D902381C4440EA8F
:1004A4000940A4EB0804A0FB02894C45C6464D460E
:1004B40015D312D056B1BAEB0E0364EB050404FA5B
:1004C40007F7CB401F43CC40376074600021BDE880
:1004D400F0871846F8E69046E0E6C245EAD2B8EB63
:1004E400020E69EB03050138E4E72846D7E74046E6
:1004F40091E78146BEE7014678E702383C4445E788
:10050400084608E7A8F102083D442BE7704700BFFE
:1005140038B50E4A0E4B054618784FF47A73B3FB80
:10052400F0F31068B0FBF3F000F0A8F8044658B9F3
:100534000F2D09D8024629464FF0FF3000F05EF82F
:10054400044B20461D6038BD012038BD0800002042
:10055400000000200400002008B50B4B1A6842F488
:1005640000721A601A6842F480621A601A6842F4CF
:1005740080721A60032000F02FF80020FFF7C8FFF4
:1005840002F088F8002008BD003C0240034A044BF6
:1005940011681B780B441360704700BF28000020CB
:1005A40000000020014B1868704700BF280000209D
:1005B40038B50446FFF7F6FF631C1CBF054B1B78D8
:1005C400054618BFE418FFF7EDFF401B8442FAD834
:1005D40038BD00BF00000020074AD36823F4E0635D
:1005E4001B041B0C43F0BF63000243F4003300F40C
:1005F400E0600343D360704700ED00E0174B30B573
:10060400DC68C4F30224C4F10703251D042B28BFAE
:100614000423062D4FF0010505FA03F303F1FF331C
:100624008CBF033C00241940A14005FA04F4013CAA
:100634002240002842EA01024FEA0212AFBF00F151
:10064400604000F00F00064BD2B2A5BF00F5614038
:10065400D2B21A5480F8002330BD00BF00ED00E090
:1006640014ED00E04209012300F01F0003FA00F03A
:10067400014B43F82200704700E100E00138B0F17B
:10068400807F0AD2064B074A5860F02182F8231073
:100694000020072298601A6070470120704700BF4D
:1006A40010E000E000ED00E02DE9F04F85B00B68AC
:1006B400DFF8A081654ADFF8A091019300234FF091
:1006C400010E019C0EFA03FE0EEA0406B64540F044
:1006D400AA804C6824F01007022F16D14FEAD30ADF
:1006E40000EB8A0A03F0070BDAF820504FEA8B0B71
:1006F4004FF00F0C0CFA0BFC25EA0C0C0D6905FAF3
:100704000BF545EA0C05CAF820504FEA430A0325C5
:10071400D0F800B005FA0AF5ED4304F0030C0BEA37
:10072400050B0CFA0AFC013F4CEA0B0C012FC0F834
:1007340000C011D8876807EA050BCF6807FA0AFCDE
:100744004CEA0B078760476827EA0E0EC4F30017CC
:100754009F4047EA0E074760C7683D408F6807FA25
:100764000AF73D43C560E5005DD54FF0000BCDF8B9
:100774000CB0D8F84470364D47F48047C8F844703C
:10078400D8F8447007F480470397039F23F00307C6
:1007940007F1804707F59C3703F0030CD7F808A04E
:1007A4004FEA8C0C4FF00F0E0EFA0CFEA8422AEA08
:1007B4000E0E3FD005F58065A8423DD005F5806555
:1007C400A8423BD005F58065A84239D005F580657F
:1007D400A84237D0484537D005F50065A84214BF74
:1007E4000725062505FA0CF545EA0E05BD601568D2
:1007F400F74314F4803F0CBF3D4035431560556802
:1008040014F4003F0CBF3D4035435560956814F423
:10081400801F0CBF3D4035439560D568A40254BF8A
:100824003D403543D5600133102B7FF448AF05B00C
:10083400BDE8F08F5D46D5E70125D3E70225D1E772
:100844000325CFE70425CDE70525CBE7003C014090
:100854000000024000380240001402400AB18161E5
:1008640070470904FBE7704708B5044B5969014216
:1008740002D05861FFF7F7FF08BD00BF003C0140FC
:100884000268536913F480630DD06FF4806353617D
:100894000423036420220023036380F83C3080F89F
:1008A4003D2001207047184670472DE9F84304465F
:1008B40017469946C1F307488EB22568B8F1010F6F
:1008C4000CBF6B69AB6936EA030314BF0120002037
:1008D40008B9BDE8F8836B695A0512D52B6843F44F
:1008E40000732B606FF480636B6104232364202204
:1008F4000023236384F83C3084F83D200120BDE8C4
:10090400F8837B1CD9D04FB900232022236384F8B9
:100914003C3084F83D200320BDE8F883FFF742FE15
:10092400A0EB09008742C8D2EEE72DE9F843089E00
:10093400044690461F46C1F307498DB22368B9F1B6
:10094400010F0CBF5B699B6935EA03030CBF0123EC
:100954000023434502D00020BDE8F8837B1CEDD082
:100964005FB900232022236384F83C3084F83D20BF
:10097400032084F83E30BDE8F883FFF713FE801BA4
:100984008742DBD2EDE770B504460D461646236870
:100994005B691B0601D5002070BD2046FFF770FF80
:1009A400A8B96A1CF3D065B9236C43F0200323640F
:1009B40020220023236384F83C3084F83D20032064
:1009C40070BDFFF7EFFD801B8542E0D2ECE701200C
:1009D40070BD70B504460D46164623685B695B0717
:1009E40001D5002070BD2046FFF74AFFA8B96A1C54
:1009F400F3D065B9236C43F0200323642022002341
:100A0400236384F83C3084F83D20032070BDFFF755
:100A1400C9FD801B8542E0D2ECE7012070BD0000D7
:100A240070B50446002862D090F83D3003F0FF0210
:100A34001BB980F83C2001F04DFE22682D4E2E4D4E
:100A4400242384F83D30136823F00103136000F07D
:100A5400C5F963682268B0FBF5F5B34284BF4FF46F
:100A640096716943556091BF691C4FF47A75B1FB67
:100A7400F5F10131B342116221D85B00B0FBF3F010
:100A8400C0F30B03032B98BF0420216AE369D061F0
:100A94000B431360E16823690B439360A1696369A5
:100AA4000B43D360136843F0010313600020202339
:100AB400206484F83D30206384F83E0070BDA16852
:100AC40049B903EB4303B0FBF3F0C0F30B0363B189
:100AD40040F40040D9E719214B43B0FBF3F0C0F3D5
:100AE4000B0313B140F44040CFE70120CDE70120D0
:100AF40070BD00BFA086010040420F002DE9FF41F8
:100B040004461F460D469046FFF74CFD94F83D30D1
:100B1400202B064604D00225284604B0BDE8F08107
:100B24000090192301225D492046FFF7FEFE0028AC
:100B3400F1D194F83C30012BEDD0012384F83C3002
:100B440023681A68D2075EBF1A6842F001021A606D
:100B54001A6822F400621A60212284F83D201022CF
:100B640084F83E2000222264A2F580326785E26286
:100B7400628D2285E26AC4F82480042A04D0012A02
:100B840002D012F5803F04D11A6842F480721A60D0
:100B940002E0226B122AF7D000960A9B00224FF043
:100BA40001112046FFF7C1FE28BB23692268B3F573
:100BB400804F12D105F0FE05156133460A9A384973
:100BC4002046FFF772FE0546A0B9236803905A69D0
:100BD40003929B690393039B50E0EB1103F006031C
:100BE40043F0F00313612F490A9A33462046FFF776
:100BF4005CFE48B1236C236C042B4FF0000307D137
:100C040084F83C30012587E72368EDB21D61D4E701
:100C140084F83C3003257FE732460A992046FFF7E3
:100C2400B2FE40B1236C042BF4D12268136843F460
:100C340000731360E6E7616A2068228D4B1C6362CF
:100C44000B780361638D013B9BB263854769531E37
:100C54009BB27F0723850AD54BB18B1C63624B780B
:100C64000361638D013B9BB2023A63852285324660
:100C74000A992046FFF7ADFE0028D3D1238D002B1F
:100C8400CAD121680A6842F400720A60202284F8FA
:100C94003D2084F83C3084F83E303DE702001000EB
:100CA40002000100080001002DE9F0410D46044650
:100CB40010B90120BDE8F081444B1A6802F00F021C
:100CC4008A4228D321688F072DD4C80740D43F4BCC
:100CD4001A6802F00F02954266D3226851076CD459
:100CE400130707D53A4A2169936823F4604343EA1A
:100CF400C103936000F09AFA354B364A9B68C3F3FC
:100D04000313D35CD840344B18600020FFF700FC79
:100D14000020BDE8F081CAB21A701B6803F00F030B
:100D24009942C6D1CEE72A4B11F0040F1EBF9A6830
:100D340042F4E0529A600E0742BF9A6842F460425D
:100D44009A609A68A06822F0F00202439A60BCE7B5
:100D540062681F4B012A1DD11B6813F4003FA8D001
:100D64001B4EB36823F003031343B360FFF71AFC6D
:100D740041F288380746B368626803F00C03B3EBAA
:100D8400820FA4D0FFF70EFCC01B4045F3D903200B
:100D9400BDE8F081911E01291B6802D813F0007F81
:100DA400DDE713F0020FDAE7EAB21A701B6803F00A
:100DB4000F039D427FF47DAF8FE70549E0688B68A0
:100DC40023F4E05303438B608AE700BF003C0240F6
:100DD40000380240D42A000808000020044B054AC9
:100DE4009B68C3F38223D35C034A1068D8407047DE
:100DF40000380240E42A000808000020044B054A99
:100E04009B68C3F34233D35C034A1068D8407047ED
:100E140000380240E42A00080800002003682DE995
:100E2400F74313F0010604460BD0AA49866BD1F8A8
:100E34008C2022F0C0623243B6FA86F6C1F88C20C8
:100E440076099D070BD5A348E16BD0F88C2022F0DE
:100E5400C0520A430029C0F88C2008BF012613F0B1
:100E6400040512D09B49256BD1F88C20B5F5801F61
:100E740022F4401242EA050218BFB5FA85F5C1F81A
:100E84008C2012BF6D090025012618070FD5914843
:100E9400616BD0F88C2022F440020A43B1F5800F34
:100EA400C0F88C2000F00981002908BF01259906AB
:100EB40033D500230193874B874F1A6C42F080523D
:100EC4001A641B6C03F080530193019B3B6843F449
:100ED40080733B60FFF766FB80463B68DA0540F1B0
:100EE400EE807C4F3B6F13F4407340F0FB80236C27
:100EF40003F44072B2F5407F764A40F0168191685F
:100F040023F0704021F4F81120F440700143916003
:100F1400116FC3F30B030B4313672368D90642BF56
:100F24006E4B94F858201A6023681A0608D569494C
:100F3400E06CD1F8942022F440020243C1F89420DA
:100F44005F0608D56349A06CD1F8942022F0806232
:100F54000243C1F89420D8050CD55E48616DD0F8E1
:100F6400942022F000620A43B1F1006FC0F894208B
:100F740008BF0125990508D55649606CD1F894201D
:100F840022F080520243C1F894205A0500F1D18026
:100F9400012E40F0DC80524E4E4F00233360FFF7A9
:100FA40001FB80463B681B0100F125812268D007C4
:100FB40001D5A36B1BB1910715D5E36B9BB94549CB
:100FC400D1F88430D1F8840003F4403300F0706029
:100FD400034360680343A06843EA8013606943EAFB
:100FE4000073C1F88430530703D5236BB3F5801F16
:100FF40005D0170720D5636BB3F5800F1CD1354995
:10100400D1F88430D1F8840003F4403300F0E04098
:10101400034360680343A06843EA8013206943EAFA
:101024000063C1F88430D1F88C00A36A20F01F005B
:10103400013B0343C1F88C3050051BD5236DB3F13C
:10104400005F17D123486768D0F88410D0F8843043
:1010540003F0E0433B43A768C1F30141013143EA94
:10106400871343EA4163E1684908013943EA0143CC
:10107400C0F88430110511D52369A2681B0643EA20
:10108400821362681343626943EA0273E268520896
:10109400013A43EA02430F4AC2F884300123336021
:1010A400FFF780FA0B4E074633681A0153D4FFF753
:1010B40079FAC01B0228F7D908E00126F7E6FFF702
:1010C40071FAA0EB080002287FF607AF032003B0F3
:1010D400BDE8F0830038024000700040E011474250
:1010E40068004742226C02F4407293423FF4FFAE20
:1010F4003B6F4B4A0121116023F4407300211160BE
:101104003B673B6FDB077FF5F2AEFFF74BFA41F22B
:10111400883980463B6F98073FF5E9AEFFF742FAFE
:10112400A0EB08004845F5D9D0E7916821F4F811FF
:10113400EDE63C48216DD0F8942022F000520A4399
:10114400B1F1005FC0F894207FF422AF23E7B3F538
:10115400006F3FF420AF012D4BD1334D314E0023AE
:101164002B60FFF71FFA074633689B004BD42168B6
:101174004E0701D5236B1BB108071AD5636BC3B99E
:10118400284AA069D2F8883003F440330343E06965
:1011940043EA8013606A43EA0063C2F88830D2F8F5
:1011A4008C30E06A23F4F853013843EA0023C2F890
:1011B4008C30CA0514D5636DB3F1006F10D1194991
:1011C400A269D1F8883003F070631343E26943EAFB
:1011D4008213226A5208013A43EA0243C1F8883072
:1011E40001232B60FFF7DEF90E4C054623689B00B4
:1011F4000FD500206BE7FFF7D5F9A0EB0800022814
:101204007FF6D0AE62E7FFF7CDF9C01B0228ABD959
:101214005CE7FFF7C7F9401B0228E7D956E700BF90
:10122400400E47420038024070004742204908B54A
:101234008B6803F00C03082B07D00C2B20D01D4A1D
:101244001D48042B18BF104608BD4A684B684968FE
:1012540013F4800314BF18481648C1F3881118BF4B
:10126400002302F03F02A1FB0001FEF7C9FF104B6F
:101274005B68C3F3014301335B00B0FBF3F008BDCB
:101284004A684B68496813F4800314BF0A48094844
:10129400C1F3881118BF002302F03F02A1FB000133
:1012A400FEF7AEFF024B5B68C3F30273E5E700BFD2
:1012B400003802400024F40000127A0003682DE98B
:1012C400F341DF07044610D423689E0767D42368DC
:1012D4001A0700F1B28023685B0700F1D080A2698D
:1012E400002A40F0398100201EE0974B9A6802F0F2
:1012F4000C02042A10D09A6802F00C02082A02D1C7
:101304005B685D0208D4904B9A6802F00C020C2AC8
:101314000DD15A6850020AD58B4B1B689903D3D55B
:101324006368002BD0D1012002B0BDE8F08162686F
:10133400B2F5803F11D11A6842F480321A60FFF787
:1013440031F9814D06462B689A03BDD4FFF72AF97B
:10135400801B6428F7D90320E6E77B4DB2F5A02F64
:101364002B6807D143F480232B602B6843F480332C
:101374002B60E4E723F480332B602B6823F4802371
:101384002B60002ADBD1FFF70DF906462B689B037F
:101394009AD5FFF707F9801B6428F7D9DBE76A4B76
:1013A4009A6812F00C0F10D09A6802F00C02082A06
:1013B40002D15B685F0208D5634A936803F00C03AB
:1013C4000C2B11D153685E020ED45F4B1A6895073B
:1013D40002D5E268012AA6D11A68216922F0F8022E
:1013E40042EAC1021A6072E7E268584BB2B10122C4
:1013F4001A60FFF7D7F8544D06462B68980707D5AF
:101404002B68226923F0F80343EAC2032B605EE7EA
:10141400FFF7C8F8801B0228EFD99CE71A60FFF792
:10142400C1F8494D06462B6899077FF550AFFFF781
:10143400B9F8801B0228F6D98DE76269444B7AB16A
:1014440001221A60FFF7AEF83F4D06466B6F9F0707
:101454003FF541AFFFF7A6F8801B0228F6D97AE7DB
:101464001A60FFF79FF8384D06466B6F98077FF5B3
:1014740032AFFFF797F8801B0228F6D96BE7324B9F
:101484001A6C12F0805228D101921A6C42F08052E8
:101494001A641B6C03F080530193019B01262D4DAC
:1014A4002B68D9051BD5A368274D012B27D12B6F9A
:1014B40043F001032B67FFF775F8234D074641F20C
:1014C40088382B6F9B0739D5002E3FF408AF1E4A8E
:1014D400136C23F08053136401E70026DFE72B68C5
:1014E40043F480732B60FFF75DF807462B68DA0539
:1014F400D9D4FFF757F8C01B0228F7D92BE7052BDF
:1015040004D12B6F43F004032B67D0E72A6F22F03A
:1015140001022A672A6F22F004022A67002BCAD12B
:10152400FFF740F841F2883807462B6F9807CBD570
:10153400FFF738F8C01B4045F7D90CE7FFF732F83E
:10154400C01B4045BDD906E70038024000004742B1
:10155400800E474200700040234DAB6803F00C033B
:10156400082B3FF4E0AE214E0023022A33602DD134
:10157400FFF718F807462B68990121D4226AE3691A
:101584001343626A43EA8213E26A43EA0263226B08
:1015940043EA0273A26A144C5208013A43EA024332
:1015A4006B6001233360FEF7FDFF054623689A0153
:1015B4003FF599AEFEF7F6FF401B0228F6D9CAE6BE
:1015C400FEF7F0FFC01B0228D5D9C4E6FEF7EAFFF8
:1015D40004462B689B017FF586AEFEF7E3FF001BF4
:1015E4000228F6D9B7E600BF00380240600047423F
:1015F400704700000368DA68D20510B504460AD5BE
:101604009B68D90407D5FFF7F3FF2268D368DBB2E0
:1016140063F4C073D3602368DA6892050BD59B68C2
:101624009B0408D5204600F01BFA2268D368DBB27D
:1016340063F42073D360034B4FF400325A610123E7
:10164400637710BD003C0140026838B5D36823F0CD
:10165400A003D3600446FEF7A5FF05462368DB68B4
:101664009B0601D5002038BDFEF79CFF401BB0F55A
:101674007A7FF3D9032038BD38B50368DA68520697
:10168400044601D5002038BD4FF0FF32DA60FEF782
:1016940089FF05462368DB685B06F3D4FEF782FF07
:1016A400401BB0F57A7FF5D9032038BD38B5044620
:1016B400B8B1437F03F0FF0213B9027701F044F895
:1016C400022363772368CA225A6253225A6220464D
:1016D400FFF7D2FF2368054628B1FF225A6204238C
:1016E400637701252EE09A68206922F4E00222F053
:1016F40040029A60626899680243606902430A433F
:101704009A60E2681A611A69A16842EA01421A61A0
:10171400DA6822F08002DA609B689B0605D42046D2
:10172400FFF792FF08B12368D7E72368A1691A6C11
:1017340022F480221A641A6C0A431A64FF225A6241
:1017440001236377284638BD0023092803D840EADB
:101754000310C0B270470A380133C0B2F5E7F8B5D8
:10176400037F012B05464FF0020630D00123037797
:1017740046774B78C8788E780C78002A48D1DA06F8
:1017840003D523F010030A334B70FFF7DDFF074640
:101794004878FFF7D9FF02463046FFF7D5FF40EA05
:1017A400443040EA074040EA02242B68CA225A62C5
:1017B40053225A622846FFF75FFF2B68064640B162
:1017C400FF225A6204236B7700232B7701263046CD
:1017D400F8BD24F07F4424F0C0045C60DA6822F091
:1017E4008002DA609B689B060AD42846FFF72CFF28
:1017F40030B12B68FF225A6204236B772E77E5E71A
:101804002B68FF225A6201236B7700232B77DEE7D4
:101814001B0243EA0040304340EA4434C5E7F8B5CC
:10182400037F012B06460F464FF002052FD00123FC
:1018340003770368457708784D788C789B6842BBBA
:1018440013F0400308BFCB70FFF77EFF0146284624
:10185400FFF77AFF02462046FFF776FFFB7840EA5F
:10186400034040EA014040EA02243368CA225A6233
:1018740053225A623046FFF7FFFE33680546A8B18B
:10188400FF225A6204237377002333770125284605
:10189400F8BD13F040034FEA052508BFCB7045EAB5
:1018A40000402043CC7840EA0444DEE704F07F346F
:1018B40024F0FE441C609A68386922F480229A60FD
:1018C400FA68996802430A439A60DA6822F080024F
:1018D400DA609B689B060AD43046FFF7B5FE30B148
:1018E4003368FF225A62042373773577CEE733686F
:1018F400FF225A620123737700233377C7E700007E
:101904002DE9F347544B05461B684FF4FA40B3FBEB
:10191400F0F04FF47A73434301932B7F012B4FF084
:1019240002004BD001232B7768772B6808784F7817
:1019340091F8028091F82060CC69D1F814A0002AB3
:101944003FD19B6813F0400308BFCB70FFF7FCFE48
:1019540081463846FFF7F8FE02464046FFF7F4FE9C
:1019640007463046FFF7F0FECB7844EA0A0444EA1F
:1019740003433B4343EA094343EA022343EA006047
:101984008B694C681C432B68CA225A6253225A62E0
:101994004A6AB2F5807F9A6843D122F480729A60D1
:1019A400DA68D2B262F4C072DA60019A511E01910F
:1019B400D2B9FF210320596268772A7702B0BDE8C3
:1019C400F0879A6844EA0A0412F0400208BFCA7019
:1019D40044EA080444EA0040CB7840EA072040EA9D
:1019E400034040EA0660CBE7DA68D107DDD5D86169
:1019F4005C649A6842F480729A609A6842F48052F5
:101A04009A60164A116841F400311160916841F4FA
:101A140000319160FF225A62002001236B772877FE
:101A2400CCE722F400729A60DA68D2B262F42072CF
:101A3400DA60019A511E0191002ABAD0DA6892073D
:101A4400F7D518629C649A6842F400729A609A68A6
:101A540042F40052D4E700BF08000020003C0140DB
:101A640070470000036A23F001030362036A4268BB
:101A740070B584690D6824F0730425438C6823F0E1
:101A8400020323430C4CA04209D004F58064A04215
:101A940005D042604A6885614263036270BDCC68C8
:101AA4008E6923F0080323434C6922F440723443C3
:101AB40023F004032243ECE700000140036A23F40B
:101AC40080730362036A426870B5C4690D6824F0C8
:101AD400730425438C6823F4007343EA04230E4CF7
:101AE400A04209D004F58064A04205D042604A684F
:101AF400C561C263036270BDCC688E6923F4006360
:101B040043EA04234C6922F44052344323F48063AF
:101B140042EA0412EAE700BF00000140036A23F42A
:101B24008053036230B5046A4368C2690D6822F4C5
:101B3400E64242EA05228D6824F4005444EA05345E
:101B4400094DA84209D005F58065A84205D0436037
:101B54004B68C2610364046230BD4D6923F4804361
:101B640043EA8513F3E700BF000001402E4A0368EF
:101B7400904212D0B0F1804F0FD0A2F57C42904237
:101B84000BD002F58062904207D002F58062904249
:101B940003D002F5784290421DD14A6823F07003C5
:101BA4001343214A904204D1CA6823F44073134377
:101BB40028E0B0F1804FF7D01C4A9042F4D002F5EF
:101BC40080629042F0D002F580629042ECD002F53F
:101BD40078429042E8D0164A9042E5D002F58062FD
:101BE4009042E1D002F580629042DDD0A2F59832B5
:101BF4009042D9D002F580629042D5D002F580623D
:101C04009042D1D003608B68C3620B688362064B39
:101C1400984206D003F58063984202D001234361C1
:101C240070470B690363F9E70000014000040040BA
:101C34000040014010B50446A0B190F8393003F0DB
:101C4400FF021BB980F8382000F096FD022384F8C7
:101C540039302068211DFFF789FF012384F83930CA
:101C6400002010BD012010BD036A23F0100303629D
:101C7400036A426870B584690D6824F4E64444EA52
:101C840005258C6823F0200343EA04130D4CA0427D
:101C940009D004F58064A04205D042604A68856199
:101CA4008263036270BDCC688E6923F0800343EACB
:101CB40004134C6922F44062344323F0400342EAA3
:101CC4008402EAE70000014038B590F83830012B6F
:101CD40004464FF0020025D0012384F8383084F8FC
:101CE40039000C2A18D8DFE802F0071717171E1757
:101CF40017172F17171740002068FFF7B3FE236844
:101D040009699A6942F008029A619A6922F0040208
:101D14009A619A690A439A610123002084F8393050
:101D240084F8380038BD2068FFF79EFF23680969EE
:101D34009A6942F400629A619A6922F480629A6113
:101D44009A6942EA0122E6E72068FFF7B7FE2368B2
:101D54000969DA6942F00802DA61DA6922F00402F8
:101D6400DA61DA690A43DA61D6E72068FFF7D6FE5A
:101D740023680969DA6942F40062DA61DA6922F4F3
:101D84008062DA61DA6942EA0122ECE7036A10B59B
:101D940001248C4023EA04030362036A8A401A4341
:101DA400026210BD10B5044601220068FFF7EEFF81
:101DB4002368084A934203D002F58062934203D118
:101DC4005A6C42F400425A641A6842F001021A60E2
:101DD400002010BD0000014090F83830012B10B5F0
:101DE4004FF0020318D080F8393003680C685A6841
:101DF400496822F070025A605A6822435A609A680D
:101E040022F080029A609A680A439A60012380F85B
:101E14003930002380F83830184610BD90F8383037
:101E2400012B1FD0CB688A6823F4407313434A689C
:101E340023F4806313430A6823F4006313430A6999
:101E440023F4805313434A6923F4005313438A69E8
:101E540023F44043134302685364002380F838306A
:101E640018467047022070472DE9F0470668C2689B
:101E74003369C16923F440531343336104468368CF
:101E84000069F2680343606922F41642034322F0B6
:101E94000C020B431343F3607369A26923F4407388
:101EA4001343B1F5004F73617A4B7CD19E4203D04A
:101EB40003F580639E4244D1FEF7A0FF192505FB7C
:101EC40000F360684FF064094000B3FBF0F3B3FB28
:101ED400F9F34FEA0318FEF791FF636868435B0068
:101EE400B0FBF3F7FEF78AFF636868435B00B0FB5F
:101EF400F3F3B3FBF9F309FB1373DB003233B3FBE6
:101F0400F9F35B0003F4F877FEF778FF626868433F
:101F14005200B0FBF2FAFEF771FF636868435B009E
:101F2400B0FBF3F3B3FBF9F309FB13A3DB00323388
:101F3400B3FBF9F303F0070343443B44B360BDE848
:101F4400F087FEF74BFF192505FB00F360684FF09F
:101F540064094000B3FBF0F3B3FBF9F34FEA031851
:101F6400FEF73CFF636868435B00B0FBF3F7FEF7E2
:101F740035FF636868435B00B0FBF3F3B3FBF9F32D
:101F840009FB1373DB003233B3FBF9F35B0003F497
:101F9400F877FEF723FF626868435200B0FBF2FA59
:101FA400FEF71CFFB9E79E4202D03B4B9E4240D154
:101FB400FEF724FF676819254FF0640905FB00F359
:101FC400BF00B3FBF7F3B3FBF9F31F01FEF716FFF2
:101FD400636868439B00B0FBF3F8FEF70FFF636888
:101FE40068439B00B0FBF3F3B3FBF9F309FB1383E2
:101FF4001B013233B3FBF9F303F0F008FEF7FEFEE6
:10200400626868439200B0FBF2FAFEF7F7FE636879
:1020140068439B00B0FBF3F3B3FBF9F309FB13A391
:102024001B013233B3FBF9F303F00F0343EA080354
:1020340083E7FEF7D3FE676819254FF0640905FBB3
:1020440000F3BF00B3FBF7F3B3FBF9F31F01FEF793
:10205400C5FE636868439B00B0FBF3F8FEF7BEFE61
:10206400636868439B00B0FBF3F3B3FBF9F309FB2C
:1020740013831B013233B3FBF9F303F0F008FEF7CB
:10208400ADFE626868439200B0FBF2FAFEF7A6FE6A
:10209400BDE700BF001001400014014010B5044624
:1020A40040B390F8393003F0FF021BB980F83820B0
:1020B40000F026FC2268242384F83930D36823F402
:1020C4000053D3602046FFF7CFFE23681A6922F439
:1020D40090421A615A6922F02A025A61DA6842F47B
:1020E4000052DA6000202023E06384F8393084F859
:1020F4003A3010BD012010BD1FB500F0F0030001FF
:1021040043F00C02C0B243F008038DF80D3040F0E8
:102114000C038DF80E3040F0080064238DF80C2079
:102124008DF80F00009303AA04234E210248FEF702
:10213400E5FC05B05DF804FBB800002008B50220FA
:10214400FFF7DAFF2820FFF7D7FF0C20FFF7D4FFB3
:102154008020BDE80840FFF7CFBF000070B5002421
:102164008AB0214606461C2203A8154D0194029408
:1021740000F09AFC134AAC604FF4527385E80C00EB
:1021840028466423EB602C61FFF754FD01A928461F
:1021940001940294FFF720FE6023224603A92846F7
:1021A4000393049605940794FFF78EFD2146284671
:1021B400FFF7F8FD284600F02BFB0AB070BD00BF06
:1021C4007C0000200008004070B500258AB0294634
:1021D40006461C2203A8154C0195029500F064FCE8
:1021E400134AA5604FF4527384E80C00204664231C
:1021F400E3602561FFF71EFD01A9204601950295C4
:10220400FFF7EAFD6023042203A920460393049602
:1022140005950795FFF758FD04212046FFF7C2FDF9
:10222400204600F0F5FA0AB070BD00BF0C01002092
:102234000004004070B500248AB0164D01941C229D
:102244002146064603A8029400F02EFC4FF080437A
:10225400284685E81800AC60EC602C61FFF7EAFCC6
:1022640001A9284601940294FFF7B6FD60230822D1
:1022740003A928460393049605940794FFF724FDC5
:1022840008212846FFF78EFD284600F0C1FA0AB05F
:1022940070BD00BF6801002070B5002490B01C25FB
:1022A40006462A46214602A80094019400F0FCFB4D
:1022B40021462A4609A81C4D00F0F6FB1B4AAC60D7
:1022C4004FF4527385E80C0028466423EB602C61BC
:1022D4006C61FFF7AFFC6946284600940194FFF750
:1022E4007BFD0422602302A92846029303960494EA
:1022F4000594069407940894FFF7E6FC4FF4005302
:1023040009A928460E9309940A940B940C940D94ED
:102314000F94FFF783FD04212846FFF743FD284669
:1023240000F076FA10B070BD4000002000040140B7
:1023340030B5ADB03422002108A800F0B5FB14225A
:10234400002103A800F0B0FB00215C2215A800F0D6
:10235400ABFB0025214B01951A6C42F080521A64A4
:102364001B6C1F4A03F080530193019B0295136871
:1023740023F4404343F48043136013680F9503F43C
:1023840040430293029B0623089301230A930B9371
:1023940010230C9310934FF4A8730224119308A8EC
:1023A400042312930E9413941494FEF787FF0F23BF
:1023B400039321464FF4805303A806930494059590
:1023C4000795FEF771FC2023159315A84FF480732D
:1023D4002593FEF723FD2DB030BD00BF0038024029
:1023E4000070004038B50D461446FFF7B7FE284686
:1023F400FFF7EAFE2046BDE83840FFF74DBF000076
:1024040080B596B0FEF7A8F8FFF792FF14220021DA
:102414000CA8002400F048FB914B03941A6B9148DC
:10242400914D924E42F004021A631A6B02F00402B8
:102434000392039A04941A6B42F080021A631A6B93
:1024440002F080020492049A05941A6B42F001028D
:102454001A631A6B02F001020592059A06941A6B2C
:1024640042F002021A631B6B03F002030693224636
:102474006021069BFEF7F2F9224620217C48FEF7F4
:10248400EDF94FF400530C930CA97A4B7A480D9351
:102494000E94FEF709F902230CA977480C9301273F
:1024A4000D950E94FEF700F960230CA96D480C936A
:1024B4000D970E940F94FEF7F7F84FF440730CA9A0
:1024C40068480C930D950E97FEF7EEF820230CA99F
:1024D40067480C930D970E940F94FEF7E5F8224687
:1024E40021460720FEF78AF80720FEF7BBF82246AC
:1024F40021461720FEF782F81720FEF7B3F821468D
:1025040022462820FEF77AF82820FEF7ABF85B482D
:102514005B4A5C4D84604FF4E13380E80C000C238B
:102524004361C46004618461C461FFF7B7FD564927
:10253400564BAC6085E80A0028464FF480432B6173
:10254400EC606C61AC61EC612C62FEF769FA2046C8
:10255400FFF704FE2046FFF737FE2046FFF79CFEF8
:102564002046FFF767FE1422214607A800F09CFAD4
:10257400282221460CA8029400F096FA444B3461B8
:1025840086E818007F23B3603046FF23F36074614C
:10259400B461FFF78BF83A4607A930468DF81C4022
:1025A4008DF81D408DF81E400A940B94FFF737F9FF
:1025B40018233A4602A930468DF80B308DF808707E
:1025C4008DF809708DF80A70FFF7C9F84FF480731D
:1025D4003A460CA9304615938DF830408DF83140B9
:1025E4008DF832400D940F94109411941294139416
:1025F4008DF85070FFF784F9FFF7A0FD3220FDF746
:10260400D7FF0A240F238DF830300CAA01234E2162
:1026140000942846FEF772FA0C238DF830300CAA89
:1026240001234E2100942846FEF768FA0022114641
:102634001920FFF7D7FE4FF47A70FDF7B9FF002297
:1026440011464B20FFF7CEFE4FF47A70FDF7B0FF32
:10265400002264201146FFF7C5FE4FF47A70CEE7DE
:102664000038024000000240000011104801002020
:10267400000402400000211000080240A4010020D0
:1026840000440040B800002000540040A08601002F
:102694000028004007B50E4B002100915A6C42F40B
:1026A40080425A645A6C02F480420092009A01916A
:1026B4001A6C42F080521A641B6C03F0805301932D
:1026C4000720019BFDF788FF03B05DF804FB00BF02
:1026D4000038024030B5044689B01422002103A812
:1026E40000F0E2F92268154B9A4224D1144C1548A3
:1026F40000250195236B43F002032363236B03F04E
:1027040002030193019B4FF4407303931223049338
:10271400012305930323069303A904230793FDF7D9
:10272400C3FF0295236C43F400132364236C03F466
:1027340000130293029B09B030BD00BF0054004057
:10274400003802400004024008B50268084B9A426F
:102754000CD1084B01221A60002229201146FDF7F2
:102764004DFF2920BDE80840FDF77CBF08BD00BF30
:10277400002800403C0E47420368B3F1804F84B008
:102784000DD1002300931E4B1A6C42F001021A640F
:102794001B6C03F001030093009B04B07047194ABB
:1027A40093420CD100230193154B1A6C42F00202A0
:1027B4001A641B6C03F002030193019BEDE7124AB8
:1027C40093420CD1002302930D4B1A6C42F0040285
:1027D4001A641B6C03F004030293029BDDE70B4AAB
:1027E4009342DAD100230393054B5A6C42F0020260
:1027F4005A645B6C03F002030393039BCDE700BFB1
:102804000038024000040040000800400004014079
:1028140010B514228AB0044600210DEB020000F02A
:1028240043F92368B3F1804F15D1002301932D4B55
:102834001A6B42F002021A631B6B03F0020301934A
:10284400019B4FF4806305930223069301230993AC
:1028540005A9254815E0254A934216D10023029381
:10286400204B23481A6B42F001021A631B6B03F0DE
:1028740001030293029B8023059302230693099389
:1028840005A9FDF711FF0AB010BD1A4A934210D1F1
:1028940000230393134B1A6B42F002021A631B6B5F
:1028A40003F002030393039B40230593022306933F
:1028B400CDE7114A9342E6D100230493094B0F4814
:1028C4001A6B42F004021A631B6B03F004030493B3
:1028D400049B80230593022306930323099305A9EC
:1028E400CFE700BF0038024000040240000400406B
:1028F40000000240000800400004014000080240BB
:1029040010B5044688B01422002103A800F0CCF8C6
:102914002268154B9A4224D103F5FA330021019120
:102924001A6C124842F400321A641A6C02F400322F
:102934000192019A02911A6B42F001021A631B6B15
:1029440003F001030293029B0C23039302230493D9
:10295400012305930323069303A907230793FDF794
:10296400A3FE08B010BD00BF0044004000000240B8
:102974007047FEE7FEE7FEE7FEE7704770477047E3
:10298400FDF704BE0220FDF76FBF000008B5064B3B
:102994004FF480705A695B69FDF766FF4FF400706D
:1029A400BDE80840FDF760BF003C01404FF4005013
:1029B400FDF75ABF0148FEF71DBE00BF48010020C5
:1029C4000F49D1F8883043F47003C1F888300D4BB7
:1029D4001A68002042F001021A6098601A6822F016
:1029E400847222F480321A60074A5A601A6822F408
:1029F40080221A60D8604FF000638B60704700BF7C
:102A040000ED00E00038024010300024DFF834D03C
:102A1400002103E00C4B5B58435004310B480C4B32
:102A240042189A42F6D30B4A02E0002342F8043BD0
:102A3400094B9A42F9D3FFF7C3FF00F011F8FFF7EF
:102A4400DFFC704700000220FC2A00080000002080
:102A54000C0000200C000020E4010020FEE7000030
:102A640070B50D4E0D4CA41BA4100025A54209D130
:102A74000B4E0C4C00F020F8A41BA4100025A5421A
:102A840005D170BD56F8253098470135EEE756F864
:102A9400253098470135F2E7F42A0008F42A0008A3
:102AA400F42A0008F82A000802440346934200D19D
:102AB400704703F8011BF9E7F8B500BFF8BC08BC80
:102AC4009E467047F8B500BFF8BC08BC9E467047E8
:102AD40000000000000000000102030406070809CA
:082AE4000000000001020304E0
:082AEC0048D7FF7F0100000044
:042AF400E9010008EC
:042AF800C50100080C
:0C2AFC0001000000100000000024F400A5
:0400000508002A11B4
:00000001FF
