:020000040800F2
:10000000000002204D100008B90F0008BB0F0008C7
:10001000BD0F0008BF0F0008C10F0008000000005E
:10002000000000000000000000000000C30F0008F6
:10003000C50F000800000000C70F0008C90F000826
:100040009D1000089D1000089D1000089D100008DC
:100050009D1000089D1000089D100008D90F000891
:100060009D1000089D1000089D1000089D100008BC
:100070009D1000089D1000089D1000089D100008AC
:100080009D1000089D1000089D1000089D1000089C
:100090009D1000089D1000089D1000089D1000088C
:1000A0009D1000089D1000089D1000089D1000087C
:1000B0009D1000089D1000089D1000089D1000086C
:1000C0009D1000089D1000089D1000089D1000085C
:1000D0009D1000089D1000089D1000089D1000084C
:1000E0009D1000089D1000089D1000089D1000083C
:1000F0009D1000089D1000089D1000089D1000082C
:100100009D1000089D1000089D1000089D1000081B
:100110009D1000089D1000089D1000089D1000080B
:100120009D1000089D1000089D1000089D100008FB
:100130009D10000800000000000000009D10000855
:100140009D1000089D1000089D1000089D100008DB
:100150009D1000089D1000089D1000089D100008CB
:100160009D1000089D1000089D1000089D100008BB
:100170009D1000089D1000089D1000080000000060
:10018000000000009D1000080000000000000000BA
:100190009D10000800000000000000009D100008F5
:1001A0000000000000000000000000009D1000089A
:1001B0009D1000089D1000089D1000089D1000086B
:0401C0009D10000886
:1001C40010B5054C237833B9044B13B10448AFF38D
:1001D40000800123237010BD0C00002000000000EB
:1001E400E810000808B5034B1BB103490348AFF3FB
:1001F400008008BD0000000010000020E810000886
:1002040053B94AB9002908BF00281CBF4FF0FF3179
:100214004FF0FF3000F07AB9ADF1080C6DE904CE6F
:1002240000F006F8DDF804E0DDE9022304B07047CD
:100234002DE9F0478C460D460446089E002B51D10B
:100244008A4217466DD9B2FA82FEBEF1000F0BD076
:10025400CEF1200C01FA0EF520FA0CFC02FA0EF78E
:100264004CEA050C00FA0EF44FEA174A250CBCFBC5
:10027400FAF81FFA87F90AFB18CC45EA0C4508FB83
:1002840009F3AB420AD9ED1908F1FF3280F023815A
:10029400AB4240F22081A8F102083D44ED1AA4B219
:1002A400B5FBFAF00AFB105544EA054400FB09F9D2
:1002B400A14509D9E41900F1FF3380F00A81A14571
:1002C40040F2078102383C44A4EB090440EA0840A8
:1002D4000021002E61D024FA0EF4002334607360F0
:1002E400BDE8F0878B4207D9002E54D0002186E860
:1002F40021000846BDE8F087B3FA83F1002940F0F5
:100304008E80AB4202D3824200F2FA80841A65EBFB
:1003140003050120AC46002E3FD086E81010BDE84E
:10032400F08712B90127B7FBF2F7B7FA87FEBEF1DF
:10033400000F34D1EB1B3A0C1FFA87FC0121B3FBED
:10034400F2F8250C02FB183345EA03450CFB08F3CD
:10035400AB4207D9ED1908F1FF3002D2AB4200F2EB
:10036400D1808046ED1AA3B2B5FBF2F002FB105522
:1003740043EA05440CFB00FCA44507D9E41900F149
:10038400FF3302D2A44500F2B8801846A4EB0C0453
:1003940040EA08409DE731463046BDE8F087CEF19B
:1003A400200405FA0EF307FA0EF720FA04F83A0CC3
:1003B40025FA04F448EA0308B4FBF2F14FEA1845BD
:1003C40002FB11441FFA87FC45EA044501FB0CF3C8
:1003D400AB4200FA0EF409D9ED1901F1FF3080F0B7
:1003E4008A80AB4240F2878002393D44EB1A1FFAFF
:1003F40088F5B3FBF2F002FB103345EA034500FB3A
:100404000CF3AB4207D9ED1900F1FF386FD2AB42C0
:100414006DD902383D44EB1A40EA01418FE7C1F13E
:10042400200722FA07F88B4005FA01F448EA03038F
:1004340020FA07FE4FEA134CFD404EEA040EB5FBCA
:10044400FCF94FEA1E440CFB19551FFA83F844EAE1
:10045400054509FB08F4AC4202FA01F200FA01FA7C
:1004640008D9ED1809F1FF3043D2AC4241D9A9F1C2
:1004740002091D442D1B1FFA8EFEB5FBFCF00CFB7C
:1004840010554EEA054400FB08F8A04507D9E418C6
:1004940000F1FF3529D2A04527D902381C4440EA8F
:1004A4000940A4EB0804A0FB02894C45C6464D460E
:1004B40015D312D056B1BAEB0E0364EB050404FA5B
:1004C40007F7CB401F43CC40376074600021BDE880
:1004D400F0871846F8E69046E0E6C245EAD2B8EB63
:1004E400020E69EB03050138E4E72846D7E74046E6
:1004F40091E78146BEE7014678E702383C4445E788
:10050400084608E7A8F102083D442BE7704700BFFE
:1005140038B50E4A0E4B054618784FF47A73B3FB80
:10052400F0F31068B0FBF3F000F0A8F8044658B9F3
:100534000F2D09D8024629464FF0FF3000F05EF82F
:10054400044B20461D6038BD012038BD0800002042
:10055400000000200400002008B50B4B1A6842F488
:1005640000721A601A6842F480621A601A6842F4CF
:1005740080721A60032000F02FF80020FFF7C8FFF4
:1005840000F0D0FC002008BD003C0240034A044BAC
:1005940011681B780B441360704700BF28000020CB
:1005A40000000020014B1868704700BF280000209D
:1005B40038B50446FFF7F6FF631C1CBF054B1B78D8
:1005C400054618BFE418FFF7EDFF401B8442FAD834
:1005D40038BD00BF00000020074AD36823F4E0635D
:1005E4001B041B0C43F0BF63000243F4003300F40C
:1005F400E0600343D360704700ED00E0174B30B573
:10060400DC68C4F30224C4F10703251D042B28BFAE
:100614000423062D4FF0010505FA03F303F1FF331C
:100624008CBF033C00241940A14005FA04F4013CAA
:100634002240002842EA01024FEA0212AFBF00F151
:10064400604000F00F00064BD2B2A5BF00F5614038
:10065400D2B21A5480F8002330BD00BF00ED00E090
:1006640014ED00E04209012300F01F0003FA00F03A
:10067400014B43F82200704700E100E00138B0F17B
:10068400807F0AD2064B074A5860F02182F8231073
:100694000020072298601A6070470120704700BF4D
:1006A40010E000E000ED00E0044B1A6804280CBFE1
:1006B40042F0040222F004021A60704710E000E0E5
:1006C400704708B5FFF7FCFF08BD00002DE9F04FA7
:1006D40085B00B68DFF8A081654ADFF8A09101932B
:1006E40000234FF0010E019C0EFA03FE0EEA0406ED
:1006F400B64540F0AA804C6824F01007022F16D1AA
:100704004FEAD30A00EB8A0A03F0070BDAF8205009
:100714004FEA8B0B4FF00F0C0CFA0BFC25EA0C0C78
:100724000D6905FA0BF545EA0C05CAF820504FEAA5
:10073400430A0325D0F800B005FA0AF5ED4304F0A6
:10074400030C0BEA050B0CFA0AFC013F4CEA0B0CF8
:10075400012FC0F800C011D8876807EA050BCF68DD
:1007640007FA0AFC4CEA0B078760476827EA0E0E73
:10077400C4F300179F4047EA0E074760C7683D402F
:100784008F6807FA0AF73D43C560E5005DD54FF071
:10079400000BCDF80CB0D8F84470364D47F48047C0
:1007A400C8F84470D8F8447007F480470397039F4F
:1007B40023F0030707F1804707F59C3703F0030C88
:1007C400D7F808A04FEA8C0C4FF00F0E0EFA0CFE6F
:1007D400A8422AEA0E0E3FD005F58065A8423DD016
:1007E40005F58065A8423BD005F58065A84239D05F
:1007F40005F58065A84237D0484537D005F5006532
:10080400A84214BF0725062505FA0CF545EA0E058E
:10081400BD601568F74314F4803F0CBF3D40354379
:100824001560556814F4003F0CBF3D4035435560D6
:10083400956814F4801F0CBF3D4035439560D5681E
:10084400A40254BF3D403543D5600133102B7FF4DF
:1008540048AF05B0BDE8F08F5D46D5E70125D3E785
:100864000225D1E70325CFE70425CDE70525CBE70E
:10087400003C0140000002400038024000140240E5
:100884000369194214BF0120002070470AB1816135
:1008940070470904FBE74369594041617047704759
:1008A40008B5044B5969014202D05861FFF7F7FFBC
:1008B40008BD00BF003C01402DE9F0410D4604464F
:1008C40010B90120BDE8F081444B1A6802F00F0210
:1008D4008A4228D321688F072DD4C80740D43F4BC0
:1008E4001A6802F00F02954266D3226851076CD44D
:1008F400130707D53A4A2169936823F4604343EA0E
:10090400C103936000F078F8354B364A9B68C3F313
:100914000313D35CD840344B18600020FFF7F8FD74
:100924000020BDE8F081CAB21A701B6803F00F03FF
:100934009942C6D1CEE72A4B11F0040F1EBF9A6824
:1009440042F4E0529A600E0742BF9A6842F4604251
:100954009A609A68A06822F0F00202439A60BCE7A9
:1009640062681F4B012A1DD11B6813F4003FA8D0F5
:100974001B4EB36823F003031343B360FFF712FE67
:1009840041F288380746B368626803F00C03B3EB9E
:10099400820FA4D0FFF706FEC01B4045F3D9032005
:1009A400BDE8F081911E01291B6802D813F0007F75
:1009B400DDE713F0020FDAE7EAB21A701B6803F0FE
:1009C4000F039D427FF47DAF8FE70549E0688B6894
:1009D40023F4E05303438B608AE700BF003C0240EA
:1009E400003802400011000808000020014B18687C
:1009F400704700BF08000020204908B58B6803F049
:100A04000C03082B07D00C2B20D01D4A1D48042BA7
:100A140018BF104608BD4A684B68496813F4800340
:100A240014BF18481648C1F3881118BF002302F0F8
:100A34003F02A1FB0001FFF7E3FB104B5B68C3F32C
:100A4400014301335B00B0FBF3F008BD4A684B6817
:100A5400496813F4800314BF0A480948C1F3881194
:100A640018BF002302F03F02A1FB0001FFF7C8FBFF
:100A7400024B5B68C3F30273E5E700BF0038024032
:100A84000024F40040787D0103682DE9F341DF0779
:100A9400044610D423689E0767D423681A0700F11C
:100AA400B28023685B0700F1D080A269002A40F07D
:100AB400398100201EE0974B9A6802F00C02042A48
:100AC40010D09A6802F00C02082A02D15B685D0219
:100AD40008D4904B9A6802F00C020C2A0DD15A6883
:100AE40050020AD58B4B1B689903D3D56368002B3E
:100AF400D0D1012002B0BDE8F0816268B2F5803F38
:100B040011D11A6842F480321A60FFF74BFD814D0F
:100B140006462B689A03BDD4FFF744FD801B642866
:100B2400F7D90320E6E77B4DB2F5A02F2B6807D158
:100B340043F480232B602B6843F480332B60E4E779
:100B440023F480332B602B6823F480232B60002A4A
:100B5400DBD1FFF727FD06462B689B039AD5FFF7E9
:100B640021FD801B6428F7D9DBE76A4B9A6812F0F1
:100B74000C0F10D09A6802F00C02082A02D15B68AC
:100B84005F0208D5634A936803F00C030C2B11D160
:100B940053685E020ED45F4B1A68950702D5E2686B
:100BA400012AA6D11A68216922F0F80242EAC10298
:100BB4001A6072E7E268584BB2B101221A60FFF77B
:100BC400F1FC544D06462B68980707D52B6822691B
:100BD40023F0F80343EAC2032B605EE7FFF7E2FC6D
:100BE400801B0228EFD99CE71A60FFF7DBFC494D14
:100BF40006462B6899077FF550AFFFF7D3FC801B9F
:100C04000228F6D98DE76269444B7AB101221A6051
:100C1400FFF7C8FC3F4D06466B6F9F073FF541AF9A
:100C2400FFF7C0FC801B0228F6D97AE71A60FFF7A9
:100C3400B9FC384D06466B6F98077FF532AFFFF766
:100C4400B1FC801B0228F6D96BE7324B1A6C12F008
:100C5400805228D101921A6C42F080521A641B6CA3
:100C640003F080530193019B01262D4D2B68D90578
:100C74001BD5A368274D012B27D12B6F43F001030C
:100C84002B67FFF78FFC234D074641F288382B6F03
:100C94009B0739D5002E3FF408AF1E4A136C23F08E
:100CA4008053136401E70026DFE72B6843F4807365
:100CB4002B60FFF777FC07462B68DA05D9D4FFF7DA
:100CC40071FCC01B0228F7D92BE7052B04D12B6F2D
:100CD40043F004032B67D0E72A6F22F001022A674E
:100CE4002A6F22F004022A67002BCAD1FFF75AFCAC
:100CF40041F2883807462B6F9807CBD5FFF752FC93
:100D0400C01B4045F7D90CE7FFF74CFCC01B40451E
:100D1400BDD906E70038024000004742800E474232
:100D240000700040234DAB6803F00C03082B3FF424
:100D3400E0AE214E0023022A33602DD1FFF732FCAE
:100D440007462B68990121D4226AE3691343626A36
:100D540043EA8213E26A43EA0263226B43EA0273C0
:100D6400A26A144C5208013A43EA02436B6001231D
:100D74003360FFF717FC054623689A013FF599AEE7
:100D8400FFF710FC401B0228F6D9CAE6FFF70AFC5D
:100D9400C01B0228D5D9C4E6FFF704FC04462B681F
:100DA4009B017FF586AEFFF7FDFB001B0228F6D9F9
:100DB400B7E600BF003802406000474210B594B067
:100DC4000022224B0092196C41F0805119641B6C73
:100DD4001F4903F080530093009B01920B6823F496
:100DE400404343F480430B600B680D9203F440438B
:100DF4000193019B0223079301230A9307A810235D
:100E04000B93FFF741FE014600B1FEE70F23039069
:100E140004900590069002A80293FFF74DFD044646
:100E240000B1FEE7FFF7E2FD4FF47A73B0FBF3F095
:100E3400FFF724FC0420FFF737FC224621464FF03D
:100E4400FF30FFF7DBFB14B010BD00BF00380240D9
:100E54000070004000B589B00024FFF77DFBFFF768
:100E6400ADFF2B4B00941A6B2A4842F004021A631C
:100E74001A6B02F004020092009A01941A6B42F079
:100E840001021A631A6B02F001020192019A0294A0
:100E94001A6B42F002021A631B6B03F00203224630
:100EA40002932021029BFFF7F1FC224620211A48DD
:100EB400FFF7ECFC0223194A1948039303A905938D
:100EC40004922026FFF702FC012503A9114805948A
:100ED400069403960495FFF7F9FB03A90E480594BD
:100EE400069403960495FFF7F1FB2246214607205A
:100EF400FFF784FB0720FFF7B5FB064C20462021B3
:100F0400FFF7C9FC4FF4FA60FFF752FBF6E700BFA6
:100F1400003802400000024000040240000031108A
:100F24000008024013B5224B002400945A6C42F48A
:100F340080425A645A6C02F480420092009A0194EE
:100F44001A6C42F080521A641B6C03F080530193B4
:100F54000320019BFFF740FB224621466FF00B0064
:100F6400FFF74CFB224621466FF00A00FFF746FBD1
:100F7400224621466FF00900FFF740FB2246214636
:100F84006FF00400FFF73AFB224621466FF003009E
:100F9400FFF734FB224621466FF00100FFF72EFBDA
:100FA400224621464FF0FF30FFF728FB02B010BD68
:100FB400003802407047FEE7FEE7FEE7FEE77047B1
:100FC4007047704708B5FFF7E1FABDE80840FFF73E
:100FD40078BB000008B502210648FFF751FC202128
:100FE40002460548FFF752FC0220BDE80840FFF71F
:100FF40057BC00BF00080240000402400F49D1F86A
:10100400883043F47003C1F888300D4B1A6800200F
:1010140042F001021A6098601A6822F0847222F485
:1010240080321A60074A5A601A6822F480221A60D1
:10103400D8604FF000638B60704700BF00ED00E0A4
:101044000038024010300024DFF834D0002103E0DF
:101054000C4B5B58435004310B480C4B42189A42DA
:10106400F6D30B4A02E0002342F8043B094B9A42B0
:10107400F9D3FFF7C3FF00F011F8FFF7EBFE704759
:101084000000022020110008000000200C000020B5
:101094000C0000202C000020FEE7000070B50D4E6F
:1010A4000D4CA41BA4100025A54209D10B4E0C4CD9
:1010B40000F018F8A41BA4100025A54205D170BDAA
:1010C40056F8253098470135EEE756F8253098470D
:1010D4000135F2E71811000818110008181100086A
:1010E4001C110008F8B500BFF8BC08BC9E46704748
:0C10F400F8B500BFF8BC08BC9E46704771
:1011000000000000000000000102030406070809B7
:0811100024F1FF7F0100000043
:04111800E9010008E1
:04111C00C501000801
:0C11200001000000100000000024F4009A
:040000050800104D92
:00000001FF
