:020000040800F2
:100000000000022045190008E5180008E71800085C
:10001000E9180008EB180008ED18000800000000BF
:10002000000000000000000000000000EF180008C1
:10003000F118000800000000F3180008F518000887
:1000400095190008951900089519000895190008D8
:1000500095190008951900089519000895190008C8
:1000600095190008951900089519000895190008B8
:1000700095190008951900089519000895190008A8
:100080009519000895190008951900089519000898
:100090009519000895190008951900089519000888
:1000A0009519000895190008951900089519000878
:1000B0009519000895190008951900089519000868
:1000C0009519000895190008951900089519000858
:1000D0009519000895190008951900089519000848
:1000E0009519000895190008951900089519000838
:1000F0009519000895190008951900089519000828
:100100009519000895190008951900089519000817
:100110009519000895190008951900089519000807
:1001200095190008951900089519000895190008F7
:100130009519000800000000000000009519000853
:1001400095190008951900089519000895190008D7
:1001500095190008951900089519000895190008C7
:1001600095190008951900089519000895190008B7
:10017000951900089519000895190008000000005D
:1001800000000000951900080000000000000000B9
:1001900095190008000000000000000095190008F3
:1001A0000000000000000000000000009519000899
:1001B0009519000895190008951900089519000867
:0401C0009519000885
:1001C40010B5054C237833B9044B13B10448AFF38D
:1001D40000800123237010BD0C00002000000000EB
:1001E400F019000808B5034B1BB103490348AFF3EA
:1001F400008008BD0000000010000020F019000875
:1002040053B94AB9002908BF00281CBF4FF0FF3179
:100214004FF0FF3000F07AB9ADF1080C6DE904CE6F
:1002240000F006F8DDF804E0DDE9022304B07047CD
:100234002DE9F0478C460D460446089E002B51D10B
:100244008A4217466DD9B2FA82FEBEF1000F0BD076
:10025400CEF1200C01FA0EF520FA0CFC02FA0EF78E
:100264004CEA050C00FA0EF44FEA174A250CBCFBC5
:10027400FAF81FFA87F90AFB18CC45EA0C4508FB83
:1002840009F3AB420AD9ED1908F1FF3280F023815A
:10029400AB4240F22081A8F102083D44ED1AA4B219
:1002A400B5FBFAF00AFB105544EA054400FB09F9D2
:1002B400A14509D9E41900F1FF3380F00A81A14571
:1002C40040F2078102383C44A4EB090440EA0840A8
:1002D4000021002E61D024FA0EF4002334607360F0
:1002E400BDE8F0878B4207D9002E54D0002186E860
:1002F40021000846BDE8F087B3FA83F1002940F0F5
:100304008E80AB4202D3824200F2FA80841A65EBFB
:1003140003050120AC46002E3FD086E81010BDE84E
:10032400F08712B90127B7FBF2F7B7FA87FEBEF1DF
:10033400000F34D1EB1B3A0C1FFA87FC0121B3FBED
:10034400F2F8250C02FB183345EA03450CFB08F3CD
:10035400AB4207D9ED1908F1FF3002D2AB4200F2EB
:10036400D1808046ED1AA3B2B5FBF2F002FB105522
:1003740043EA05440CFB00FCA44507D9E41900F149
:10038400FF3302D2A44500F2B8801846A4EB0C0453
:1003940040EA08409DE731463046BDE8F087CEF19B
:1003A400200405FA0EF307FA0EF720FA04F83A0CC3
:1003B40025FA04F448EA0308B4FBF2F14FEA1845BD
:1003C40002FB11441FFA87FC45EA044501FB0CF3C8
:1003D400AB4200FA0EF409D9ED1901F1FF3080F0B7
:1003E4008A80AB4240F2878002393D44EB1A1FFAFF
:1003F40088F5B3FBF2F002FB103345EA034500FB3A
:100404000CF3AB4207D9ED1900F1FF386FD2AB42C0
:100414006DD902383D44EB1A40EA01418FE7C1F13E
:10042400200722FA07F88B4005FA01F448EA03038F
:1004340020FA07FE4FEA134CFD404EEA040EB5FBCA
:10044400FCF94FEA1E440CFB19551FFA83F844EAE1
:10045400054509FB08F4AC4202FA01F200FA01FA7C
:1004640008D9ED1809F1FF3043D2AC4241D9A9F1C2
:1004740002091D442D1B1FFA8EFEB5FBFCF00CFB7C
:1004840010554EEA054400FB08F8A04507D9E418C6
:1004940000F1FF3529D2A04527D902381C4440EA8F
:1004A4000940A4EB0804A0FB02894C45C6464D460E
:1004B40015D312D056B1BAEB0E0364EB050404FA5B
:1004C40007F7CB401F43CC40376074600021BDE880
:1004D400F0871846F8E69046E0E6C245EAD2B8EB63
:1004E400020E69EB03050138E4E72846D7E74046E6
:1004F40091E78146BEE7014678E702383C4445E788
:10050400084608E7A8F102083D442BE7704700BFFE
:1005140038B50E4A0E4B054618784FF47A73B3FB80
:10052400F0F31068B0FBF3F000F088F8044658B913
:100534000F2D09D8024629464FF0FF3000F04AF843
:10054400044B20461D6038BD012038BD0800002042
:10055400000000200400002008B50B4B1A6842F488
:1005640000721A601A6842F480621A601A6842F4CF
:1005740080721A60032000F01BF80020FFF7C8FF08
:1005840001F0BAF8002008BD003C0240034A044BC5
:1005940011681B780B441360704700BF28000020CB
:1005A40000000020014B1868704700BF280000209D
:1005B400074AD36823F4E0631B041B0C43F0BF63B6
:1005C400000243F4003300F4E0600343D360704757
:1005D40000ED00E0174B30B5DC68C4F30224C4F12D
:1005E4000703251D042B28BF0423062D4FF0010506
:1005F40005FA03F303F1FF338CBF033C00241940D5
:10060400A14005FA04F4013C2240002842EA010218
:100614004FEA0212AFBF00F1604000F00F00064B3A
:10062400D2B2A5BF00F56140D2B21A5480F80023BB
:1006340030BD00BF00ED00E014ED00E00138B0F182
:10064400807F0AD2064B074A5860F02182F82310B3
:100654000020072298601A6070470120704700BF8D
:1006640010E000E000ED00E02DE9F04F85B00B68EC
:10067400DFF8A081654ADFF8A091019300234FF0D1
:10068400010E019C0EFA03FE0EEA0406B64540F084
:10069400AA804C6824F01007022F16D14FEAD30A1F
:1006A40000EB8A0A03F0070BDAF820504FEA8B0BB1
:1006B4004FF00F0C0CFA0BFC25EA0C0C0D6905FA33
:1006C4000BF545EA0C05CAF820504FEA430A032506
:1006D400D0F800B005FA0AF5ED4304F0030C0BEA78
:1006E400050B0CFA0AFC013F4CEA0B0C012FC0F875
:1006F40000C011D8876807EA050BCF6807FA0AFC1F
:100704004CEA0B078760476827EA0E0EC4F300170C
:100714009F4047EA0E074760C7683D408F6807FA65
:100724000AF73D43C560E5005DD54FF0000BCDF8F9
:100734000CB0D8F84470364D47F48047C8F844707C
:10074400D8F8447007F480470397039F23F0030706
:1007540007F1804707F59C3703F0030CD7F808A08E
:100764004FEA8C0C4FF00F0E0EFA0CFEA8422AEA48
:100774000E0E3FD005F58065A8423DD005F5806595
:10078400A8423BD005F58065A84239D005F58065BF
:10079400A84237D0484537D005F50065A84214BFB4
:1007A4000725062505FA0CF545EA0E05BD60156812
:1007B400F74314F4803F0CBF3D4035431560556842
:1007C40014F4003F0CBF3D4035435560956814F464
:1007D400801F0CBF3D4035439560D568A40254BFCB
:1007E4003D403543D5600133102B7FF448AF05B04D
:1007F400BDE8F08F5D46D5E70125D3E70225D1E7B3
:100804000325CFE70425CDE70525CBE7003C0140D0
:100814000000024000380240001402400AB1816125
:1008240070470904FBE700002DE9F0410D4604463A
:1008340010B90120BDE8F081444B1A6802F00F02A0
:100844008A4228D321688F072DD4C80740D43F4B50
:100854001A6802F00F02954266D3226851076CD4DD
:10086400130707D53A4A2169936823F4604343EA9E
:10087400C103936000F092F8354B364A9B68C3F38A
:100884000313D35CD840344B18600020FFF740FEBC
:100894000020BDE8F081CAB21A701B6803F00F0390
:1008A4009942C6D1CEE72A4B11F0040F1EBF9A68B5
:1008B40042F4E0529A600E0742BF9A6842F46042E2
:1008C4009A609A68A06822F0F00202439A60BCE73A
:1008D40062681F4B012A1DD11B6813F4003FA8D086
:1008E4001B4EB36823F003031343B360FFF75AFEB0
:1008F40041F288380746B368626803F00C03B3EB2F
:10090400820FA4D0FFF74EFEC01B4045F3D903204D
:10091400BDE8F081911E01291B6802D813F0007F05
:10092400DDE713F0020FDAE7EAB21A701B6803F08E
:100934000F039D427FF47DAF8FE70549E0688B6824
:1009440023F4E05303438B608AE700BF003C02407A
:1009540000380240081A000808000020044B054A29
:100964009B68C3F38223D35C034A1068D840704762
:1009740000380240181A000808000020044B054AF9
:100984009B68C3F34233D35C034A1068D840704772
:1009940000380240181A000808000020204908B551
:1009A4008B6803F00C03082B07D00C2B20D01D4AB6
:1009B4001D48042B18BF104608BD4A684B68496897
:1009C40013F4800314BF18481648C1F3881118BFE4
:1009D400002302F03F02A1FB0001FFF711FC104BC2
:1009E4005B68C3F3014301335B00B0FBF3F008BD64
:1009F4004A684B68496813F4800314BF0A480948DD
:100A0400C1F3881118BF002302F03F02A1FB0001CB
:100A1400FFF7F6FB024B5B68C3F30273E5E700BF25
:100A2400003802400024F40000127A0003682DE923
:100A3400F341DF07044610D423689E0767D4236874
:100A44001A0700F1B28023685B0700F1D080A26925
:100A5400002A40F0398100201EE0974B9A6802F08A
:100A64000C02042A10D09A6802F00C02082A02D15F
:100A74005B685D0208D4904B9A6802F00C020C2A61
:100A84000DD15A6850020AD58B4B1B689903D3D5F4
:100A94006368002BD0D1012002B0BDE8F081626808
:100AA400B2F5803F11D11A6842F480321A60FFF720
:100AB40079FD814D06462B689A03BDD4FFF772FD7C
:100AC400801B6428F7D90320E6E77B4DB2F5A02FFD
:100AD4002B6807D143F480232B602B6843F48033C5
:100AE4002B60E4E723F480332B602B6823F480230A
:100AF4002B60002ADBD1FFF755FD06462B689B03CC
:100B04009AD5FFF74FFD801B6428F7D9DBE76A4BC2
:100B14009A6812F00C0F10D09A6802F00C02082A9E
:100B240002D15B685F0208D5634A936803F00C0343
:100B34000C2B11D153685E020ED45F4B1A689507D3
:100B440002D5E268012AA6D11A68216922F0F802C6
:100B540042EAC1021A6072E7E268584BB2B101225C
:100B64001A60FFF71FFD544D06462B68980707D5FA
:100B74002B68226923F0F80343EAC2032B605EE783
:100B8400FFF710FD801B0228EFD99CE71A60FFF7DE
:100B940009FD494D06462B6899077FF550AFFFF7CD
:100BA40001FD801B0228F6D98DE76269444B7AB1B6
:100BB40001221A60FFF7F6FC3F4D06466B6F9F0754
:100BC4003FF541AFFFF7EEFC801B0228F6D97AE728
:100BD4001A60FFF7E7FC384D06466B6F98077FF500
:100BE40032AFFFF7DFFC801B0228F6D96BE7324BEC
:100BF4001A6C12F0805228D101921A6C42F0805281
:100C04001A641B6C03F080530193019B01262D4D44
:100C14002B68D9051BD5A368274D012B27D12B6F32
:100C240043F001032B67FFF7BDFC234D074641F258
:100C340088382B6F9B0739D5002E3FF408AF1E4A26
:100C4400136C23F08053136401E70026DFE72B685D
:100C540043F480732B60FFF7A5FC07462B68DA0585
:100C6400D9D4FFF79FFCC01B0228F7D92BE7052B2B
:100C740004D12B6F43F004032B67D0E72A6F22F0D3
:100C840001022A672A6F22F004022A67002BCAD1C4
:100C9400FFF788FC41F2883807462B6F9807CBD5BD
:100CA400FFF780FCC01B4045F7D90CE7FFF77AFC3F
:100CB400C01B4045BDD906E700380240000047424A
:100CC400800E474200700040234DAB6803F00C03D4
:100CD400082B3FF4E0AE214E0023022A33602DD1CD
:100CE400FFF760FC07462B68990121D4226AE36967
:100CF4001343626A43EA8213E26A43EA0263226BA1
:100D040043EA0273A26A144C5208013A43EA0243CA
:100D14006B6001233360FFF745FC054623689A01A5
:100D24003FF599AEFFF73EFC401B0228F6D9CAE610
:100D3400FFF738FCC01B0228D5D9C4E6FFF732FC04
:100D440004462B689B017FF586AEFFF72BFC001B46
:100D54000228F6D9B7E600BF0038024060004742D7
:100D6400036A23F001030362036A426870B584696D
:100D74000D6824F0730425438C6823F00203234395
:100D84000C4CA04209D004F58064A04205D0426016
:100D94004A6885614263036270BDCC688E6923F042
:100DA400080323434C6922F44072344323F00403C0
:100DB4002243ECE700000140036A23F480730362DA
:100DC400036A426870B5C4690D6824F0730425434E
:100DD4008C6823F4007343EA04230E4CA04209D028
:100DE40004F58064A04205D042604A68C561C263CC
:100DF400036270BDCC688E6923F4006343EA042364
:100E04004C6922F44052344323F4806342EA0412CE
:100E1400EAE700BF00000140036A23F48053036241
:100E240030B5046A4368C2690D6822F4E64242EAB6
:100E340005228D6824F4005444EA0534094DA8427F
:100E440009D005F58065A84205D043604B68C261AE
:100E54000364046230BD4D6923F4804343EA85137F
:100E6400F3E700BF000001402E4A0368904212D00D
:100E7400B0F1804F0FD0A2F57C4290420BD002F526
:100E84008062904207D002F58062904203D002F55E
:100E9400784290421DD14A6823F070031343214ADB
:100EA400904204D1CA6823F44073134328E0B0F19C
:100EB400804FF7D01C4A9042F4D002F580629042F1
:100EC400F0D002F580629042ECD002F57842904274
:100ED400E8D0164A9042E5D002F580629042E1D013
:100EE40002F580629042DDD0A2F598329042D9D0CA
:100EF40002F580629042D5D002F580629042D1D052
:100F040003608B68C3620B688362064B984206D009
:100F140003F58063984202D00123436170470B6953
:100F24000363F9E700000140000400400040014071
:100F340010B50446A0B190F8393003F0FF021BB994
:100F440080F8382000F0F8FB022384F83930206858
:100F5400211DFFF789FF012384F83930002010BDDB
:100F6400012010BD036A23F010030362036A426880
:100F740070B584690D6824F4E64444EA05258C6858
:100F840023F0200343EA04130D4CA04209D004F5D6
:100F94008064A04205D042604A688561826303622E
:100FA40070BDCC688E6923F0800343EA04134C6956
:100FB40022F44062344323F0400342EA8402EAE725
:100FC4000000014038B590F83830012B04464FF04A
:100FD400020025D0012384F8383084F839000C2A23
:100FE40018D8DFE802F0071717171E1717172F175F
:100FF400171740002068FFF7B3FE236809699A6950
:1010040042F008029A619A6922F004029A619A698C
:101014000A439A610123002084F8393084F83800A7
:1010240038BD2068FFF79EFF236809699A6942F476
:1010340000629A619A6922F480629A619A6942EA2A
:101044000122E6E72068FFF7B7FE23680969DA6939
:1010540042F00802DA61DA6922F00402DA61DA693C
:101064000A43DA61D6E72068FFF7D6FE23680969E8
:10107400DA6942F40062DA61DA6922F48062DA61E0
:10108400DA6942EA0122ECE7036A10B501248C40D4
:1010940023EA04030362036A8A401A43026210BD0E
:1010A40010B5044601220068FFF7EEFF2368084AE2
:1010B400934203D002F58062934203D15A6C42F406
:1010C40000425A641A6842F001021A60002010BDFE
:1010D4000000014090F83830012B10B54FF00203A6
:1010E40018D080F8393003680C685A68496822F0CF
:1010F40070025A605A6822435A609A6822F0800249
:101104009A609A680A439A60012380F83930002370
:1011140080F83830184610BD90F83830012B1FD0B5
:10112400CB688A6823F4407313434A6823F48063CA
:1011340013430A6823F4006313430A6923F48053B6
:1011440013434A6923F4005313438A6923F4404345
:10115400134302685364002380F8383018467047FC
:10116400022070472DE9F0470668C2683369C169F7
:1011740023F4405313433361044683680069F268DF
:101184000343606922F41642034322F00C020B432A
:101194001343F3607369A26923F440731343B1F5F5
:1011A400004F73617A4B7CD19E4203D003F5806378
:1011B4009E4244D1FFF7E2FB192505FB00F360686A
:1011C4004FF064094000B3FBF0F3B3FBF9F34FEACB
:1011D4000318FFF7D3FB636868435B00B0FBF3F7C6
:1011E400FFF7CCFB636868435B00B0FBF3F3B3FB2E
:1011F400F9F309FB1373DB003233B3FBF9F35B0040
:1012040003F4F877FFF7BAFB626868435200B0FB57
:10121400F2FAFFF7B3FB636868435B00B0FBF3F3D8
:10122400B3FBF9F309FB13A3DB003233B3FBF9F38C
:1012340003F0070343443B44B360BDE8F087FFF782
:101244008DFB192505FB00F360684FF0640940002D
:10125400B3FBF0F3B3FBF9F34FEA0318FFF77EFB9C
:10126400636868435B00B0FBF3F7FFF777FB6368E1
:1012740068435B00B0FBF3F3B3FBF9F309FB1373AF
:10128400DB003233B3FBF9F35B0003F4F877FFF7C9
:1012940065FB626868435200B0FBF2FAFFF75EFB3D
:1012A400B9E79E4202D03B4B9E4240D1FFF766FB1A
:1012B400676819254FF0640905FB00F3BF00B3FB11
:1012C400F7F3B3FBF9F31F01FFF758FB63686843B7
:1012D4009B00B0FBF3F8FFF751FB636868439B0086
:1012E400B0FBF3F3B3FBF9F309FB13831B013233B4
:1012F400B3FBF9F303F0F008FFF740FB62686843BF
:101304009200B0FBF2FAFFF739FB636868439B0075
:10131400B0FBF3F3B3FBF9F309FB13A31B01323363
:10132400B3FBF9F303F00F0343EA080383E7FFF782
:1013340015FB676819254FF0640905FB00F3BF002E
:10134400B3FBF7F3B3FBF9F31F01FFF707FB636884
:1013540068439B00B0FBF3F8FFF700FB6368684346
:101364009B00B0FBF3F3B3FBF9F309FB13831B01FD
:101374003233B3FBF9F303F0F008FFF7EFFA6268D6
:1013840068439200B0FBF2FAFFF7E8FABDE700BF4A
:10139400001001400014014010B5044640B390F819
:1013A400393003F0FF021BB980F8382000F060FAEE
:1013B4002268242384F83930D36823F40053D3609B
:1013C4002046FFF7CFFE23681A6922F490421A617F
:1013D4005A6922F02A025A61DA6842F40052DA6049
:1013E40000202023E06384F8393084F83A3010BDBB
:1013F400012010BD10B594B03422002107A800F0DC
:10140400EDFA1422002102A800F0E8FA00221E4B93
:101414000092196C41F0805119641B6C1B4903F054
:1014240080530093009B01920B6823F4404343F4E0
:1014340080430B600B680E9203F440430193019BBD
:1014440001230A9310230B930F934FF4A8730224E0
:10145400109307A8042307940D94119312941394E2
:10146400FFF7E4FA00B1FEE70F23029304904FF470
:1014740080530690214602A803940593FFF7D4F9FC
:1014840000B1FEE714B010BD003802400070004007
:101494002DE9804895B0FFF75FF8FFF7ABFF142202
:1014A40000210DA800F09AFA0024874B00941A6BCF
:1014B400864842F004021A631A6B02F00402009296
:1014C400009A01941A6B42F080021A631A6B02F0BC
:1014D40080020192019A02941A6B42F001021A638B
:1014E4001A6B02F001020292029A03941A6B42F000
:1014F40002021A631B6B03F00203224603932021AA
:10150400039BFFF78BF94FF400530D930DA9704B18
:1015140070480E930F942025FFF7A6F801266B4818
:101524000D950DA90E960F941094FFF79DF86A4837
:101534006A4A84604FF4E13380E80C000C23C460F1
:10154400046143618461C461FFF726FF00B1FEE7D3
:10155400294632465D48624DDFF898B1FFF75EF9DF
:1015640000241C2221460DA80694079400F036FAA4
:101574005C4B5B48AC604FF452794FF0640885E8EB
:101584000802C5F80C802C61FFF7D2FC00B1FEE71D
:101594000690079006A92846FFF79CFD024600B175
:1015A400FEE70F901190602732260DA928460D976B
:1015B4000E96FFF707FD824600B1FEE70146284676
:1015C400FFF76EFD284600F0F3F8474CCDF818A05D
:1015D4001C2251460DA8CDF81CA000F0FFF9434A87
:1015E400C4F80C80204684E80406C4F810A0FFF771
:1015F4009FFC00B1FEE70690079006A92046FFF77E
:1016040069FD00B1FEE70F90119004220DA9204658
:101614000D970E96FFF7D6FC824600B1FEE7042133
:101624002046FFF73DFD204600F0C2F8304CCDF8CF
:1016340010A01C22514606A8CDF814A000F0CEF943
:101644001C2251460DA800F0C9F92046C4F800B088
:10165400C4F80490C4F808A0C4F80C80C4F810A01E
:10166400C4F814A0FFF764FC00B1FEE704900590F1
:1016740004A92046FFF72EFD00B1FEE7089009906B
:101684000A900B900C90042206A920460697079610
:10169400FFF798FC00B1FEE70D900E900F901090AC
:1016A40011904FF4005313900DA920461293FFF7A5
:1016B40033FD00B1FEE704210D48FFF7F1FC0C48AF
:1016C40000F076F84CE700BF00380240000002400A
:1016D4000000211000080240E00000200044004007
:1016E4006800002000080040A4000020000400401E
:1016F4002C0000200004014007B50E4B002100918E
:101704005A6C42F480425A645A6C02F48042009249
:10171400009A01911A6C42F080521A641B6C03F017
:10172400805301930720019BFEF742FF03B05DF84D
:1017340004FB00BF003802400368194A934284B096
:101744000DD100230193174B1A6C42F002021A6464
:101754001B6C03F002030193019B04B07047124A0F
:1017640093420CD1002302930E4B1A6C42F00402F4
:101774001A641B6C03F004030293029BEDE70B4A0B
:101784009342EAD100230393064B5A6C42F00202BF
:101794005A645B6C03F002030393039BDDE700BF11
:1017A40000040040003802400008004000040140EA
:1017B40010B5044688B01422002103A800F00EF9E5
:1017C4002368244A934216D100230093224B2348D2
:1017D4001A6B42F001021A631B6B03F001030093BE
:1017E400009B8023039302230493079303A9FEF72A
:1017F4003BFF08B010BD1A4A934213D10023019352
:10180400154B18481A6B42F002021A631B6B03F063
:1018140002030193019B4023039302230493079340
:1018240003A9E4E7104A9342E3D1002302930A4B4D
:101834000E481A6B42F004021A631B6B03F0040394
:101844000293029B802303930223049303230793AD
:1018540003A9CCE700040040003802400000024025
:101864000008004000040240000401400008024057
:1018740010B5044688B01422002103A800F0AEF885
:101884002268154B9A4224D103F5FA3300210191C1
:101894001A6C124842F400321A641A6C02F40032D0
:1018A4000192019A02911A6B42F001021A631B6BB6
:1018B40003F001030293029B0C230393022304937A
:1018C400012305930323069303A907230793FEF734
:1018D400CBFE08B010BD00BF004400400000024031
:1018E4007047FEE7FEE7FEE7FEE770477047704784
:1018F400FEF74CBE0F49D1F8883043F47003C1F8A9
:1019040088300D4B1A68002042F001021A6098607A
:101914001A6822F0847222F480321A60074A5A60EC
:101924001A6822F480221A60D8604FF000638B603A
:10193400704700BF00ED00E0003802401030002482
:10194400DFF834D0002103E00C4B5B5843500431E2
:101954000B480C4B42189A42F6D30B4A02E0002380
:1019640042F8043B094B9A42F9D3FFF7C3FF00F056
:1019740011F8FFF78DFD704700000220301A0008AF
:10198400000000200C0000200C000020200100209A
:10199400FEE7000070B50D4E0D4CA41BA4100025ED
:1019A400A54209D10B4E0C4C00F020F8A41BA41046
:1019B4000025A54205D170BD56F82530984701355C
:1019C400EEE756F8253098470135F2E7281A000863
:1019D400281A0008281A00082C1A00080244034692
:1019E400934200D1704703F8011BF9E7F8B500BF33
:1019F400F8BC08BC9E467047F8B500BFF8BC08BCEC
:041A04009E46704743
:101A080000000000000000000102030406070809A6
:081A18000000000001020304BC
:081A200014E8FF7F0100000043
:041A2800E9010008C8
:041A2C00C5010008E8
:0C1A300001000000100000000024F40081
:040000050800194591
:00000001FF
