:020000040800F2
:10000000000002202D130008C1120008C3120008CE
:10001000C5120008C7120008C9120008000000003D
:10002000000000000000000000000000CB120008EB
:10003000CD12000800000000CF120008D112000805
:100040007D1300087D1300087D1300087D13000850
:100050007D1300087D1300087D1300087D13000840
:100060007D1300087D1300087D1300087D13000830
:100070007D1300087D1300087D1300087D13000820
:100080007D1300087D1300087D1300087D13000810
:100090007D1300087D1300087D1300087D13000800
:1000A0007D1300087D1300087D1300087D130008F0
:1000B0007D1300087D1300087D1300087D130008E0
:1000C0007D1300087D1300087D1300087D130008D0
:1000D0007D1300087D1300087D1300087D130008C0
:1000E0007D1300087D1300087D1300087D130008B0
:1000F0007D1300087D1300087D1300087D130008A0
:100100007D1300087D1300087D1300087D1300088F
:100110007D1300087D1300087D1300087D1300087F
:100120007D1300087D1300087D1300087D1300086F
:100130007D13000800000000000000007D1300088F
:100140007D1300087D1300087D1300087D1300084F
:100150007D1300087D1300087D1300087D1300083F
:100160007D1300087D1300087D1300087D1300082F
:100170007D1300087D1300087D13000800000000B7
:10018000000000007D1300080000000000000000D7
:100190007D13000800000000000000007D1300082F
:1001A0000000000000000000000000007D130008B7
:1001B0007D1300087D1300087D1300087D130008DF
:0401C0007D130008A3
:1001C40010B5054C237833B9044B13B10448AFF38D
:1001D40000800123237010BD0C00002000000000EB
:1001E400C813000808B5034B1BB103490348AFF318
:1001F400008008BD0000000010000020C8130008A3
:1002040053B94AB9002908BF00281CBF4FF0FF3179
:100214004FF0FF3000F07AB9ADF1080C6DE904CE6F
:1002240000F006F8DDF804E0DDE9022304B07047CD
:100234002DE9F0478C460D460446089E002B51D10B
:100244008A4217466DD9B2FA82FEBEF1000F0BD076
:10025400CEF1200C01FA0EF520FA0CFC02FA0EF78E
:100264004CEA050C00FA0EF44FEA174A250CBCFBC5
:10027400FAF81FFA87F90AFB18CC45EA0C4508FB83
:1002840009F3AB420AD9ED1908F1FF3280F023815A
:10029400AB4240F22081A8F102083D44ED1AA4B219
:1002A400B5FBFAF00AFB105544EA054400FB09F9D2
:1002B400A14509D9E41900F1FF3380F00A81A14571
:1002C40040F2078102383C44A4EB090440EA0840A8
:1002D4000021002E61D024FA0EF4002334607360F0
:1002E400BDE8F0878B4207D9002E54D0002186E860
:1002F40021000846BDE8F087B3FA83F1002940F0F5
:100304008E80AB4202D3824200F2FA80841A65EBFB
:1003140003050120AC46002E3FD086E81010BDE84E
:10032400F08712B90127B7FBF2F7B7FA87FEBEF1DF
:10033400000F34D1EB1B3A0C1FFA87FC0121B3FBED
:10034400F2F8250C02FB183345EA03450CFB08F3CD
:10035400AB4207D9ED1908F1FF3002D2AB4200F2EB
:10036400D1808046ED1AA3B2B5FBF2F002FB105522
:1003740043EA05440CFB00FCA44507D9E41900F149
:10038400FF3302D2A44500F2B8801846A4EB0C0453
:1003940040EA08409DE731463046BDE8F087CEF19B
:1003A400200405FA0EF307FA0EF720FA04F83A0CC3
:1003B40025FA04F448EA0308B4FBF2F14FEA1845BD
:1003C40002FB11441FFA87FC45EA044501FB0CF3C8
:1003D400AB4200FA0EF409D9ED1901F1FF3080F0B7
:1003E4008A80AB4240F2878002393D44EB1A1FFAFF
:1003F40088F5B3FBF2F002FB103345EA034500FB3A
:100404000CF3AB4207D9ED1900F1FF386FD2AB42C0
:100414006DD902383D44EB1A40EA01418FE7C1F13E
:10042400200722FA07F88B4005FA01F448EA03038F
:1004340020FA07FE4FEA134CFD404EEA040EB5FBCA
:10044400FCF94FEA1E440CFB19551FFA83F844EAE1
:10045400054509FB08F4AC4202FA01F200FA01FA7C
:1004640008D9ED1809F1FF3043D2AC4241D9A9F1C2
:1004740002091D442D1B1FFA8EFEB5FBFCF00CFB7C
:1004840010554EEA054400FB08F8A04507D9E418C6
:1004940000F1FF3529D2A04527D902381C4440EA8F
:1004A4000940A4EB0804A0FB02894C45C6464D460E
:1004B40015D312D056B1BAEB0E0364EB050404FA5B
:1004C40007F7CB401F43CC40376074600021BDE880
:1004D400F0871846F8E69046E0E6C245EAD2B8EB63
:1004E400020E69EB03050138E4E72846D7E74046E6
:1004F40091E78146BEE7014678E702383C4445E788
:10050400084608E7A8F102083D442BE7704700BFFE
:1005140038B50E4A0E4B054618784FF47A73B3FB80
:10052400F0F31068B0FBF3F000F09CF8044658B9FF
:100534000F2D09D8024629464FF0FF3000F05EF82F
:10054400044B20461D6038BD012038BD0800002042
:10055400000000200400002008B50B4B1A6842F488
:1005640000721A601A6842F480621A601A6842F4CF
:1005740080721A60032000F02FF80020FFF7C8FFF4
:1005840000F02CFE002008BD003C0240034A044B4E
:1005940011681B780B441360704700BF28000020CB
:1005A40000000020014B1868704700BF280000209D
:1005B40038B50446FFF7F6FF631C1CBF054B1B78D8
:1005C400054618BFE418FFF7EDFF401B8442FAD834
:1005D40038BD00BF00000020074AD36823F4E0635D
:1005E4001B041B0C43F0BF63000243F4003300F40C
:1005F400E0600343D360704700ED00E0174B30B573
:10060400DC68C4F30224C4F10703251D042B28BFAE
:100614000423062D4FF0010505FA03F303F1FF331C
:100624008CBF033C00241940A14005FA04F4013CAA
:100634002240002842EA01024FEA0212AFBF00F151
:10064400604000F00F00064BD2B2A5BF00F5614038
:10065400D2B21A5480F8002330BD00BF00ED00E090
:1006640014ED00E00138B0F1807F0AD2064B074A4E
:100674005860F02182F823100020072298601A6045
:1006840070470120704700BF10E000E000ED00E07B
:10069400044B1A6804280CBF42F0040222F004023E
:1006A4001A60704710E000E0704708B5FFF7FCFFE0
:1006B40008BD00002DE9F04F85B00B68DFF8A0817C
:1006C400654ADFF8A091019300234FF0010E019CCD
:1006D4000EFA03FE0EEA0406B64540F0AA804C6802
:1006E40024F01007022F16D14FEAD30A00EB8A0A2E
:1006F40003F0070BDAF820504FEA8B0B4FF00F0C86
:100704000CFA0BFC25EA0C0C0D6905FA0BF545EA0D
:100714000C05CAF820504FEA430A0325D0F800B06C
:1007240005FA0AF5ED4304F0030C0BEA050B0CFA89
:100734000AFC013F4CEA0B0C012FC0F800C011D891
:10074400876807EA050BCF6807FA0AFC4CEA0B072F
:100754008760476827EA0E0EC4F300179F4047EAF4
:100764000E074760C7683D408F6807FA0AF73D43A4
:10077400C560E5005DD54FF0000BCDF80CB0D8F89E
:100784004470364D47F48047C8F84470D8F8447034
:1007940007F480470397039F23F0030707F180477B
:1007A40007F59C3703F0030CD7F808A04FEA8C0C2C
:1007B4004FF00F0E0EFA0CFEA8422AEA0E0E3FD09E
:1007C40005F58065A8423DD005F58065A8423BD07B
:1007D40005F58065A84239D005F58065A84237D073
:1007E400484537D005F50065A84214BF07250625FE
:1007F40005FA0CF545EA0E05BD601568F74314F4D7
:10080400803F0CBF3D4035431560556814F4003FEC
:100814000CBF3D4035435560956814F4801F0CBFF0
:100824003D4035439560D568A40254BF3D403543EF
:10083400D5600133102B7FF448AF05B0BDE8F08FCD
:100844005D46D5E70125D3E70225D1E70325CFE7A8
:100854000425CDE70525CBE7003C0140000002401C
:1008640000380240001402400AB181617047090453
:10087400FBE7436959404161704700002DE9F041AD
:100884000D46044610B90120BDE8F081444B1A68B6
:1008940002F00F028A4228D321688F072DD4C8079B
:1008A40040D43F4B1A6802F00F02954266D3226887
:1008B40051076CD4130707D53A4A2169936823F486
:1008C400604343EAC103936000F098F8354B364A1D
:1008D4009B68C3F30313D35CD840344B18600020E7
:1008E400FFF716FE0020BDE8F081CAB21A701B683B
:1008F40003F00F039942C6D1CEE72A4B11F0040F3F
:100904001EBF9A6842F4E0529A600E0742BF9A688A
:1009140042F460429A609A68A06822F0F0020243AE
:100924009A60BCE762681F4B012A1DD11B6813F44F
:10093400003FA8D01B4EB36823F003031343B360F6
:10094400FFF730FE41F288380746B368626803F067
:100954000C03B3EB820FA4D0FFF724FEC01B404569
:10096400F3D90320BDE8F081911E01291B6802D848
:1009740013F0007FDDE713F0020FDAE7EAB21A7032
:100984001B6803F00F039D427FF47DAF8FE7054999
:10099400E0688B6823F4E05303438B608AE700BF6D
:1009A400003C024000380240E01300080800002028
:1009B400014B1868704700BF08000020044B054A2B
:1009C4009B68C3F38223D35C034A1068D840704702
:1009D40000380240F013000808000020044B054AC8
:1009E4009B68C3F34233D35C034A1068D840704712
:1009F40000380240F013000808000020204908B520
:100A04008B6803F00C03082B07D00C2B20D01D4A55
:100A14001D48042B18BF104608BD4A684B68496836
:100A240013F4800314BF18481648C1F3881118BF83
:100A3400002302F03F02A1FB0001FFF7E1FB104B92
:100A44005B68C3F3014301335B00B0FBF3F008BD03
:100A54004A684B68496813F4800314BF0A4809487C
:100A6400C1F3881118BF002302F03F02A1FB00016B
:100A7400FFF7C6FB024B5B68C3F30273E5E700BFF5
:100A8400003802400024F40000127A0003682DE9C3
:100A9400F341DF07044610D423689E0767D4236814
:100AA4001A0700F1B28023685B0700F1D080A269C5
:100AB400002A40F0398100201EE0974B9A6802F02A
:100AC4000C02042A10D09A6802F00C02082A02D1FF
:100AD4005B685D0208D4904B9A6802F00C020C2A01
:100AE4000DD15A6850020AD58B4B1B689903D3D594
:100AF4006368002BD0D1012002B0BDE8F0816268A8
:100B0400B2F5803F11D11A6842F480321A60FFF7BF
:100B140049FD814D06462B689A03BDD4FFF742FD7B
:100B2400801B6428F7D90320E6E77B4DB2F5A02F9C
:100B34002B6807D143F480232B602B6843F4803364
:100B44002B60E4E723F480332B602B6823F48023A9
:100B54002B60002ADBD1FFF725FD06462B689B039B
:100B64009AD5FFF71FFD801B6428F7D9DBE76A4B92
:100B74009A6812F00C0F10D09A6802F00C02082A3E
:100B840002D15B685F0208D5634A936803F00C03E3
:100B94000C2B11D153685E020ED45F4B1A68950773
:100BA40002D5E268012AA6D11A68216922F0F80266
:100BB40042EAC1021A6072E7E268584BB2B10122FC
:100BC4001A60FFF7EFFC544D06462B68980707D5CB
:100BD4002B68226923F0F80343EAC2032B605EE723
:100BE400FFF7E0FC801B0228EFD99CE71A60FFF7AF
:100BF400D9FC494D06462B6899077FF550AFFFF79E
:100C0400D1FC801B0228F6D98DE76269444B7AB186
:100C140001221A60FFF7C6FC3F4D06466B6F9F0723
:100C24003FF541AFFFF7BEFC801B0228F6D97AE7F7
:100C34001A60FFF7B7FC384D06466B6F98077FF5CF
:100C440032AFFFF7AFFC801B0228F6D96BE7324BBB
:100C54001A6C12F0805228D101921A6C42F0805220
:100C64001A641B6C03F080530193019B01262D4DE4
:100C74002B68D9051BD5A368274D012B27D12B6FD2
:100C840043F001032B67FFF78DFC234D074641F228
:100C940088382B6F9B0739D5002E3FF408AF1E4AC6
:100CA400136C23F08053136401E70026DFE72B68FD
:100CB40043F480732B60FFF775FC07462B68DA0555
:100CC400D9D4FFF76FFCC01B0228F7D92BE7052BFB
:100CD40004D12B6F43F004032B67D0E72A6F22F073
:100CE40001022A672A6F22F004022A67002BCAD164
:100CF400FFF758FC41F2883807462B6F9807CBD58D
:100D0400FFF750FCC01B4045F7D90CE7FFF74AFC3E
:100D1400C01B4045BDD906E70038024000004742E9
:100D2400800E474200700040234DAB6803F00C0373
:100D3400082B3FF4E0AE214E0023022A33602DD16C
:100D4400FFF730FC07462B68990121D4226AE36936
:100D54001343626A43EA8213E26A43EA0263226B40
:100D640043EA0273A26A144C5208013A43EA02436A
:100D74006B6001233360FFF715FC054623689A0175
:100D84003FF599AEFFF70EFC401B0228F6D9CAE6E0
:100D9400FFF708FCC01B0228D5D9C4E6FFF702FC04
:100DA40004462B689B017FF586AEFFF7FBFB001B17
:100DB4000228F6D9B7E600BF003802406000474277
:100DC4002DE9F0470668C2683369C16923F44053CA
:100DD40013433361044683680069F268034360691E
:100DE40022F41642034322F00C020B431343F36034
:100DF4007369A26923F440731343B1F5004F73611F
:100E04007A4B7CD19E4203D003F580639E4244D149
:100E1400FFF7E4FD192505FB00F360684FF0640952
:100E24004000B3FBF0F3B3FBF9F34FEA0318FFF709
:100E3400D5FD636868435B00B0FBF3F7FFF7CEFDB5
:100E4400636868435B00B0FBF3F3B3FBF9F309FB9E
:100E54001373DB003233B3FBF9F35B0003F4F8776D
:100E6400FFF7BCFD626868435200B0FBF2FAFFF77B
:100E7400B5FD636868435B00B0FBF3F3B3FBF9F3C0
:100E840009FB13A3DB003233B3FBF9F303F00703CD
:100E940043443B44B360BDE8F087FFF78FFD192559
:100EA40005FB00F360684FF064094000B3FBF0F306
:100EB400B3FBF9F34FEA0318FFF780FD6368684357
:100EC4005B00B0FBF3F7FFF779FD636868435B00F1
:100ED400B0FBF3F3B3FBF9F309FB1373DB00323319
:100EE400B3FBF9F35B0003F4F877FFF767FD62687F
:100EF40068435200B0FBF2FAFFF760FDB9E79E4287
:100F040002D03B4B9E4240D1FFF768FD676819252C
:100F14004FF0640905FB00F3BF00B3FBF7F3B3FB29
:100F2400F9F31F01FFF75AFD636868439B00B0FBA8
:100F3400F3F8FFF753FD636868439B00B0FBF3F3DA
:100F4400B3FBF9F309FB13831B013233B3FBF9F34E
:100F540003F0F008FFF742FD626868439200B0FBBB
:100F6400F2FAFFF73BFD636868439B00B0FBF3F3C1
:100F7400B3FBF9F309FB13A31B013233B3FBF9F3FE
:100F840003F00F0343EA080383E7FFF717FD6768DD
:100F940019254FF0640905FB00F3BF00B3FBF7F319
:100FA400B3FBF9F31F01FFF709FD636868439B0076
:100FB400B0FBF3F8FFF702FD636868439B00B0FBE6
:100FC400F3F3B3FBF9F309FB13831B013233B3FBD4
:100FD400F9F303F0F008FFF7F1FC6268684392004C
:100FE400B0FBF2FAFFF7EAFCBDE700BF00100140D6
:100FF4000014014010B5044640B390F8393003F0B2
:10100400FF021BB980F8382000F030F9226824234D
:1010140084F83930D36823F40053D3602046FFF7B3
:10102400CFFE23681A6922F490421A615A6922F0A9
:101034002A025A61DA6842F40052DA60002020235E
:10104400E06384F8393084F83A3010BD012010BDD3
:1010540030B595B00022274B0092196C41F08051B5
:1010640019641B6C244903F080530093009B019284
:101074000B6823F4404343F480430B600B680E92E7
:1010840003F440430193019B01230A931023022498
:101094000B930F9304254FF4A87307A807940D949A
:1010A4001093119512941394FFF7F0FC00B1FEE72E
:1010B4000F23029304904FF480530690214602A814
:1010C40003940593FFF7DAFB044600B1FEE7FFF74C
:1010D4006FFC4FF47A73B0FBF3F0FFF7C3FA2846C2
:1010E400FFF7D6FA224621464FF0FF30FFF786FA83
:1010F40015B030BD003802400070004000B58BB020
:101104000024FFF729FAFFF7A3FF2E4B01941A6B73
:101114002D4842F004021A631A6B02F00402019291
:10112400019A02941A6B42F080021A631A6B02F05D
:1011340080020292029A03941A6B42F001021A632B
:101144001A6B02F001020392039A04941A6B42F0A0
:1011540002021A631B6B03F002032246049320214C
:10116400049BFFF781FB4FF40053059305A9174B2C
:10117400174806930794FFF79DFA20230593124816
:101184000794012305A906930894FFF793FA1148DD
:10119400114A84604FF4E13380E80C000C23C460EE
:1011A400046143618461C461FFF724FF48B9064CBC
:1011B40020462021FFF75DFB4FF4FA70FFF7F8F9A2
:1011C400F6E7FEE70038024000000240000021106C
:1011D400000802402C0000200044004013B5224BBC
:1011E400002400945A6C42F480425A645A6C02F40B
:1011F40080420092009A01941A6C42F080521A6460
:101204001B6C03F0805301930720019BFFF7E4F963
:10121400224621466FF00B00FFF7F0F922462146E3
:101224006FF00A00FFF7EAF9224621466FF0090041
:10123400FFF7E4F9224621466FF00400FFF7DEF9D8
:10124400224621466FF00300FFF7D8F922462146D3
:101254006FF00100FFF7D2F9224621464FF0FF302C
:10126400FFF7CCF902B010BD003802407FB5026828
:101274000F4B9A4219D1002300930E4B0E481A6C5F
:1012840042F400321A641B6C03F400330093009B95
:101294000C23019302230293012303930323049356
:1012A40001A907230593FFF705FA07B05DF804FBCE
:1012B4000044004000380240000002407047FEE74E
:1012C400FEE7FEE7FEE770477047704708B5FFF793
:1012D4005DF9BDE80840FFF7E8B900000F49D1F80F
:1012E400883043F47003C1F888300D4B1A6800202D
:1012F40042F001021A6098601A6822F0847222F4A3
:1013040080321A60074A5A601A6822F480221A60EE
:10131400D8604FF000638B60704700BF00ED00E0C1
:101324000038024010300024DFF834D0002103E0FC
:101334000C4B5B58435004310B480C4B42189A42F7
:10134400F6D30B4A02E0002342F8043B094B9A42CD
:10135400F9D3FFF7C3FF00F011F8FFF7CFFE704792
:101364000000022008140008000000200C000020E7
:101374000C0000206C000020FEE7000070B50D4E4C
:101384000D4CA41BA4100025A54209D10B4E0C4CF6
:1013940000F018F8A41BA4100025A54205D170BDC7
:1013A40056F8253098470135EEE756F8253098472A
:1013B4000135F2E7001400080014000800140008C6
:1013C40004140008F8B500BFF8BC08BC9E4670477A
:0C13D400F8B500BFF8BC08BC9E4670478E
:1013E00000000000000000000102030406070809D5
:0813F0000000000001020304EB
:0813F8003CEEFF7F0100000044
:04140000E9010008F6
:04140400C501000816
:0C14080001000000100000000024F400AF
:040000050800132DAF
:00000001FF
